Component: ARM Compiler 5.05 update 1 (build 106) Tool: armlink [4d0efa]

==============================================================================

Section Cross References

    startup_stm32f767xx.o(RESET) refers to startup_stm32f767xx.o(STACK) for __initial_sp
    startup_stm32f767xx.o(RESET) refers to startup_stm32f767xx.o(.text) for Reset_Handler
    startup_stm32f767xx.o(RESET) refers to stm32f7xx_it.o(i.NMI_Handler) for NMI_Handler
    startup_stm32f767xx.o(RESET) refers to stm32f7xx_it.o(i.HardFault_Handler) for HardFault_Handler
    startup_stm32f767xx.o(RESET) refers to stm32f7xx_it.o(i.MemManage_Handler) for MemManage_Handler
    startup_stm32f767xx.o(RESET) refers to stm32f7xx_it.o(i.BusFault_Handler) for BusFault_Handler
    startup_stm32f767xx.o(RESET) refers to stm32f7xx_it.o(i.UsageFault_Handler) for UsageFault_Handler
    startup_stm32f767xx.o(RESET) refers to stm32f7xx_it.o(i.SVC_Handler) for SVC_Handler
    startup_stm32f767xx.o(RESET) refers to stm32f7xx_it.o(i.DebugMon_Handler) for DebugMon_Handler
    startup_stm32f767xx.o(RESET) refers to stm32f7xx_it.o(i.PendSV_Handler) for PendSV_Handler
    startup_stm32f767xx.o(RESET) refers to stm32f7xx_it.o(i.SysTick_Handler) for SysTick_Handler
    startup_stm32f767xx.o(RESET) refers to stm32f7xx_it.o(i.USART1_IRQHandler) for USART1_IRQHandler
    startup_stm32f767xx.o(.text) refers to system_stm32f7xx.o(i.SystemInit) for SystemInit
    startup_stm32f767xx.o(.text) refers to entry.o(.ARM.Collect$$$$00000000) for __main
    main.o(i.SystemClock_Config) refers to memseta.o(.text) for __aeabi_memclr4
    main.o(i.SystemClock_Config) refers to stm32f7xx_hal_pwr.o(i.HAL_PWR_EnableBkUpAccess) for HAL_PWR_EnableBkUpAccess
    main.o(i.SystemClock_Config) refers to stm32f7xx_hal_rcc.o(i.HAL_RCC_OscConfig) for HAL_RCC_OscConfig
    main.o(i.SystemClock_Config) refers to stm32f7xx_hal_pwr_ex.o(i.HAL_PWREx_EnableOverDrive) for HAL_PWREx_EnableOverDrive
==============================================================================

Removing Unused input sections from the image.

    Removing main.o(.rev16_text), (4 bytes).
    Removing main.o(.revsh_text), (4 bytes).
    Removing main.o(.rrx_text), (6 bytes).
    Removing gpio.o(.rev16_text), (4 bytes).
    Removing gpio.o(.revsh_text), (4 bytes).
    Removing gpio.o(.rrx_text), (6 bytes).
    Removing dma2d.o(.rev16_text), (4 bytes).
    Removing dma2d.o(.revsh_text), (4 bytes).
    Removing dma2d.o(.rrx_text), (6 bytes).
    Removing dma2d.o(i.HAL_DMA2D_MspDeInit), (28 bytes).
    Removing fmc.o(.rev16_text), (4 bytes).
    Removing fmc.o(.revsh_text), (4 bytes).
    Removing fmc.o(.rrx_text), (6 bytes).
    Removing fmc.o(i.FMC_SDRAM_ReadBuffer), (22 bytes).
    Removing fmc.o(i.FMC_SDRAM_WriteBuffer), (26 bytes).
    Removing fmc.o(i.HAL_SDRAM_MspDeInit), (108 bytes).
    Removing ltdc.o(.rev16_text), (4 bytes).
    Removing ltdc.o(.revsh_text), (4 bytes).
==============================================================================

Image Symbol Table

    Local Symbols

    Symbol Name                              Value     Ov Type        Size  Object(Section)

    ../Drivers/STM32F7xx_HAL_Driver/Src/stm32f7xx_hal.c 0x00000000   Number         0  stm32f7xx_hal.o ABSOLUTE
    ../Drivers/STM32F7xx_HAL_Driver/Src/stm32f7xx_hal_cortex.c 0x00000000   Number         0  stm32f7xx_hal_cortex.o ABSOLUTE
    ../Drivers/STM32F7xx_HAL_Driver/Src/stm32f7xx_hal_dma.c 0x00000000   Number         0  stm32f7xx_hal_dma.o ABSOLUTE
    ../Drivers/STM32F7xx_HAL_Driver/Src/stm32f7xx_hal_dma2d.c 0x00000000   Number         0  stm32f7xx_hal_dma2d.o ABSOLUTE
    ../Drivers/STM32F7xx_HAL_Driver/Src/stm32f7xx_hal_dma_ex.c 0x00000000   Number         0  stm32f7xx_hal_dma_ex.o ABSOLUTE
    ../Drivers/STM32F7xx_HAL_Driver/Src/stm32f7xx_hal_dsi.c 0x00000000   Number         0  stm32f7xx_hal_dsi.o ABSOLUTE
    ../Drivers/STM32F7xx_HAL_Driver/Src/stm32f7xx_hal_exti.c 0x00000000   Number         0  stm32f7xx_hal_exti.o ABSOLUTE
    ../Drivers/STM32F7xx_HAL_Driver/Src/stm32f7xx_hal_flash.c 0x00000000   Number         0  stm32f7xx_hal_flash.o ABSOLUTE
    ../Drivers/STM32F7xx_HAL_Driver/Src/stm32f7xx_hal_flash_ex.c 0x00000000   Number         0  stm32f7xx_hal_flash_ex.o ABSOLUTE
    ../Drivers/STM32F7xx_HAL_Driver/Src/stm32f7xx_hal_gpio.c 0x00000000   Number         0  stm32f7xx_hal_gpio.o ABSOLUTE
    ../Drivers/STM32F7xx_HAL_Driver/Src/stm32f7xx_hal_i2c.c 0x00000000   Number         0  stm32f7xx_hal_i2c.o ABSOLUTE
    ../Drivers/STM32F7xx_HAL_Driver/Src/stm32f7xx_hal_i2c_ex.c 0x00000000   Number         0  stm32f7xx_hal_i2c_ex.o ABSOLUTE
    ../Drivers/STM32F7xx_HAL_Driver/Src/stm32f7xx_hal_ltdc.c 0x00000000   Number         0  stm32f7xx_hal_ltdc.o ABSOLUTE
    ../Drivers/STM32F7xx_HAL_Driver/Src/stm32f7xx_hal_ltdc_ex.c 0x00000000   Number         0  stm32f7xx_hal_ltdc_ex.o ABSOLUTE
    ../Drivers/STM32F7xx_HAL_Driver/Src/stm32f7xx_hal_pwr.c 0x00000000   Number         0  stm32f7xx_hal_pwr.o ABSOLUTE
    ../Drivers/STM32F7xx_HAL_Driver/Src/stm32f7xx_hal_pwr_ex.c 0x00000000   Number         0  stm32f7xx_hal_pwr_ex.o ABSOLUTE
    ../Drivers/STM32F7xx_HAL_Driver/Src/stm32f7xx_hal_rcc.c 0x00000000   Number         0  stm32f7xx_hal_rcc.o ABSOLUTE
    ../Drivers/STM32F7xx_HAL_Driver/Src/stm32f7xx_hal_rcc_ex.c 0x00000000   Number         0  stm32f7xx_hal_rcc_ex.o ABSOLUTE
    ../Drivers/STM32F7xx_HAL_Driver/Src/stm32f7xx_hal_sdram.c 0x00000000   Number         0  stm32f7xx_hal_sdram.o ABSOLUTE
    ../Drivers/STM32F7xx_HAL_Driver/Src/stm32f7xx_hal_tim.c 0x00000000   Number         0  stm32f7xx_hal_tim.o ABSOLUTE
    ../Drivers/STM32F7xx_HAL_Driver/Src/stm32f7xx_hal_tim_ex.c 0x00000000   Number         0  stm32f7xx_hal_tim_ex.o ABSOLUTE
    ../Drivers/STM32F7xx_HAL_Driver/Src/stm32f7xx_ll_fmc.c 0x00000000   Number         0  stm32f7xx_ll_fmc.o ABSOLUTE
    ../Src/dma2d.c                           0x00000000   Number         0  dma2d.o ABSOLUTE
    ../Src/fmc.c                             0x00000000   Number         0  fmc.o ABSOLUTE
    ../Src/gpio.c                            0x00000000   Number         0  gpio.o ABSOLUTE
    ../Src/ltdc.c                            0x00000000   Number         0  ltdc.o ABSOLUTE
    ../Src/main.c                            0x00000000   Number         0  main.o ABSOLUTE
    ../Src/quadspi.c                         0x00000000   Number         0  quadspi.o ABSOLUTE
    ../Src/stm32f7xx_hal_msp.c               0x00000000   Number         0  stm32f7xx_hal_msp.o ABSOLUTE
    ../Src/stm32f7xx_it.c                    0x00000000   Number         0  stm32f7xx_it.o ABSOLUTE
    ../Src/system_stm32f7xx.c                0x00000000   Number         0  system_stm32f7xx.o ABSOLUTE
    ../Src/usart.c                           0x00000000   Number         0  usart.o ABSOLUTE
    ../clib/microlib/division.c              0x00000000   Number         0  uldiv.o ABSOLUTE
    ../clib/microlib/division.c              0x00000000   Number         0  uidiv.o ABSOLUTE
    ../clib/microlib/errno.c                 0x00000000   Number         0  errno.o ABSOLUTE
    ../clib/microlib/init/entry.s            0x00000000   Number         0  entry7b.o ABSOLUTE
    ../clib/microlib/init/entry.s            0x00000000   Number         0  entry8a.o ABSOLUTE
    ../clib/microlib/init/entry.s            0x00000000   Number         0  entry8b.o ABSOLUTE
    ../clib/microlib/init/entry.s            0x00000000   Number         0  entry9b.o ABSOLUTE
    ../clib/microlib/init/entry.s            0x00000000   Number         0  entry10a.o ABSOLUTE
    ../clib/microlib/init/entry.s            0x00000000   Number         0  entry10b.o ABSOLUTE
    ../clib/microlib/init/entry.s            0x00000000   Number         0  entry11a.o ABSOLUTE
    ../clib/microlib/init/entry.s            0x00000000   Number         0  entry11b.o ABSOLUTE
    ../clib/microlib/init/entry.s            0x00000000   Number         0  entry9a.o ABSOLUTE
    ../clib/microlib/init/entry.s            0x00000000   Number         0  entry2.o ABSOLUTE
    ../clib/microlib/init/entry.s            0x00000000   Number         0  entry.o ABSOLUTE
    ../clib/microlib/init/entry.s            0x00000000   Number         0  entry5.o ABSOLUTE
    ../clib/microlib/init/entry.s            0x00000000   Number         0  entry7a.o ABSOLUTE
    ../clib/microlib/longlong.c              0x00000000   Number         0  llsshr.o ABSOLUTE
    ../clib/microlib/longlong.c              0x00000000   Number         0  llushr.o ABSOLUTE
    ../clib/microlib/longlong.c              0x00000000   Number         0  llshl.o ABSOLUTE
    ../clib/microlib/malloc/malloc.c         0x00000000   Number         0  mallocr.o ABSOLUTE
    ../clib/microlib/malloc/malloc.c         0x00000000   Number         0  mallocra.o ABSOLUTE
    ../clib/microlib/malloc/malloc.c         0x00000000   Number         0  malloca.o ABSOLUTE
    ../clib/microlib/malloc/malloc.c         0x00000000   Number         0  malloc.o ABSOLUTE
    ../clib/microlib/malloc/mvars.c          0x00000000   Number         0  mvars.o ABSOLUTE
    ../clib/microlib/printf/printf.c         0x00000000   Number         0  printf2.o ABSOLUTE
    ../clib/microlib/printf/printf.c         0x00000000   Number         0  printf4.o ABSOLUTE
    ../clib/microlib/printf/printf.c         0x00000000   Number         0  printf1.o ABSOLUTE
    ../clib/microlib/printf/printf.c         0x00000000   Number         0  printf0.o ABSOLUTE
    ../clib/microlib/printf/printf.c         0x00000000   Number         0  printfb.o ABSOLUTE
    ../clib/microlib/printf/printf.c         0x00000000   Number         0  printf3.o ABSOLUTE
    ../clib/microlib/printf/printf.c         0x00000000   Number         0  printfa.o ABSOLUTE
    ../clib/microlib/printf/printf.c         0x00000000   Number         0  printf8.o ABSOLUTE
    ../clib/microlib/printf/printf.c         0x00000000   Number         0  printf7.o ABSOLUTE
    ../clib/microlib/printf/printf.c         0x00000000   Number         0  printf6.o ABSOLUTE
    ../clib/microlib/printf/printf.c         0x00000000   Number         0  printf5.o ABSOLUTE
    ../clib/microlib/printf/stubs.s          0x00000000   Number         0  stubs.o ABSOLUTE
    ../clib/microlib/string/memcpy.c         0x00000000   Number         0  memcpyb.o ABSOLUTE
    ../clib/microlib/string/memcpy.c         0x00000000   Number         0  memcpya.o ABSOLUTE
    ../clib/microlib/string/memset.c         0x00000000   Number         0  memseta.o ABSOLUTE
    ../clib/microlib/string/strcmp.c         0x00000000   Number         0  strcmp.o ABSOLUTE
    ../clib/microlib/stubs.s                 0x00000000   Number         0  iusefp.o ABSOLUTE
    ../clib/microlib/stubs.s                 0x00000000   Number         0  useno.o ABSOLUTE
    ../fplib/microlib/fpadd.c                0x00000000   Number         0  dadd.o ABSOLUTE
    ../fplib/microlib/fpdiv.c                0x00000000   Number         0  ddiv.o ABSOLUTE
    ../fplib/microlib/fpepilogue.c           0x00000000   Number         0  depilogue.o ABSOLUTE
    ../fplib/microlib/fpfix.c                0x00000000   Number         0  dfixul.o ABSOLUTE
    ../fplib/microlib/fpmul.c                0x00000000   Number         0  dmul.o ABSOLUTE
    ../mathlib/sqrt.c                        0x00000000   Number         0  sqrt_x.o ABSOLUTE
    ../mathlib/sqrt.c                        0x00000000   Number         0  sqrt.o ABSOLUTE
    ..\Drivers\STM32F7xx_HAL_Driver\Src\stm32f7xx_hal.c 0x00000000   Number         0  stm32f7xx_hal.o ABSOLUTE
    ..\Drivers\STM32F7xx_HAL_Driver\Src\stm32f7xx_hal_cortex.c 0x00000000   Number         0  stm32f7xx_hal_cortex.o ABSOLUTE
    ..\Drivers\STM32F7xx_HAL_Driver\Src\stm32f7xx_hal_dma.c 0x00000000   Number         0  stm32f7xx_hal_dma.o ABSOLUTE
    ..\Drivers\STM32F7xx_HAL_Driver\Src\stm32f7xx_hal_dma2d.c 0x00000000   Number         0  stm32f7xx_hal_dma2d.o ABSOLUTE
    ..\Drivers\STM32F7xx_HAL_Driver\Src\stm32f7xx_hal_dma_ex.c 0x00000000   Number         0  stm32f7xx_hal_dma_ex.o ABSOLUTE
    ..\Drivers\STM32F7xx_HAL_Driver\Src\stm32f7xx_hal_dsi.c 0x00000000   Number         0  stm32f7xx_hal_dsi.o ABSOLUTE
    ..\Drivers\STM32F7xx_HAL_Driver\Src\stm32f7xx_hal_exti.c 0x00000000   Number         0  stm32f7xx_hal_exti.o ABSOLUTE
    ..\Drivers\STM32F7xx_HAL_Driver\Src\stm32f7xx_hal_flash.c 0x00000000   Number         0  stm32f7xx_hal_flash.o ABSOLUTE
    ..\Drivers\STM32F7xx_HAL_Driver\Src\stm32f7xx_hal_flash_ex.c 0x00000000   Number         0  stm32f7xx_hal_flash_ex.o ABSOLUTE
    ..\Drivers\STM32F7xx_HAL_Driver\Src\stm32f7xx_hal_gpio.c 0x00000000   Number         0  stm32f7xx_hal_gpio.o ABSOLUTE
    ..\Drivers\STM32F7xx_HAL_Driver\Src\stm32f7xx_hal_i2c.c 0x00000000   Number         0  stm32f7xx_hal_i2c.o ABSOLUTE
    ..\Drivers\STM32F7xx_HAL_Driver\Src\stm32f7xx_hal_i2c_ex.c 0x00000000   Number         0  stm32f7xx_hal_i2c_ex.o ABSOLUTE
    ..\Drivers\STM32F7xx_HAL_Driver\Src\stm32f7xx_hal_ltdc.c 0x00000000   Number         0  stm32f7xx_hal_ltdc.o ABSOLUTE
    ..\Drivers\STM32F7xx_HAL_Driver\Src\stm32f7xx_hal_ltdc_ex.c 0x00000000   Number         0  stm32f7xx_hal_ltdc_ex.o ABSOLUTE
    ..\Drivers\STM32F7xx_HAL_Driver\Src\stm32f7xx_hal_pwr.c 0x00000000   Number         0  stm32f7xx_hal_pwr.o ABSOLUTE
    ..\Drivers\STM32F7xx_HAL_Driver\Src\stm32f7xx_hal_pwr_ex.c 0x00000000   Number         0  stm32f7xx_hal_pwr_ex.o ABSOLUTE
    ..\Drivers\STM32F7xx_HAL_Driver\Src\stm32f7xx_hal_qspi.c 0x00000000   Number         0  stm32f7xx_hal_qspi.o ABSOLUTE
    ..\Drivers\STM32F7xx_HAL_Driver\Src\stm32f7xx_hal_rcc.c 0x00000000   Number         0  stm32f7xx_hal_rcc.o ABSOLUTE
    ..\Drivers\STM32F7xx_HAL_Driver\Src\stm32f7xx_hal_rcc_ex.c 0x00000000   Number         0  stm32f7xx_hal_rcc_ex.o ABSOLUTE
    ..\Drivers\STM32F7xx_HAL_Driver\Src\stm32f7xx_hal_sdram.c 0x00000000   Number         0  stm32f7xx_hal_sdram.o ABSOLUTE
    ..\Drivers\STM32F7xx_HAL_Driver\Src\stm32f7xx_hal_tim.c 0x00000000   Number         0  stm32f7xx_hal_tim.o ABSOLUTE
    ..\Drivers\STM32F7xx_HAL_Driver\Src\stm32f7xx_hal_tim_ex.c 0x00000000   Number         0  stm32f7xx_hal_tim_ex.o ABSOLUTE
    ..\Drivers\STM32F7xx_HAL_Driver\Src\stm32f7xx_hal_uart.c 0x00000000   Number         0  stm32f7xx_hal_uart.o ABSOLUTE
    ..\Drivers\STM32F7xx_HAL_Driver\Src\stm32f7xx_hal_uart_ex.c 0x00000000   Number         0  stm32f7xx_hal_uart_ex.o ABSOLUTE
    ..\Drivers\STM32F7xx_HAL_Driver\Src\stm32f7xx_ll_fmc.c 0x00000000   Number         0  stm32f7xx_ll_fmc.o ABSOLUTE
    ..\GROUP_Lib\Src\Framework.c             0x00000000   Number         0  framework.o ABSOLUTE
    ..\GROUP_Lib\Src\button.c                0x00000000   Number         0  button.o ABSOLUTE
    ..\GROUP_Lib\Src\lcd_page.c              0x00000000   Number         0  lcd_page.o ABSOLUTE
    ..\GROUP_Lib\Src\mlcd.c                  0x00000000   Number         0  mlcd.o ABSOLUTE
    ..\GROUP_Lib\Src\variable.c              0x00000000   Number         0  variable.o ABSOLUTE
    ..\Src\dma2d.c                           0x00000000   Number         0  dma2d.o ABSOLUTE
    ..\Src\fmc.c                             0x00000000   Number         0  fmc.o ABSOLUTE
    ..\Src\gpio.c                            0x00000000   Number         0  gpio.o ABSOLUTE
    ..\Src\ltdc.c                            0x00000000   Number         0  ltdc.o ABSOLUTE
    ..\Src\main.c                            0x00000000   Number         0  main.o ABSOLUTE
    ..\Src\quadspi.c                         0x00000000   Number         0  quadspi.o ABSOLUTE
    ..\Src\stm32f7xx_hal_msp.c               0x00000000   Number         0  stm32f7xx_hal_msp.o ABSOLUTE
    ..\Src\stm32f7xx_it.c                    0x00000000   Number         0  stm32f7xx_it.o ABSOLUTE
    ..\Src\system_stm32f7xx.c                0x00000000   Number         0  system_stm32f7xx.o ABSOLUTE
    ..\Src\usart.c                           0x00000000   Number         0  usart.o ABSOLUTE
    ..\\Drivers\\STM32F7xx_HAL_Driver\\Src\\stm32f7xx_hal_qspi.c 0x00000000   Number         0  stm32f7xx_hal_qspi.o ABSOLUTE
    ..\\Drivers\\STM32F7xx_HAL_Driver\\Src\\stm32f7xx_hal_uart.c 0x00000000   Number         0  stm32f7xx_hal_uart.o ABSOLUTE
    ..\\Drivers\\STM32F7xx_HAL_Driver\\Src\\stm32f7xx_hal_uart_ex.c 0x00000000   Number         0  stm32f7xx_hal_uart_ex.o ABSOLUTE
    ..\\GROUP_Lib\\Src\\Framework.c          0x00000000   Number         0  framework.o ABSOLUTE
    ..\\GROUP_Lib\\Src\\lcd_page.c           0x00000000   Number         0  lcd_page.o ABSOLUTE
    ..\\GROUP_Lib\\Src\\mlcd.c               0x00000000   Number         0  mlcd.o ABSOLUTE
    ..\\GROUP_Lib\\Src\\variable.c           0x00000000   Number         0  variable.o ABSOLUTE
    ..\\zhendianyuanzi\\24CXX\\24cxx.c       0x00000000   Number         0  24cxx.o ABSOLUTE
    ..\\zhendianyuanzi\\IIC\\myiic.c         0x00000000   Number         0  myiic.o ABSOLUTE
    ..\\zhendianyuanzi\\KEY\\key.c           0x00000000   Number         0  key.o ABSOLUTE
    ..\\zhendianyuanzi\\LCD\\TOUCH\\ctiic.c  0x00000000   Number         0  ctiic.o ABSOLUTE
    ..\\zhendianyuanzi\\LCD\\TOUCH\\ft5206.c 0x00000000   Number         0  ft5206.o ABSOLUTE
    ..\\zhendianyuanzi\\LCD\\TOUCH\\gt9147.c 0x00000000   Number         0  gt9147.o ABSOLUTE
    ..\\zhendianyuanzi\\LCD\\TOUCH\\gt9271.c 0x00000000   Number         0  gt9271.o ABSOLUTE
    ..\\zhendianyuanzi\\LCD\\TOUCH\\ott2001a.c 0x00000000   Number         0  ott2001a.o ABSOLUTE
    ..\\zhendianyuanzi\\LCD\\TOUCH\\touch.c  0x00000000   Number         0  touch.o ABSOLUTE
    ..\\zhendianyuanzi\\LCD\\lcd.c           0x00000000   Number         0  lcd.o ABSOLUTE
    ..\\zhendianyuanzi\\LED\\led.c           0x00000000   Number         0  led.o ABSOLUTE
    ..\\zhendianyuanzi\\QSPI\\qspi.c         0x00000000   Number         0  qspi.o ABSOLUTE
    ..\\zhendianyuanzi\\W25QXX\\w25qxx.c     0x00000000   Number         0  w25qxx.o ABSOLUTE
    ..\\zhendianyuanzi\\system\\delay.c      0x00000000   Number         0  delay.o ABSOLUTE
    ..\\zhendianyuanzi\\system\\sys.c        0x00000000   Number         0  sys.o ABSOLUTE
    ..\zhendianyuanzi\24CXX\24cxx.c          0x00000000   Number         0  24cxx.o ABSOLUTE
    ..\zhendianyuanzi\IIC\myiic.c            0x00000000   Number         0  myiic.o ABSOLUTE
    ..\zhendianyuanzi\KEY\key.c              0x00000000   Number         0  key.o ABSOLUTE
    ..\zhendianyuanzi\LCD\TOUCH\ctiic.c      0x00000000   Number         0  ctiic.o ABSOLUTE
    ..\zhendianyuanzi\LCD\TOUCH\ft5206.c     0x00000000   Number         0  ft5206.o ABSOLUTE
    ..\zhendianyuanzi\LCD\TOUCH\gt9147.c     0x00000000   Number         0  gt9147.o ABSOLUTE
    ..\zhendianyuanzi\LCD\TOUCH\gt9271.c     0x00000000   Number         0  gt9271.o ABSOLUTE
    ..\zhendianyuanzi\LCD\TOUCH\ott2001a.c   0x00000000   Number         0  ott2001a.o ABSOLUTE
    ..\zhendianyuanzi\LCD\TOUCH\touch.c      0x00000000   Number         0  touch.o ABSOLUTE
    ..\zhendianyuanzi\LCD\lcd.c              0x00000000   Number         0  lcd.o ABSOLUTE
    ..\zhendianyuanzi\LED\led.c              0x00000000   Number         0  led.o ABSOLUTE
    ..\zhendianyuanzi\QSPI\qspi.c            0x00000000   Number         0  qspi.o ABSOLUTE
    ..\zhendianyuanzi\W25QXX\w25qxx.c        0x00000000   Number         0  w25qxx.o ABSOLUTE
    ..\zhendianyuanzi\system\delay.c         0x00000000   Number         0  delay.o ABSOLUTE
    ..\zhendianyuanzi\system\sys.c           0x00000000   Number         0  sys.o ABSOLUTE
    cdrcmple.s                               0x00000000   Number         0  cdrcmple.o ABSOLUTE
    dc.s                                     0x00000000   Number         0  dc.o ABSOLUTE
    handlers.s                               0x00000000   Number         0  handlers.o ABSOLUTE
    init.s                                   0x00000000   Number         0  init.o ABSOLUTE
    startup_stm32f767xx.s                    0x00000000   Number         0  startup_stm32f767xx.o ABSOLUTE
    RESET                                    0x08000000   Section      504  startup_stm32f767xx.o(RESET)
    .ARM.Collect$$$$00000000                 0x080001f8   Section        0  entry.o(.ARM.Collect$$$$00000000)
    .ARM.Collect$$$$00000001                 0x080001f8   Section        4  entry2.o(.ARM.Collect$$$$00000001)
    .ARM.Collect$$$$00000004                 0x080001fc   Section        4  entry5.o(.ARM.Collect$$$$00000004)
    .ARM.Collect$$$$00000008                 0x08000200   Section        0  entry7b.o(.ARM.Collect$$$$00000008)
    .ARM.Collect$$$$0000000A                 0x08000200   Section        0  entry8b.o(.ARM.Collect$$$$0000000A)
    .ARM.Collect$$$$0000000B                 0x08000200   Section        8  entry9a.o(.ARM.Collect$$$$0000000B)
    .ARM.Collect$$$$0000000D                 0x08000208   Section        0  entry10a.o(.ARM.Collect$$$$0000000D)
    .ARM.Collect$$$$0000000F                 0x08000208   Section        0  entry11a.o(.ARM.Collect$$$$0000000F)
    .ARM.Collect$$$$00002712                 0x08000208   Section        4  entry2.o(.ARM.Collect$$$$00002712)
    __lit__00000000                          0x08000208   Data           4  entry2.o(.ARM.Collect$$$$00002712)
    .text                                    0x0800020c   Section       36  startup_stm32f767xx.o(.text)
    $v0                                      0x0800020c   Number         0  startup_stm32f767xx.o(.text)
    .text                                    0x08000230   Section        0  uldiv.o(.text)
    .text                                    0x08000292   Section        0  memcpya.o(.text)
    .text                                    0x080002b6   Section        0  memseta.o(.text)
    .text                                    0x080002da   Section        0  strcmp.o(.text)
    .text                                    0x080002f6   Section        0  llshl.o(.text)
    .text                                    0x08000314   Section        0  llushr.o(.text)
    .text                                    0x08000334   Section        0  iusefp.o(.text)
    .text                                    0x08000334   Section       36  init.o(.text)
    i.AT24CXX_ReadLenByte                    0x08000358   Section        0  24cxx.o(i.AT24CXX_ReadLenByte)
    i.AT24CXX_ReadOneByte                    0x08000380   Section        0  24cxx.o(i.AT24CXX_ReadOneByte)
    i.AT24CXX_WriteLenByte                   0x080003c2   Section        0  24cxx.o(i.AT24CXX_WriteLenByte)
    i.AT24CXX_WriteOneByte                   0x080003ec   Section        0  24cxx.o(i.AT24CXX_WriteOneByte)
    i.BusFault_Handler                       0x0800042a   Section        0  stm32f7xx_it.o(i.BusFault_Handler)
    i.Button1_Function                       0x0800042c   Section        0  variable.o(i.Button1_Function)
    i.Button2_Function                       0x08000448   Section        0  variable.o(i.Button2_Function)
    i.Button3_Function                       0x08000464   Section        0  variable.o(i.Button3_Function)
    i.CT_IIC_Ack                             0x08000480   Section        0  ctiic.o(i.CT_IIC_Ack)
    i.CT_IIC_Init                            0x080004dc   Section        0  ctiic.o(i.CT_IIC_Init)
    i.CT_IIC_NAck                            0x08000534   Section        0  ctiic.o(i.CT_IIC_NAck)
    i.CT_IIC_Read_Byte                       0x08000590   Section        0  ctiic.o(i.CT_IIC_Read_Byte)
    i.CT_IIC_Send_Byte                       0x08000600   Section        0  ctiic.o(i.CT_IIC_Send_Byte)
    i.CT_IIC_Start                           0x08000678   Section        0  ctiic.o(i.CT_IIC_Start)
    i.CT_IIC_Stop                            0x080006d0   Section        0  ctiic.o(i.CT_IIC_Stop)
    i.CT_IIC_Wait_Ack                        0x0800071c   Section        0  ctiic.o(i.CT_IIC_Wait_Ack)
    i.DebugMon_Handler                       0x08000780   Section        0  stm32f7xx_it.o(i.DebugMon_Handler)
    i.Error_Handler                          0x08000782   Section        0  main.o(i.Error_Handler)
    i.FMC_SDRAM_Init                         0x08000784   Section        0  stm32f7xx_ll_fmc.o(i.FMC_SDRAM_Init)
    i.FMC_SDRAM_ProgramRefreshRate           0x080007e2   Section        0  stm32f7xx_ll_fmc.o(i.FMC_SDRAM_ProgramRefreshRate)
    i.FMC_SDRAM_SendCommand                  0x080007ee   Section        0  stm32f7xx_ll_fmc.o(i.FMC_SDRAM_SendCommand)
    i.FMC_SDRAM_Timing_Init                  0x08000814   Section        0  stm32f7xx_ll_fmc.o(i.FMC_SDRAM_Timing_Init)
    i.GT9147_Init                            0x080008a0   Section        0  gt9147.o(i.GT9147_Init)
    i.GT9147_RD_Reg                          0x080009e4   Section        0  gt9147.o(i.GT9147_RD_Reg)
    i.GT9147_Scan                            0x08000a44   Section        0  gt9147.o(i.GT9147_Scan)
    i.GT9147_Send_Cfg                        0x08000c50   Section        0  gt9147.o(i.GT9147_Send_Cfg)
    i.GT9147_WR_Reg                          0x08000ca0   Section        0  gt9147.o(i.GT9147_WR_Reg)
    i.HAL_DMA2D_ConfigLayer                  0x08000cf4   Section        0  stm32f7xx_hal_dma2d.o(i.HAL_DMA2D_ConfigLayer)
    i.HAL_DMA2D_Init                         0x08000dac   Section        0  stm32f7xx_hal_dma2d.o(i.HAL_DMA2D_Init)
    i.HAL_DMA2D_MspInit                      0x08000e1c   Section        0  dma2d.o(i.HAL_DMA2D_MspInit)
    i.HAL_DMA_Abort                          0x08000e44   Section        0  stm32f7xx_hal_dma.o(i.HAL_DMA_Abort)
    i.HAL_DMA_Abort_IT                       0x08000ed6   Section        0  stm32f7xx_hal_dma.o(i.HAL_DMA_Abort_IT)
    i.HAL_Delay                              0x08000efc   Section        0  stm32f7xx_hal.o(i.HAL_Delay)
    i.HAL_FMC_MspInit                        0x08000f20   Section        0  fmc.o(i.HAL_FMC_MspInit)
    HAL_FMC_MspInit                          0x08000f21   Thumb Code   132  fmc.o(i.HAL_FMC_MspInit)
    i.HAL_GPIO_Init                          0x08000fc0   Section        0  stm32f7xx_hal_gpio.o(i.HAL_GPIO_Init)
    i.HAL_GPIO_ReadPin                       0x08001198   Section        0  stm32f7xx_hal_gpio.o(i.HAL_GPIO_ReadPin)
    i.HAL_GPIO_WritePin                      0x080011a2   Section        0  stm32f7xx_hal_gpio.o(i.HAL_GPIO_WritePin)
    i.HAL_GetTick                            0x080011ac   Section        0  stm32f7xx_hal.o(i.HAL_GetTick)
    i.HAL_IncTick                            0x080011b8   Section        0  stm32f7xx_hal.o(i.HAL_IncTick)
    i.HAL_Init                               0x080011c8   Section        0  stm32f7xx_hal.o(i.HAL_Init)
    i.HAL_InitTick                           0x080011e0   Section        0  stm32f7xx_hal.o(i.HAL_InitTick)
    i.HAL_LTDC_ConfigLayer                   0x08001220   Section        0  stm32f7xx_hal_ltdc.o(i.HAL_LTDC_ConfigLayer)
    i.HAL_LTDC_Init                          0x08001274   Section        0  stm32f7xx_hal_ltdc.o(i.HAL_LTDC_Init)
    i.HAL_LTDC_MspInit                       0x0800136c   Section        0  ltdc.o(i.HAL_LTDC_MspInit)
    i.HAL_LTDC_SetWindowPosition             0x08001450   Section        0  stm32f7xx_hal_ltdc.o(i.HAL_LTDC_SetWindowPosition)
    i.HAL_LTDC_SetWindowSize                 0x080014a4   Section        0  stm32f7xx_hal_ltdc.o(i.HAL_LTDC_SetWindowSize)
    i.HAL_MspInit                            0x080014f8   Section        0  stm32f7xx_hal_msp.o(i.HAL_MspInit)
    i.HAL_NVIC_EnableIRQ                     0x08001528   Section        0  stm32f7xx_hal_cortex.o(i.HAL_NVIC_EnableIRQ)
    i.HAL_NVIC_SetPriority                   0x08001544   Section        0  stm32f7xx_hal_cortex.o(i.HAL_NVIC_SetPriority)
    i.HAL_NVIC_SetPriorityGrouping           0x08001584   Section        0  stm32f7xx_hal_cortex.o(i.HAL_NVIC_SetPriorityGrouping)
    i.HAL_PWREx_EnableOverDrive              0x080015a8   Section        0  stm32f7xx_hal_pwr_ex.o(i.HAL_PWREx_EnableOverDrive)
    i.HAL_PWR_EnableBkUpAccess               0x08001614   Section        0  stm32f7xx_hal_pwr.o(i.HAL_PWR_EnableBkUpAccess)
    i.HAL_QSPI_Init                          0x08001624   Section        0  stm32f7xx_hal_qspi.o(i.HAL_QSPI_Init)
    i.HAL_QSPI_MspInit                       0x080016d4   Section        0  quadspi.o(i.HAL_QSPI_MspInit)
    i.HAL_RCCEx_PeriphCLKConfig              0x08001774   Section        0  stm32f7xx_hal_rcc_ex.o(i.HAL_RCCEx_PeriphCLKConfig)
    i.HAL_RCC_ClockConfig                    0x08001cb0   Section        0  stm32f7xx_hal_rcc.o(i.HAL_RCC_ClockConfig)
    i.HAL_RCC_GetPCLK1Freq                   0x08001de0   Section        0  stm32f7xx_hal_rcc.o(i.HAL_RCC_GetPCLK1Freq)
    i.HAL_RCC_GetPCLK2Freq                   0x08001e00   Section        0  stm32f7xx_hal_rcc.o(i.HAL_RCC_GetPCLK2Freq)
    i.HAL_RCC_GetSysClockFreq                0x08001e20   Section        0  stm32f7xx_hal_rcc.o(i.HAL_RCC_GetSysClockFreq)
    i.HAL_RCC_OscConfig                      0x08001e84   Section        0  stm32f7xx_hal_rcc.o(i.HAL_RCC_OscConfig)
    i.HAL_SDRAM_Init                         0x0800221c   Section        0  stm32f7xx_hal_sdram.o(i.HAL_SDRAM_Init)
    i.HAL_SDRAM_MspInit                      0x0800225e   Section        0  fmc.o(i.HAL_SDRAM_MspInit)
    i.HAL_SDRAM_ProgramRefreshRate           0x08002262   Section        0  stm32f7xx_hal_sdram.o(i.HAL_SDRAM_ProgramRefreshRate)
    i.HAL_SDRAM_SendCommand                  0x08002284   Section        0  stm32f7xx_hal_sdram.o(i.HAL_SDRAM_SendCommand)
    i.HAL_SYSTICK_CLKSourceConfig            0x080022b4   Section        0  stm32f7xx_hal_cortex.o(i.HAL_SYSTICK_CLKSourceConfig)
    i.HAL_SYSTICK_Config                     0x080022cc   Section        0  stm32f7xx_hal_cortex.o(i.HAL_SYSTICK_Config)
    i.HAL_UARTEx_RxEventCallback             0x080022f2   Section        0  stm32f7xx_hal_uart.o(i.HAL_UARTEx_RxEventCallback)
    i.HAL_UARTEx_WakeupCallback              0x080022f4   Section        0  stm32f7xx_hal_uart.o(i.HAL_UARTEx_WakeupCallback)
    i.HAL_UART_ErrorCallback                 0x080022f6   Section        0  stm32f7xx_hal_uart.o(i.HAL_UART_ErrorCallback)
    i.HAL_UART_IRQHandler                    0x080022f8   Section        0  stm32f7xx_hal_uart.o(i.HAL_UART_IRQHandler)
    i.HAL_UART_Init                          0x0800252c   Section        0  stm32f7xx_hal_uart.o(i.HAL_UART_Init)
    i.HAL_UART_MspInit                       0x08002594   Section        0  usart.o(i.HAL_UART_MspInit)
    i.HAL_UART_Transmit                      0x08002608   Section        0  stm32f7xx_hal_uart.o(i.HAL_UART_Transmit)
    i.HAL_UART_TxCpltCallback                0x080026c0   Section        0  stm32f7xx_hal_uart.o(i.HAL_UART_TxCpltCallback)
    i.HardFault_Handler                      0x080026c2   Section        0  stm32f7xx_it.o(i.HardFault_Handler)
    i.IIC_Ack                                0x080026c4   Section        0  myiic.o(i.IIC_Ack)
    i.IIC_NAck                               0x08002714   Section        0  myiic.o(i.IIC_NAck)
    i.IIC_Read_Byte                          0x08002764   Section        0  myiic.o(i.IIC_Read_Byte)
    i.IIC_Send_Byte                          0x080027cc   Section        0  myiic.o(i.IIC_Send_Byte)
    i.IIC_Start                              0x08002838   Section        0  myiic.o(i.IIC_Start)
    i.IIC_Stop                               0x08002888   Section        0  myiic.o(i.IIC_Stop)
    i.IIC_Wait_Ack                           0x080028d8   Section        0  myiic.o(i.IIC_Wait_Ack)
    i.LCD_Clear                              0x0800293c   Section        0  lcd.o(i.LCD_Clear)
    i.LCD_Display_Dir                        0x08002984   Section        0  lcd.o(i.LCD_Display_Dir)
    i.LCD_DrawLine                           0x08002a78   Section        0  lcd.o(i.LCD_DrawLine)
    i.LCD_DrawPoint                          0x08002b10   Section        0  lcd.o(i.LCD_DrawPoint)
    i.LCD_DrawRectangle                      0x08002b40   Section        0  lcd.o(i.LCD_DrawRectangle)
    i.LCD_Draw_Circle                        0x08002b7a   Section        0  lcd.o(i.LCD_Draw_Circle)
    i.LCD_Fast_DrawPoint                     0x08002c2c   Section        0  lcd.o(i.LCD_Fast_DrawPoint)
    i.LCD_Fill                               0x08002d20   Section        0  lcd.o(i.LCD_Fill)
    i.LCD_Init                               0x08002d80   Section        0  lcd.o(i.LCD_Init)
    i.LCD_Page_Prepare                       0x08002e74   Section        0  lcd_page.o(i.LCD_Page_Prepare)
    i.LCD_Pow                                0x08002f00   Section        0  lcd.o(i.LCD_Pow)
    i.LCD_Prepare                            0x08002f10   Section        0  mlcd.o(i.LCD_Prepare)
    i.LCD_Scan_Dir                           0x08002f6c   Section        0  lcd.o(i.LCD_Scan_Dir)
    i.LCD_SetCursor                          0x08003124   Section        0  lcd.o(i.LCD_SetCursor)
    i.LCD_ShowChar                           0x08003228   Section        0  lcd.o(i.LCD_ShowChar)
    i.LCD_ShowNum                            0x0800330c   Section        0  lcd.o(i.LCD_ShowNum)
    i.LCD_ShowString                         0x08003384   Section        0  lcd.o(i.LCD_ShowString)
    i.LCD_WR_DATA                            0x080033d8   Section        0  lcd.o(i.LCD_WR_DATA)
    i.LCD_WR_REG                             0x080033f0   Section        0  lcd.o(i.LCD_WR_REG)
    i.LCD_WriteRAM_Prepare                   0x08003408   Section        0  lcd.o(i.LCD_WriteRAM_Prepare)
    i.LCD_WriteReg                           0x0800341c   Section        0  lcd.o(i.LCD_WriteReg)
    i.LTDC_Clear                             0x0800342c   Section        0  ltdc.o(i.LTDC_Clear)
    i.LTDC_Display_Dir                       0x0800344c   Section        0  ltdc.o(i.LTDC_Display_Dir)
    i.LTDC_Draw_Point                        0x08003470   Section        0  ltdc.o(i.LTDC_Draw_Point)
    i.LTDC_Fill                              0x080034ac   Section        0  ltdc.o(i.LTDC_Fill)
    i.LTDC_Layer_Parameter_Config            0x08003560   Section        0  lcd.o(i.LTDC_Layer_Parameter_Config)
    i.LTDC_Select_Layer                      0x080035c0   Section        0  ltdc.o(i.LTDC_Select_Layer)
    i.LTDC_SetConfig                         0x080035cc   Section        0  stm32f7xx_hal_ltdc.o(i.LTDC_SetConfig)
    LTDC_SetConfig                           0x080035cd   Thumb Code   464  stm32f7xx_hal_ltdc.o(i.LTDC_SetConfig)
    i.MX_DMA2D_Init                          0x0800379c   Section        0  dma2d.o(i.MX_DMA2D_Init)
    i.MX_FMC_Init                            0x080037e4   Section        0  fmc.o(i.MX_FMC_Init)
    i.MX_GPIO_Init                           0x08003850   Section        0  gpio.o(i.MX_GPIO_Init)
    i.MX_LTDC_Init                           0x08003968   Section        0  ltdc.o(i.MX_LTDC_Init)
    i.MX_QUADSPI_Init                        0x08003a48   Section        0  quadspi.o(i.MX_QUADSPI_Init)
    i.MX_USART1_UART_Init                    0x08003a88   Section        0  usart.o(i.MX_USART1_UART_Init)
    i.MemManage_Handler                      0x08003ac4   Section        0  stm32f7xx_it.o(i.MemManage_Handler)
    i.Method_LCD_Add_Page                    0x08003ac8   Section        0  mlcd.o(i.Method_LCD_Add_Page)
    i.Method_LCD_Init                        0x08003b24   Section        0  mlcd.o(i.Method_LCD_Init)
    i.Method_LCD_Page_Add_Button             0x08003b34   Section        0  lcd_page.o(i.Method_LCD_Page_Add_Button)
    i.Method_LCD_Page_Add_Line               0x08003b94   Section        0  lcd_page.o(i.Method_LCD_Page_Add_Line)
    i.Method_LCD_Page_Button_Show_Init       0x08003ba8   Section        0  lcd_page.o(i.Method_LCD_Page_Button_Show_Init)
    i.Method_LCD_Page_Button_Touch_Scan      0x08003c04   Section        0  lcd_page.o(i.Method_LCD_Page_Button_Touch_Scan)
    i.Method_LCD_Page_Change_Display_direction 0x08003c78   Section        0  lcd_page.o(i.Method_LCD_Page_Change_Display_direction)
    i.Method_LCD_Page_Refresh_Button         0x08003ca4   Section        0  lcd_page.o(i.Method_LCD_Page_Refresh_Button)
    i.Method_LCD_Page_Touch_Function         0x08003d34   Section        0  lcd_page.o(i.Method_LCD_Page_Touch_Function)
    i.Method_LCD_Refresh_Button              0x08003d56   Section        0  mlcd.o(i.Method_LCD_Refresh_Button)
    i.Method_LCD_Run                         0x08003d5c   Section        0  mlcd.o(i.Method_LCD_Run)
    i.Method_LCD_Show_Init                   0x08003da8   Section        0  mlcd.o(i.Method_LCD_Show_Init)
    i.NMI_Handler                            0x08003dae   Section        0  stm32f7xx_it.o(i.NMI_Handler)
    i.OTT2001A_Init                          0x08003db0   Section        0  ott2001a.o(i.OTT2001A_Init)
    i.OTT2001A_RD_Reg                        0x08003e6c   Section        0  ott2001a.o(i.OTT2001A_RD_Reg)
    i.OTT2001A_Scan                          0x08003ecc   Section        0  ott2001a.o(i.OTT2001A_Scan)
    i.OTT2001A_SensorControl                 0x08004050   Section        0  ott2001a.o(i.OTT2001A_SensorControl)
    i.OTT2001A_WR_Reg                        0x0800406e   Section        0  ott2001a.o(i.OTT2001A_WR_Reg)
    i.Page1_Init_Show                        0x080040c0   Section        0  variable.o(i.Page1_Init_Show)
    i.Page1_Refresh                          0x080040f4   Section        0  variable.o(i.Page1_Refresh)
    i.PendSV_Handler                         0x080040f6   Section        0  stm32f7xx_it.o(i.PendSV_Handler)
    i.QSPI_WaitFlagStateUntilTimeout         0x080040f8   Section        0  stm32f7xx_hal_qspi.o(i.QSPI_WaitFlagStateUntilTimeout)
    QSPI_WaitFlagStateUntilTimeout           0x080040f9   Thumb Code    72  stm32f7xx_hal_qspi.o(i.QSPI_WaitFlagStateUntilTimeout)
    i.SDRAM_Initialization_Sequence          0x08004140   Section        0  fmc.o(i.SDRAM_Initialization_Sequence)
    i.SDRAM_Send_Cmd                         0x0800418c   Section        0  fmc.o(i.SDRAM_Send_Cmd)
    i.SVC_Handler                            0x080041c4   Section        0  stm32f7xx_it.o(i.SVC_Handler)
    i.SysTick_Handler                        0x080041c6   Section        0  stm32f7xx_it.o(i.SysTick_Handler)
    i.SystemClock_Config                     0x080041cc   Section        0  main.o(i.SystemClock_Config)
    i.SystemInit                             0x0800427c   Section        0  system_stm32f7xx.o(i.SystemInit)
    i.TP_Adj_Info_Show                       0x080042d0   Section        0  touch.o(i.TP_Adj_Info_Show)
    i.TP_Adjust                              0x08004448   Section        0  touch.o(i.TP_Adjust)
    i.TP_Drow_Touch_Point                    0x08004a1c   Section        0  touch.o(i.TP_Drow_Touch_Point)
    i.TP_Get_Adjdata                         0x08004a90   Section        0  touch.o(i.TP_Get_Adjdata)
    i.TP_Init                                0x08004b24   Section        0  touch.o(i.TP_Init)
    i.TP_Read_AD                             0x08004b68   Section        0  touch.o(i.TP_Read_AD)
    i.TP_Read_XOY                            0x08004c30   Section        0  touch.o(i.TP_Read_XOY)
    i.TP_Read_XY                             0x08004c94   Section        0  touch.o(i.TP_Read_XY)
    i.TP_Read_XY2                            0x08004cbc   Section        0  touch.o(i.TP_Read_XY2)
    i.TP_Save_Adjdata                        0x08004d38   Section        0  touch.o(i.TP_Save_Adjdata)
    i.TP_Scan                                0x08004db0   Section        0  touch.o(i.TP_Scan)
    i.TP_Write_Byte                          0x08004e6c   Section        0  touch.o(i.TP_Write_Byte)
    i.UART_AdvFeatureConfig                  0x08004ebc   Section        0  stm32f7xx_hal_uart.o(i.UART_AdvFeatureConfig)
    i.UART_CheckIdleState                    0x08004f84   Section        0  stm32f7xx_hal_uart.o(i.UART_CheckIdleState)
    i.UART_DMAAbortOnError                   0x08004fe0   Section        0  stm32f7xx_hal_uart.o(i.UART_DMAAbortOnError)
    UART_DMAAbortOnError                     0x08004fe1   Thumb Code    20  stm32f7xx_hal_uart.o(i.UART_DMAAbortOnError)
    i.UART_EndRxTransfer                     0x08004ff4   Section        0  stm32f7xx_hal_uart.o(i.UART_EndRxTransfer)
    UART_EndRxTransfer                       0x08004ff5   Thumb Code    48  stm32f7xx_hal_uart.o(i.UART_EndRxTransfer)
    i.UART_SetConfig                         0x08005024   Section        0  stm32f7xx_hal_uart.o(i.UART_SetConfig)
    i.UART_WaitOnFlagUntilTimeout            0x08005258   Section        0  stm32f7xx_hal_uart.o(i.UART_WaitOnFlagUntilTimeout)
    i.USART1_IRQHandler                      0x080052fc   Section        0  stm32f7xx_it.o(i.USART1_IRQHandler)
    i.UsageFault_Handler                     0x08005308   Section        0  stm32f7xx_it.o(i.UsageFault_Handler)
    i.Variable_Init                          0x0800530c   Section        0  variable.o(i.Variable_Init)
    i.__0printf$5                            0x08005398   Section        0  printf5.o(i.__0printf$5)
    i.__NVIC_SetPriority                     0x080053b8   Section        0  stm32f7xx_hal_cortex.o(i.__NVIC_SetPriority)
    __NVIC_SetPriority                       0x080053b9   Thumb Code    34  stm32f7xx_hal_cortex.o(i.__NVIC_SetPriority)
    i.__hardfp_sqrt                          0x080053da   Section        0  sqrt.o(i.__hardfp_sqrt)
    i.__scatterload_copy                     0x08005440   Section       14  handlers.o(i.__scatterload_copy)
    i.__scatterload_null                     0x0800544e   Section        2  handlers.o(i.__scatterload_null)
    i.__scatterload_zeroinit                 0x08005450   Section       14  handlers.o(i.__scatterload_zeroinit)
    i.__set_errno                            0x08005460   Section        0  errno.o(i.__set_errno)
    i._printf_core                           0x0800546c   Section        0  printf5.o(i._printf_core)
    _printf_core                             0x0800546d   Thumb Code   658  printf5.o(i._printf_core)
    i.delay_init                             0x0800572c   Section        0  delay.o(i.delay_init)
    i.delay_ms                               0x08005740   Section        0  delay.o(i.delay_ms)
    i.delay_us                               0x0800575c   Section        0  delay.o(i.delay_us)
    i.fputc                                  0x08005798   Section        0  usart.o(i.fputc)
    i.main                                   0x080057ac   Section        0  main.o(i.main)
    i.malloc                                 0x0800581c   Section        0  malloc.o(i.malloc)
    .constdata                               0x08005888   Section       16  system_stm32f7xx.o(.constdata)
    .constdata                               0x08005898   Section        8  system_stm32f7xx.o(.constdata)
    .constdata                               0x080058a0   Section    18240  lcd.o(.constdata)
    .constdata                               0x08009fe0   Section      194  gt9147.o(.constdata)
    .constdata                               0x0800a0a2   Section       10  ott2001a.o(.constdata)
    .constdata                               0x0800a0ac   Section        4  touch.o(.constdata)
    .conststring                             0x0800a0b0   Section      121  touch.o(.conststring)
    .data                                    0x20000000   Section        8  fmc.o(.data)
    FMC_Initialized                          0x20000000   Data           4  fmc.o(.data)
    FMC_DeInitialized                        0x20000004   Data           4  fmc.o(.data)
    .data                                    0x20000008   Section        8  ltdc.o(.data)
    .data                                    0x20000010   Section        4  usart.o(.data)
    .data                                    0x20000014   Section       12  stm32f7xx_hal.o(.data)
    .data                                    0x20000020   Section        4  system_stm32f7xx.o(.data)
    .data                                    0x20000024   Section       84  variable.o(.data)
    .data                                    0x20000078   Section        4  delay.o(.data)
    fac_us                                   0x20000078   Data           4  delay.o(.data)
    .data                                    0x2000007c   Section        8  lcd.o(.data)
    .data                                    0x20000084   Section        1  gt9147.o(.data)
    t                                        0x20000084   Data           1  gt9147.o(.data)
    .data                                    0x20000085   Section        1  ott2001a.o(.data)
    t                                        0x20000085   Data           1  ott2001a.o(.data)
    .data                                    0x20000088   Section       76  touch.o(.data)
    .data                                    0x200000d4   Section        4  mvars.o(.data)
    .data                                    0x200000d8   Section        4  mvars.o(.data)
    .data                                    0x200000dc   Section        4  errno.o(.data)
    _errno                                   0x200000dc   Data           4  errno.o(.data)
    .bss                                     0x200000e0   Section       88  dma2d.o(.bss)
    .bss                                     0x20000138   Section       52  fmc.o(.bss)
    .bss                                     0x2000016c   Section      368  ltdc.o(.bss)
    .bss                                     0x200002dc   Section       76  quadspi.o(.bss)
    .bss                                     0x20000328   Section      132  usart.o(.bss)
    .bss                                     0x200003ac   Section       96  variable.o(.bss)
    .bss                                     0x2000040c   Section       14  lcd.o(.bss)
    HEAP                                     0x20000420   Section      512  startup_stm32f767xx.o(HEAP)
    STACK                                    0x20000620   Section     1024  startup_stm32f767xx.o(STACK)
    .ARM.__AT_0xC0000000                     0xc0000000   Section    2048000  lcd.o(.ARM.__AT_0xC0000000)

    Global Symbols

    Symbol Name                              Value     Ov Type        Size  Object(Section)

    BuildAttributes$$THM_ISAv4$E$P$D$K$B$S$7EM$VFPv5_D16$PE$PLD8$A:L22UL41UL21$X:L11$S22US41US21$IEEE1$IW$USESV6$~STKCKD$USESV7$~SHL$OTIME$ROPI$IEEEJ$EBA8$MICROLIB$REQ8$PRES8$EABIv2 0x00000000   Number         0  anon$$obj.o ABSOLUTE
    __ARM_use_no_argv                        0x00000000   Number         0  main.o ABSOLUTE
    __use_no_errno                           0x00000000   Number         0  useno.o ABSOLUTE
    __use_no_exception_handling              0x00000000   Number         0  useno.o ABSOLUTE
    __use_no_fp                              0x00000000   Number         0  useno.o ABSOLUTE
    __use_no_heap                            0x00000000   Number         0  useno.o ABSOLUTE
    __use_no_heap_region                     0x00000000   Number         0  useno.o ABSOLUTE
    __use_no_semihosting                     0x00000000   Number         0  useno.o ABSOLUTE
    __use_no_semihosting_swi                 0x00000000   Number         0  useno.o ABSOLUTE
    __use_no_signal_handling                 0x00000000   Number         0  useno.o ABSOLUTE
    _printf_a                                0x00000000   Number         0  stubs.o ABSOLUTE
    _printf_c                                0x00000000   Number         0  stubs.o ABSOLUTE
    _printf_charcount                        0x00000000   Number         0  stubs.o ABSOLUTE
    _printf_d                                0x00000000   Number         0  stubs.o ABSOLUTE
    _printf_e                                0x00000000   Number         0  stubs.o ABSOLUTE
    _printf_f                                0x00000000   Number         0  stubs.o ABSOLUTE
    _printf_flags                            0x00000000   Number         0  stubs.o ABSOLUTE
    _printf_fp_dec                           0x00000000   Number         0  stubs.o ABSOLUTE
    _printf_fp_hex                           0x00000000   Number         0  stubs.o ABSOLUTE
    _printf_g                                0x00000000   Number         0  stubs.o ABSOLUTE
    _printf_i                                0x00000000   Number         0  stubs.o ABSOLUTE
    _printf_int_dec                          0x00000000   Number         0  stubs.o ABSOLUTE
    _printf_l                                0x00000000   Number         0  stubs.o ABSOLUTE
    _printf_lc                               0x00000000   Number         0  stubs.o ABSOLUTE
    _printf_ll                               0x00000000   Number         0  stubs.o ABSOLUTE
    _printf_lld                              0x00000000   Number         0  stubs.o ABSOLUTE
    _printf_lli                              0x00000000   Number         0  stubs.o ABSOLUTE
    _printf_llo                              0x00000000   Number         0  stubs.o ABSOLUTE
    _printf_llu                              0x00000000   Number         0  stubs.o ABSOLUTE
    _printf_llx                              0x00000000   Number         0  stubs.o ABSOLUTE
    _printf_longlong_dec                     0x00000000   Number         0  stubs.o ABSOLUTE
    _printf_longlong_hex                     0x00000000   Number         0  stubs.o ABSOLUTE
    _printf_longlong_oct                     0x00000000   Number         0  stubs.o ABSOLUTE
    _printf_ls                               0x00000000   Number         0  stubs.o ABSOLUTE
    _printf_mbtowc                           0x00000000   Number         0  stubs.o ABSOLUTE
    _printf_n                                0x00000000   Number         0  stubs.o ABSOLUTE
    _printf_o                                0x00000000   Number         0  stubs.o ABSOLUTE
    _printf_p                                0x00000000   Number         0  stubs.o ABSOLUTE
    _printf_percent                          0x00000000   Number         0  stubs.o ABSOLUTE
    _printf_pre_padding                      0x00000000   Number         0  stubs.o ABSOLUTE
    _printf_return_value                     0x00000000   Number         0  stubs.o ABSOLUTE
    _printf_s                                0x00000000   Number         0  stubs.o ABSOLUTE
    _printf_sizespec                         0x00000000   Number         0  stubs.o ABSOLUTE
    _printf_str                              0x00000000   Number         0  stubs.o ABSOLUTE
    _printf_truncate_signed                  0x00000000   Number         0  stubs.o ABSOLUTE
    _printf_truncate_unsigned                0x00000000   Number         0  stubs.o ABSOLUTE
    _printf_u                                0x00000000   Number         0  stubs.o ABSOLUTE
    _printf_wc                               0x00000000   Number         0  stubs.o ABSOLUTE
    _printf_wctomb                           0x00000000   Number         0  stubs.o ABSOLUTE
    _printf_widthprec                        0x00000000   Number         0  stubs.o ABSOLUTE
    _printf_x                                0x00000000   Number         0  stubs.o ABSOLUTE
    __cpp_initialize__aeabi_                  - Undefined Weak Reference
    __cxa_finalize                            - Undefined Weak Reference
    __decompress                              - Undefined Weak Reference
    _clock_init                               - Undefined Weak Reference
    _microlib_exit                            - Undefined Weak Reference
    __Vectors_Size                           0x000001f8   Number         0  startup_stm32f767xx.o ABSOLUTE
    __Vectors                                0x08000000   Data           4  startup_stm32f767xx.o(RESET)
    __Vectors_End                            0x080001f8   Data           0  startup_stm32f767xx.o(RESET)
    __main                                   0x080001f9   Thumb Code     0  entry.o(.ARM.Collect$$$$00000000)
    _main_stk                                0x080001f9   Thumb Code     0  entry2.o(.ARM.Collect$$$$00000001)
    _main_scatterload                        0x080001fd   Thumb Code     0  entry5.o(.ARM.Collect$$$$00000004)
    __main_after_scatterload                 0x08000201   Thumb Code     0  entry5.o(.ARM.Collect$$$$00000004)
    _main_clock                              0x08000201   Thumb Code     0  entry7b.o(.ARM.Collect$$$$00000008)
    _main_cpp_init                           0x08000201   Thumb Code     0  entry8b.o(.ARM.Collect$$$$0000000A)
    _main_init                               0x08000201   Thumb Code     0  entry9a.o(.ARM.Collect$$$$0000000B)
    __rt_final_cpp                           0x08000209   Thumb Code     0  entry10a.o(.ARM.Collect$$$$0000000D)
    __rt_final_exit                          0x08000209   Thumb Code     0  entry11a.o(.ARM.Collect$$$$0000000F)
    Reset_Handler                            0x0800020d   Thumb Code     8  startup_stm32f767xx.o(.text)
    ADC_IRQHandler                           0x08000227   Thumb Code     0  startup_stm32f767xx.o(.text)
    CAN1_RX0_IRQHandler                      0x08000227   Thumb Code     0  startup_stm32f767xx.o(.text)
    CAN1_RX1_IRQHandler                      0x08000227   Thumb Code     0  startup_stm32f767xx.o(.text)
    CAN1_SCE_IRQHandler                      0x08000227   Thumb Code     0  startup_stm32f767xx.o(.text)
    CAN1_TX_IRQHandler                       0x08000227   Thumb Code     0  startup_stm32f767xx.o(.text)
    CAN2_RX0_IRQHandler                      0x08000227   Thumb Code     0  startup_stm32f767xx.o(.text)
    CAN2_RX1_IRQHandler                      0x08000227   Thumb Code     0  startup_stm32f767xx.o(.text)
    CAN2_SCE_IRQHandler                      0x08000227   Thumb Code     0  startup_stm32f767xx.o(.text)
    CAN2_TX_IRQHandler                       0x08000227   Thumb Code     0  startup_stm32f767xx.o(.text)
    CAN3_RX0_IRQHandler                      0x08000227   Thumb Code     0  startup_stm32f767xx.o(.text)
    CAN3_RX1_IRQHandler                      0x08000227   Thumb Code     0  startup_stm32f767xx.o(.text)
    CAN3_SCE_IRQHandler                      0x08000227   Thumb Code     0  startup_stm32f767xx.o(.text)
    CAN3_TX_IRQHandler                       0x08000227   Thumb Code     0  startup_stm32f767xx.o(.text)
    CEC_IRQHandler                           0x08000227   Thumb Code     0  startup_stm32f767xx.o(.text)
    DCMI_IRQHandler                          0x08000227   Thumb Code     0  startup_stm32f767xx.o(.text)
    DFSDM1_FLT0_IRQHandler                   0x08000227   Thumb Code     0  startup_stm32f767xx.o(.text)
    DFSDM1_FLT1_IRQHandler                   0x08000227   Thumb Code     0  startup_stm32f767xx.o(.text)
    DFSDM1_FLT2_IRQHandler                   0x08000227   Thumb Code     0  startup_stm32f767xx.o(.text)
    DFSDM1_FLT3_IRQHandler                   0x08000227   Thumb Code     0  startup_stm32f767xx.o(.text)
    DMA1_Stream0_IRQHandler                  0x08000227   Thumb Code     0  startup_stm32f767xx.o(.text)
    DMA1_Stream1_IRQHandler                  0x08000227   Thumb Code     0  startup_stm32f767xx.o(.text)
    DMA1_Stream2_IRQHandler                  0x08000227   Thumb Code     0  startup_stm32f767xx.o(.text)
    DMA1_Stream3_IRQHandler                  0x08000227   Thumb Code     0  startup_stm32f767xx.o(.text)
    DMA1_Stream4_IRQHandler                  0x08000227   Thumb Code     0  startup_stm32f767xx.o(.text)
    DMA1_Stream5_IRQHandler                  0x08000227   Thumb Code     0  startup_stm32f767xx.o(.text)
    DMA1_Stream6_IRQHandler                  0x08000227   Thumb Code     0  startup_stm32f767xx.o(.text)
    DMA1_Stream7_IRQHandler                  0x08000227   Thumb Code     0  startup_stm32f767xx.o(.text)
    DMA2D_IRQHandler                         0x08000227   Thumb Code     0  startup_stm32f767xx.o(.text)
    DMA2_Stream0_IRQHandler                  0x08000227   Thumb Code     0  startup_stm32f767xx.o(.text)
    DMA2_Stream1_IRQHandler                  0x08000227   Thumb Code     0  startup_stm32f767xx.o(.text)
    DMA2_Stream2_IRQHandler                  0x08000227   Thumb Code     0  startup_stm32f767xx.o(.text)
    DMA2_Stream3_IRQHandler                  0x08000227   Thumb Code     0  startup_stm32f767xx.o(.text)
    DMA2_Stream4_IRQHandler                  0x08000227   Thumb Code     0  startup_stm32f767xx.o(.text)
    DMA2_Stream5_IRQHandler                  0x08000227   Thumb Code     0  startup_stm32f767xx.o(.text)
    DMA2_Stream6_IRQHandler                  0x08000227   Thumb Code     0  startup_stm32f767xx.o(.text)
    DMA2_Stream7_IRQHandler                  0x08000227   Thumb Code     0  startup_stm32f767xx.o(.text)
    ETH_IRQHandler                           0x08000227   Thumb Code     0  startup_stm32f767xx.o(.text)
    ETH_WKUP_IRQHandler                      0x08000227   Thumb Code     0  startup_stm32f767xx.o(.text)
    EXTI0_IRQHandler                         0x08000227   Thumb Code     0  startup_stm32f767xx.o(.text)
    EXTI15_10_IRQHandler                     0x08000227   Thumb Code     0  startup_stm32f767xx.o(.text)
    EXTI1_IRQHandler                         0x08000227   Thumb Code     0  startup_stm32f767xx.o(.text)
    EXTI2_IRQHandler                         0x08000227   Thumb Code     0  startup_stm32f767xx.o(.text)
    EXTI3_IRQHandler                         0x08000227   Thumb Code     0  startup_stm32f767xx.o(.text)
    EXTI4_IRQHandler                         0x08000227   Thumb Code     0  startup_stm32f767xx.o(.text)
    EXTI9_5_IRQHandler                       0x08000227   Thumb Code     0  startup_stm32f767xx.o(.text)
    FLASH_IRQHandler                         0x08000227   Thumb Code     0  startup_stm32f767xx.o(.text)
    FMC_IRQHandler                           0x08000227   Thumb Code     0  startup_stm32f767xx.o(.text)
    FPU_IRQHandler                           0x08000227   Thumb Code     0  startup_stm32f767xx.o(.text)
    I2C1_ER_IRQHandler                       0x08000227   Thumb Code     0  startup_stm32f767xx.o(.text)
    I2C1_EV_IRQHandler                       0x08000227   Thumb Code     0  startup_stm32f767xx.o(.text)
    I2C2_ER_IRQHandler                       0x08000227   Thumb Code     0  startup_stm32f767xx.o(.text)
    I2C2_EV_IRQHandler                       0x08000227   Thumb Code     0  startup_stm32f767xx.o(.text)
    I2C3_ER_IRQHandler                       0x08000227   Thumb Code     0  startup_stm32f767xx.o(.text)
    I2C3_EV_IRQHandler                       0x08000227   Thumb Code     0  startup_stm32f767xx.o(.text)
    I2C4_ER_IRQHandler                       0x08000227   Thumb Code     0  startup_stm32f767xx.o(.text)
    I2C4_EV_IRQHandler                       0x08000227   Thumb Code     0  startup_stm32f767xx.o(.text)
    JPEG_IRQHandler                          0x08000227   Thumb Code     0  startup_stm32f767xx.o(.text)
    LPTIM1_IRQHandler                        0x08000227   Thumb Code     0  startup_stm32f767xx.o(.text)
    LTDC_ER_IRQHandler                       0x08000227   Thumb Code     0  startup_stm32f767xx.o(.text)
    LTDC_IRQHandler                          0x08000227   Thumb Code     0  startup_stm32f767xx.o(.text)
    MDIOS_IRQHandler                         0x08000227   Thumb Code     0  startup_stm32f767xx.o(.text)
    OTG_FS_IRQHandler                        0x08000227   Thumb Code     0  startup_stm32f767xx.o(.text)
    OTG_FS_WKUP_IRQHandler                   0x08000227   Thumb Code     0  startup_stm32f767xx.o(.text)
    OTG_HS_EP1_IN_IRQHandler                 0x08000227   Thumb Code     0  startup_stm32f767xx.o(.text)
    OTG_HS_EP1_OUT_IRQHandler                0x08000227   Thumb Code     0  startup_stm32f767xx.o(.text)
    OTG_HS_IRQHandler                        0x08000227   Thumb Code     0  startup_stm32f767xx.o(.text)
    OTG_HS_WKUP_IRQHandler                   0x08000227   Thumb Code     0  startup_stm32f767xx.o(.text)
    PVD_IRQHandler                           0x08000227   Thumb Code     0  startup_stm32f767xx.o(.text)
    QUADSPI_IRQHandler                       0x08000227   Thumb Code     0  startup_stm32f767xx.o(.text)
    RCC_IRQHandler                           0x08000227   Thumb Code     0  startup_stm32f767xx.o(.text)
    RNG_IRQHandler                           0x08000227   Thumb Code     0  startup_stm32f767xx.o(.text)
    RTC_Alarm_IRQHandler                     0x08000227   Thumb Code     0  startup_stm32f767xx.o(.text)
    RTC_WKUP_IRQHandler                      0x08000227   Thumb Code     0  startup_stm32f767xx.o(.text)
    SAI1_IRQHandler                          0x08000227   Thumb Code     0  startup_stm32f767xx.o(.text)
    SAI2_IRQHandler                          0x08000227   Thumb Code     0  startup_stm32f767xx.o(.text)
    SDMMC1_IRQHandler                        0x08000227   Thumb Code     0  startup_stm32f767xx.o(.text)
    SDMMC2_IRQHandler                        0x08000227   Thumb Code     0  startup_stm32f767xx.o(.text)
    SPDIF_RX_IRQHandler                      0x08000227   Thumb Code     0  startup_stm32f767xx.o(.text)
    SPI1_IRQHandler                          0x08000227   Thumb Code     0  startup_stm32f767xx.o(.text)
    SPI2_IRQHandler                          0x08000227   Thumb Code     0  startup_stm32f767xx.o(.text)
    SPI3_IRQHandler                          0x08000227   Thumb Code     0  startup_stm32f767xx.o(.text)
    SPI4_IRQHandler                          0x08000227   Thumb Code     0  startup_stm32f767xx.o(.text)
    SPI5_IRQHandler                          0x08000227   Thumb Code     0  startup_stm32f767xx.o(.text)
    SPI6_IRQHandler                          0x08000227   Thumb Code     0  startup_stm32f767xx.o(.text)
    TAMP_STAMP_IRQHandler                    0x08000227   Thumb Code     0  startup_stm32f767xx.o(.text)
    TIM1_BRK_TIM9_IRQHandler                 0x08000227   Thumb Code     0  startup_stm32f767xx.o(.text)
    TIM1_CC_IRQHandler                       0x08000227   Thumb Code     0  startup_stm32f767xx.o(.text)
    TIM1_TRG_COM_TIM11_IRQHandler            0x08000227   Thumb Code     0  startup_stm32f767xx.o(.text)
    TIM1_UP_TIM10_IRQHandler                 0x08000227   Thumb Code     0  startup_stm32f767xx.o(.text)
    TIM2_IRQHandler                          0x08000227   Thumb Code     0  startup_stm32f767xx.o(.text)
    TIM3_IRQHandler                          0x08000227   Thumb Code     0  startup_stm32f767xx.o(.text)
    TIM4_IRQHandler                          0x08000227   Thumb Code     0  startup_stm32f767xx.o(.text)
    TIM5_IRQHandler                          0x08000227   Thumb Code     0  startup_stm32f767xx.o(.text)
    TIM6_DAC_IRQHandler                      0x08000227   Thumb Code     0  startup_stm32f767xx.o(.text)
    TIM7_IRQHandler                          0x08000227   Thumb Code     0  startup_stm32f767xx.o(.text)
    TIM8_BRK_TIM12_IRQHandler                0x08000227   Thumb Code     0  startup_stm32f767xx.o(.text)
    TIM8_CC_IRQHandler                       0x08000227   Thumb Code     0  startup_stm32f767xx.o(.text)
    TIM8_TRG_COM_TIM14_IRQHandler            0x08000227   Thumb Code     0  startup_stm32f767xx.o(.text)
    TIM8_UP_TIM13_IRQHandler                 0x08000227   Thumb Code     0  startup_stm32f767xx.o(.text)
    UART4_IRQHandler                         0x08000227   Thumb Code     0  startup_stm32f767xx.o(.text)
    UART5_IRQHandler                         0x08000227   Thumb Code     0  startup_stm32f767xx.o(.text)
    UART7_IRQHandler                         0x08000227   Thumb Code     0  startup_stm32f767xx.o(.text)
    UART8_IRQHandler                         0x08000227   Thumb Code     0  startup_stm32f767xx.o(.text)
    USART2_IRQHandler                        0x08000227   Thumb Code     0  startup_stm32f767xx.o(.text)
    USART3_IRQHandler                        0x08000227   Thumb Code     0  startup_stm32f767xx.o(.text)
    USART6_IRQHandler                        0x08000227   Thumb Code     0  startup_stm32f767xx.o(.text)
    WWDG_IRQHandler                          0x08000227   Thumb Code     0  startup_stm32f767xx.o(.text)
    __aeabi_uldivmod                         0x08000231   Thumb Code    98  uldiv.o(.text)
    __aeabi_memcpy                           0x08000293   Thumb Code    36  memcpya.o(.text)
    __aeabi_memcpy4                          0x08000293   Thumb Code     0  memcpya.o(.text)
    __aeabi_memcpy8                          0x08000293   Thumb Code     0  memcpya.o(.text)
    __aeabi_memset                           0x080002b7   Thumb Code    14  memseta.o(.text)
    __aeabi_memset4                          0x080002b7   Thumb Code     0  memseta.o(.text)
    __aeabi_memset8                          0x080002b7   Thumb Code     0  memseta.o(.text)
    __aeabi_memclr                           0x080002c5   Thumb Code     4  memseta.o(.text)
    __aeabi_memclr4                          0x080002c5   Thumb Code     0  memseta.o(.text)
    __aeabi_memclr8                          0x080002c5   Thumb Code     0  memseta.o(.text)
    _memset$wrapper                          0x080002c9   Thumb Code    18  memseta.o(.text)
    strcmp                                   0x080002db   Thumb Code    28  strcmp.o(.text)
    __aeabi_llsl                             0x080002f7   Thumb Code    30  llshl.o(.text)
    _ll_shift_l                              0x080002f7   Thumb Code     0  llshl.o(.text)
    __aeabi_llsr                             0x08000315   Thumb Code    32  llushr.o(.text)
    _ll_ushift_r                             0x08000315   Thumb Code     0  llushr.o(.text)
    __I$use$fp                               0x08000335   Thumb Code     0  iusefp.o(.text)
    __scatterload                            0x08000335   Thumb Code    28  init.o(.text)
    __scatterload_rt2                        0x08000335   Thumb Code     0  init.o(.text)
    AT24CXX_ReadLenByte                      0x08000359   Thumb Code    40  24cxx.o(i.AT24CXX_ReadLenByte)
    AT24CXX_ReadOneByte                      0x08000381   Thumb Code    66  24cxx.o(i.AT24CXX_ReadOneByte)
    AT24CXX_WriteLenByte                     0x080003c3   Thumb Code    42  24cxx.o(i.AT24CXX_WriteLenByte)
    AT24CXX_WriteOneByte                     0x080003ed   Thumb Code    62  24cxx.o(i.AT24CXX_WriteOneByte)
    BusFault_Handler                         0x0800042b   Thumb Code     2  stm32f7xx_it.o(i.BusFault_Handler)
    Button1_Function                         0x0800042d   Thumb Code     6  variable.o(i.Button1_Function)
    Button2_Function                         0x08000449   Thumb Code     6  variable.o(i.Button2_Function)
    Button3_Function                         0x08000465   Thumb Code     6  variable.o(i.Button3_Function)
    CT_IIC_Ack                               0x08000481   Thumb Code    84  ctiic.o(i.CT_IIC_Ack)
    CT_IIC_Init                              0x080004dd   Thumb Code    76  ctiic.o(i.CT_IIC_Init)
    CT_IIC_NAck                              0x08000535   Thumb Code    84  ctiic.o(i.CT_IIC_NAck)
    CT_IIC_Read_Byte                         0x08000591   Thumb Code   104  ctiic.o(i.CT_IIC_Read_Byte)
    CT_IIC_Send_Byte                         0x08000601   Thumb Code   110  ctiic.o(i.CT_IIC_Send_Byte)
    CT_IIC_Start                             0x08000679   Thumb Code    78  ctiic.o(i.CT_IIC_Start)
    CT_IIC_Stop                              0x080006d1   Thumb Code    66  ctiic.o(i.CT_IIC_Stop)
    CT_IIC_Wait_Ack                          0x0800071d   Thumb Code    90  ctiic.o(i.CT_IIC_Wait_Ack)
    DebugMon_Handler                         0x08000781   Thumb Code     2  stm32f7xx_it.o(i.DebugMon_Handler)
    Error_Handler                            0x08000783   Thumb Code     2  main.o(i.Error_Handler)
    FMC_SDRAM_Init                           0x08000785   Thumb Code    94  stm32f7xx_ll_fmc.o(i.FMC_SDRAM_Init)
    FMC_SDRAM_ProgramRefreshRate             0x080007e3   Thumb Code    12  stm32f7xx_ll_fmc.o(i.FMC_SDRAM_ProgramRefreshRate)
    FMC_SDRAM_SendCommand                    0x080007ef   Thumb Code    38  stm32f7xx_ll_fmc.o(i.FMC_SDRAM_SendCommand)
    FMC_SDRAM_Timing_Init                    0x08000815   Thumb Code   134  stm32f7xx_ll_fmc.o(i.FMC_SDRAM_Timing_Init)
    GT9147_Init                              0x080008a1   Thumb Code   268  gt9147.o(i.GT9147_Init)
    GT9147_RD_Reg                            0x080009e5   Thumb Code    96  gt9147.o(i.GT9147_RD_Reg)
    GT9147_Scan                              0x08000a45   Thumb Code   506  gt9147.o(i.GT9147_Scan)
    GT9147_Send_Cfg                          0x08000c51   Thumb Code    74  gt9147.o(i.GT9147_Send_Cfg)
    GT9147_WR_Reg                            0x08000ca1   Thumb Code    82  gt9147.o(i.GT9147_WR_Reg)
    HAL_DMA2D_ConfigLayer                    0x08000cf5   Thumb Code   178  stm32f7xx_hal_dma2d.o(i.HAL_DMA2D_ConfigLayer)
    HAL_DMA2D_Init                           0x08000dad   Thumb Code   112  stm32f7xx_hal_dma2d.o(i.HAL_DMA2D_Init)
    HAL_DMA2D_MspInit                        0x08000e1d   Thumb Code    30  dma2d.o(i.HAL_DMA2D_MspInit)
    HAL_DMA_Abort                            0x08000e45   Thumb Code   146  stm32f7xx_hal_dma.o(i.HAL_DMA_Abort)
    HAL_DMA_Abort_IT                         0x08000ed7   Thumb Code    36  stm32f7xx_hal_dma.o(i.HAL_DMA_Abort_IT)
    HAL_Delay                                0x08000efd   Thumb Code    32  stm32f7xx_hal.o(i.HAL_Delay)
    HAL_GPIO_Init                            0x08000fc1   Thumb Code   420  stm32f7xx_hal_gpio.o(i.HAL_GPIO_Init)
    HAL_GPIO_ReadPin                         0x08001199   Thumb Code    10  stm32f7xx_hal_gpio.o(i.HAL_GPIO_ReadPin)
    HAL_GPIO_WritePin                        0x080011a3   Thumb Code    10  stm32f7xx_hal_gpio.o(i.HAL_GPIO_WritePin)
    HAL_GetTick                              0x080011ad   Thumb Code     6  stm32f7xx_hal.o(i.HAL_GetTick)
    HAL_IncTick                              0x080011b9   Thumb Code    12  stm32f7xx_hal.o(i.HAL_IncTick)
    HAL_Init                                 0x080011c9   Thumb Code    22  stm32f7xx_hal.o(i.HAL_Init)
    HAL_InitTick                             0x080011e1   Thumb Code    54  stm32f7xx_hal.o(i.HAL_InitTick)
    HAL_LTDC_ConfigLayer                     0x08001221   Thumb Code    82  stm32f7xx_hal_ltdc.o(i.HAL_LTDC_ConfigLayer)
    HAL_LTDC_Init                            0x08001275   Thumb Code   242  stm32f7xx_hal_ltdc.o(i.HAL_LTDC_Init)
    HAL_LTDC_MspInit                         0x0800136d   Thumb Code   204  ltdc.o(i.HAL_LTDC_MspInit)
    HAL_LTDC_SetWindowPosition               0x08001451   Thumb Code    84  stm32f7xx_hal_ltdc.o(i.HAL_LTDC_SetWindowPosition)
    HAL_LTDC_SetWindowSize                   0x080014a5   Thumb Code    84  stm32f7xx_hal_ltdc.o(i.HAL_LTDC_SetWindowSize)
    HAL_MspInit                              0x080014f9   Thumb Code    42  stm32f7xx_hal_msp.o(i.HAL_MspInit)
    HAL_NVIC_EnableIRQ                       0x08001529   Thumb Code    26  stm32f7xx_hal_cortex.o(i.HAL_NVIC_EnableIRQ)
    HAL_NVIC_SetPriority                     0x08001545   Thumb Code    60  stm32f7xx_hal_cortex.o(i.HAL_NVIC_SetPriority)
    HAL_NVIC_SetPriorityGrouping             0x08001585   Thumb Code    28  stm32f7xx_hal_cortex.o(i.HAL_NVIC_SetPriorityGrouping)
    HAL_PWREx_EnableOverDrive                0x080015a9   Thumb Code   100  stm32f7xx_hal_pwr_ex.o(i.HAL_PWREx_EnableOverDrive)
    HAL_PWR_EnableBkUpAccess                 0x08001615   Thumb Code    12  stm32f7xx_hal_pwr.o(i.HAL_PWR_EnableBkUpAccess)
    HAL_QSPI_Init                            0x08001625   Thumb Code   166  stm32f7xx_hal_qspi.o(i.HAL_QSPI_Init)
    HAL_QSPI_MspInit                         0x080016d5   Thumb Code   144  quadspi.o(i.HAL_QSPI_MspInit)
    HAL_RCCEx_PeriphCLKConfig                0x08001775   Thumb Code  1336  stm32f7xx_hal_rcc_ex.o(i.HAL_RCCEx_PeriphCLKConfig)
    HAL_RCC_ClockConfig                      0x08001cb1   Thumb Code   284  stm32f7xx_hal_rcc.o(i.HAL_RCC_ClockConfig)
    HAL_RCC_GetPCLK1Freq                     0x08001de1   Thumb Code    20  stm32f7xx_hal_rcc.o(i.HAL_RCC_GetPCLK1Freq)
    HAL_RCC_GetPCLK2Freq                     0x08001e01   Thumb Code    20  stm32f7xx_hal_rcc.o(i.HAL_RCC_GetPCLK2Freq)
    HAL_RCC_GetSysClockFreq                  0x08001e21   Thumb Code    88  stm32f7xx_hal_rcc.o(i.HAL_RCC_GetSysClockFreq)
    HAL_RCC_OscConfig                        0x08001e85   Thumb Code   906  stm32f7xx_hal_rcc.o(i.HAL_RCC_OscConfig)
    HAL_SDRAM_Init                           0x0800221d   Thumb Code    66  stm32f7xx_hal_sdram.o(i.HAL_SDRAM_Init)
    HAL_SDRAM_MspInit                        0x0800225f   Thumb Code     4  fmc.o(i.HAL_SDRAM_MspInit)
    HAL_SDRAM_ProgramRefreshRate             0x08002263   Thumb Code    34  stm32f7xx_hal_sdram.o(i.HAL_SDRAM_ProgramRefreshRate)
    HAL_SDRAM_SendCommand                    0x08002285   Thumb Code    48  stm32f7xx_hal_sdram.o(i.HAL_SDRAM_SendCommand)
    HAL_SYSTICK_CLKSourceConfig              0x080022b5   Thumb Code    24  stm32f7xx_hal_cortex.o(i.HAL_SYSTICK_CLKSourceConfig)
    HAL_SYSTICK_Config                       0x080022cd   Thumb Code    38  stm32f7xx_hal_cortex.o(i.HAL_SYSTICK_Config)
    HAL_UARTEx_RxEventCallback               0x080022f3   Thumb Code     2  stm32f7xx_hal_uart.o(i.HAL_UARTEx_RxEventCallback)
    HAL_UARTEx_WakeupCallback                0x080022f5   Thumb Code     2  stm32f7xx_hal_uart.o(i.HAL_UARTEx_WakeupCallback)
    HAL_UART_ErrorCallback                   0x080022f7   Thumb Code     2  stm32f7xx_hal_uart.o(i.HAL_UART_ErrorCallback)
    HAL_UART_IRQHandler                      0x080022f9   Thumb Code   556  stm32f7xx_hal_uart.o(i.HAL_UART_IRQHandler)
    HAL_UART_Init                            0x0800252d   Thumb Code   102  stm32f7xx_hal_uart.o(i.HAL_UART_Init)
    HAL_UART_MspInit                         0x08002595   Thumb Code   104  usart.o(i.HAL_UART_MspInit)
    HAL_UART_Transmit                        0x08002609   Thumb Code   184  stm32f7xx_hal_uart.o(i.HAL_UART_Transmit)
    HAL_UART_TxCpltCallback                  0x080026c1   Thumb Code     2  stm32f7xx_hal_uart.o(i.HAL_UART_TxCpltCallback)
    HardFault_Handler                        0x080026c3   Thumb Code     2  stm32f7xx_it.o(i.HardFault_Handler)
    IIC_Ack                                  0x080026c5   Thumb Code    76  myiic.o(i.IIC_Ack)
    IIC_NAck                                 0x08002715   Thumb Code    76  myiic.o(i.IIC_NAck)
    IIC_Read_Byte                            0x08002765   Thumb Code   100  myiic.o(i.IIC_Read_Byte)
    IIC_Send_Byte                            0x080027cd   Thumb Code   104  myiic.o(i.IIC_Send_Byte)
    IIC_Start                                0x08002839   Thumb Code    76  myiic.o(i.IIC_Start)
    IIC_Stop                                 0x08002889   Thumb Code    76  myiic.o(i.IIC_Stop)
    IIC_Wait_Ack                             0x080028d9   Thumb Code    94  myiic.o(i.IIC_Wait_Ack)
    LCD_Clear                                0x0800293d   Thumb Code    58  lcd.o(i.LCD_Clear)
    LCD_Display_Dir                          0x08002985   Thumb Code   234  lcd.o(i.LCD_Display_Dir)
    LCD_DrawLine                             0x08002a79   Thumb Code   152  lcd.o(i.LCD_DrawLine)
    LCD_DrawPoint                            0x08002b11   Thumb Code    36  lcd.o(i.LCD_DrawPoint)
    LCD_DrawRectangle                        0x08002b41   Thumb Code    58  lcd.o(i.LCD_DrawRectangle)
    LCD_Draw_Circle                          0x08002b7b   Thumb Code   176  lcd.o(i.LCD_Draw_Circle)
    LCD_Fast_DrawPoint                       0x08002c2d   Thumb Code   230  lcd.o(i.LCD_Fast_DrawPoint)
    LCD_Fill                                 0x08002d21   Thumb Code    86  lcd.o(i.LCD_Fill)
    LCD_Init                                 0x08002d81   Thumb Code   214  lcd.o(i.LCD_Init)
    LCD_Page_Prepare                         0x08002e75   Thumb Code    90  lcd_page.o(i.LCD_Page_Prepare)
    LCD_Pow                                  0x08002f01   Thumb Code    16  lcd.o(i.LCD_Pow)
    LCD_Prepare                              0x08002f11   Thumb Code    50  mlcd.o(i.LCD_Prepare)
    LCD_Scan_Dir                             0x08002f6d   Thumb Code   434  lcd.o(i.LCD_Scan_Dir)
    LCD_SetCursor                            0x08003125   Thumb Code   254  lcd.o(i.LCD_SetCursor)
    LCD_ShowChar                             0x08003229   Thumb Code   204  lcd.o(i.LCD_ShowChar)
    LCD_ShowNum                              0x0800330d   Thumb Code   120  lcd.o(i.LCD_ShowNum)
    LCD_ShowString                           0x08003385   Thumb Code    84  lcd.o(i.LCD_ShowString)
    LCD_WR_DATA                              0x080033d9   Thumb Code    20  lcd.o(i.LCD_WR_DATA)
    LCD_WR_REG                               0x080033f1   Thumb Code    20  lcd.o(i.LCD_WR_REG)
    LCD_WriteRAM_Prepare                     0x08003409   Thumb Code    10  lcd.o(i.LCD_WriteRAM_Prepare)
    LCD_WriteReg                             0x0800341d   Thumb Code    10  lcd.o(i.LCD_WriteReg)
    LTDC_Clear                               0x0800342d   Thumb Code    28  ltdc.o(i.LTDC_Clear)
    LTDC_Display_Dir                         0x0800344d   Thumb Code    32  ltdc.o(i.LTDC_Display_Dir)
    LTDC_Draw_Point                          0x08003471   Thumb Code    52  ltdc.o(i.LTDC_Draw_Point)
    LTDC_Fill                                0x080034ad   Thumb Code   162  ltdc.o(i.LTDC_Fill)
    LTDC_Layer_Parameter_Config              0x08003561   Thumb Code    86  lcd.o(i.LTDC_Layer_Parameter_Config)
    LTDC_Select_Layer                        0x080035c1   Thumb Code     6  ltdc.o(i.LTDC_Select_Layer)
    MX_DMA2D_Init                            0x0800379d   Thumb Code    62  dma2d.o(i.MX_DMA2D_Init)
    MX_FMC_Init                              0x080037e5   Thumb Code    98  fmc.o(i.MX_FMC_Init)
    MX_GPIO_Init                             0x08003851   Thumb Code   258  gpio.o(i.MX_GPIO_Init)
    MX_LTDC_Init                             0x08003969   Thumb Code   214  ltdc.o(i.MX_LTDC_Init)
    MX_QUADSPI_Init                          0x08003a49   Thumb Code    54  quadspi.o(i.MX_QUADSPI_Init)
    MX_USART1_UART_Init                      0x08003a89   Thumb Code    52  usart.o(i.MX_USART1_UART_Init)
    MemManage_Handler                        0x08003ac5   Thumb Code     2  stm32f7xx_it.o(i.MemManage_Handler)
    Method_LCD_Add_Page                      0x08003ac9   Thumb Code    68  mlcd.o(i.Method_LCD_Add_Page)
    Method_LCD_Init                          0x08003b25   Thumb Code    14  mlcd.o(i.Method_LCD_Init)
    Method_LCD_Page_Add_Button               0x08003b35   Thumb Code    66  lcd_page.o(i.Method_LCD_Page_Add_Button)
    Method_LCD_Page_Add_Line                 0x08003b95   Thumb Code    20  lcd_page.o(i.Method_LCD_Page_Add_Line)
    Method_LCD_Page_Button_Show_Init         0x08003ba9   Thumb Code    90  lcd_page.o(i.Method_LCD_Page_Button_Show_Init)
    Method_LCD_Page_Button_Touch_Scan        0x08003c05   Thumb Code   110  lcd_page.o(i.Method_LCD_Page_Button_Touch_Scan)
    Method_LCD_Page_Change_Display_direction 0x08003c79   Thumb Code    34  lcd_page.o(i.Method_LCD_Page_Change_Display_direction)
    Method_LCD_Page_Refresh_Button           0x08003ca5   Thumb Code   138  lcd_page.o(i.Method_LCD_Page_Refresh_Button)
    Method_LCD_Page_Touch_Function           0x08003d35   Thumb Code    34  lcd_page.o(i.Method_LCD_Page_Touch_Function)
    Method_LCD_Refresh_Button                0x08003d57   Thumb Code     6  mlcd.o(i.Method_LCD_Refresh_Button)
    Method_LCD_Run                           0x08003d5d   Thumb Code    76  mlcd.o(i.Method_LCD_Run)
    Method_LCD_Show_Init                     0x08003da9   Thumb Code     6  mlcd.o(i.Method_LCD_Show_Init)
    NMI_Handler                              0x08003daf   Thumb Code     2  stm32f7xx_it.o(i.NMI_Handler)
    OTT2001A_Init                            0x08003db1   Thumb Code   164  ott2001a.o(i.OTT2001A_Init)
    OTT2001A_RD_Reg                          0x08003e6d   Thumb Code    96  ott2001a.o(i.OTT2001A_RD_Reg)
    OTT2001A_Scan                            0x08003ecd   Thumb Code   352  ott2001a.o(i.OTT2001A_Scan)
    OTT2001A_SensorControl                   0x08004051   Thumb Code    30  ott2001a.o(i.OTT2001A_SensorControl)
    OTT2001A_WR_Reg                          0x0800406f   Thumb Code    82  ott2001a.o(i.OTT2001A_WR_Reg)
    Page1_Init_Show                          0x080040c1   Thumb Code    42  variable.o(i.Page1_Init_Show)
    Page1_Refresh                            0x080040f5   Thumb Code     2  variable.o(i.Page1_Refresh)
    PendSV_Handler                           0x080040f7   Thumb Code     2  stm32f7xx_it.o(i.PendSV_Handler)
    SDRAM_Initialization_Sequence            0x08004141   Thumb Code    72  fmc.o(i.SDRAM_Initialization_Sequence)
    SDRAM_Send_Cmd                           0x0800418d   Thumb Code    50  fmc.o(i.SDRAM_Send_Cmd)
    SVC_Handler                              0x080041c5   Thumb Code     2  stm32f7xx_it.o(i.SVC_Handler)
    SysTick_Handler                          0x080041c7   Thumb Code     4  stm32f7xx_it.o(i.SysTick_Handler)
    SystemClock_Config                       0x080041cd   Thumb Code   168  main.o(i.SystemClock_Config)
    SystemInit                               0x0800427d   Thumb Code    68  system_stm32f7xx.o(i.SystemInit)
    TP_Adj_Info_Show                         0x080042d1   Thumb Code   326  touch.o(i.TP_Adj_Info_Show)
    TP_Adjust                                0x08004449   Thumb Code  1442  touch.o(i.TP_Adjust)
    TP_Drow_Touch_Point                      0x08004a1d   Thumb Code   112  touch.o(i.TP_Drow_Touch_Point)
    TP_Get_Adjdata                           0x08004a91   Thumb Code   138  touch.o(i.TP_Get_Adjdata)
    TP_Init                                  0x08004b25   Thumb Code    52  touch.o(i.TP_Init)
    TP_Read_AD                               0x08004b69   Thumb Code   186  touch.o(i.TP_Read_AD)
    TP_Read_XOY                              0x08004c31   Thumb Code   100  touch.o(i.TP_Read_XOY)
    TP_Read_XY                               0x08004c95   Thumb Code    34  touch.o(i.TP_Read_XY)
    TP_Read_XY2                              0x08004cbd   Thumb Code   122  touch.o(i.TP_Read_XY2)
    TP_Save_Adjdata                          0x08004d39   Thumb Code   110  touch.o(i.TP_Save_Adjdata)
    TP_Scan                                  0x08004db1   Thumb Code   180  touch.o(i.TP_Scan)
    TP_Write_Byte                            0x08004e6d   Thumb Code    72  touch.o(i.TP_Write_Byte)
    UART_AdvFeatureConfig                    0x08004ebd   Thumb Code   200  stm32f7xx_hal_uart.o(i.UART_AdvFeatureConfig)
    UART_CheckIdleState                      0x08004f85   Thumb Code    92  stm32f7xx_hal_uart.o(i.UART_CheckIdleState)
    UART_SetConfig                           0x08005025   Thumb Code   518  stm32f7xx_hal_uart.o(i.UART_SetConfig)
    UART_WaitOnFlagUntilTimeout              0x08005259   Thumb Code   164  stm32f7xx_hal_uart.o(i.UART_WaitOnFlagUntilTimeout)
    USART1_IRQHandler                        0x080052fd   Thumb Code     6  stm32f7xx_it.o(i.USART1_IRQHandler)
    UsageFault_Handler                       0x08005309   Thumb Code     2  stm32f7xx_it.o(i.UsageFault_Handler)
    Variable_Init                            0x0800530d   Thumb Code    92  variable.o(i.Variable_Init)
    __0printf$5                              0x08005399   Thumb Code    22  printf5.o(i.__0printf$5)
    __1printf$5                              0x08005399   Thumb Code     0  printf5.o(i.__0printf$5)
    __2printf                                0x08005399   Thumb Code     0  printf5.o(i.__0printf$5)
    __hardfp_sqrt                            0x080053db   Thumb Code   102  sqrt.o(i.__hardfp_sqrt)
    __scatterload_copy                       0x08005441   Thumb Code    14  handlers.o(i.__scatterload_copy)
    __scatterload_null                       0x0800544f   Thumb Code     2  handlers.o(i.__scatterload_null)
    __scatterload_zeroinit                   0x08005451   Thumb Code    14  handlers.o(i.__scatterload_zeroinit)
    __set_errno                              0x08005461   Thumb Code     6  errno.o(i.__set_errno)
    delay_init                               0x0800572d   Thumb Code    16  delay.o(i.delay_init)
    delay_ms                                 0x08005741   Thumb Code    26  delay.o(i.delay_ms)
    delay_us                                 0x0800575d   Thumb Code    56  delay.o(i.delay_us)
    fputc                                    0x08005799   Thumb Code    14  usart.o(i.fputc)
    main                                     0x080057ad   Thumb Code    88  main.o(i.main)
    malloc                                   0x0800581d   Thumb Code    92  malloc.o(i.malloc)
    AHBPrescTable                            0x08005888   Data          16  system_stm32f7xx.o(.constdata)
    APBPrescTable                            0x08005898   Data           8  system_stm32f7xx.o(.constdata)
    asc2_1206                                0x080058a0   Data        1140  lcd.o(.constdata)
    asc2_1608                                0x08005d14   Data        1520  lcd.o(.constdata)
    asc2_2412                                0x08006304   Data        3420  lcd.o(.constdata)
    asc2_3216                                0x08007060   Data       12160  lcd.o(.constdata)
    GT9147_CFG_TBL                           0x08009fe0   Data         184  gt9147.o(.constdata)
    GT9147_TPX_TBL                           0x0800a098   Data          10  gt9147.o(.constdata)
    OTT_TPX_TBL                              0x0800a0a2   Data          10  ott2001a.o(.constdata)
    TP_REMIND_MSG_TBL                        0x0800a0ac   Data           4  touch.o(.constdata)
    Region$$Table$$Base                      0x0800a12c   Number         0  anon$$obj.o(Region$$Table)
    Region$$Table$$Limit                     0x0800a14c   Number         0  anon$$obj.o(Region$$Table)
    ltdc_framebuf                            0x20000008   Data           8  ltdc.o(.data)
    __stdout                                 0x20000010   Data           4  usart.o(.data)
    uwTickFreq                               0x20000014   Data           1  stm32f7xx_hal.o(.data)
    uwTickPrio                               0x20000018   Data           4  stm32f7xx_hal.o(.data)
    uwTick                                   0x2000001c   Data           4  stm32f7xx_hal.o(.data)
    SystemCoreClock                          0x20000020   Data           4  system_stm32f7xx.o(.data)
    button1                                  0x20000024   Data          28  variable.o(.data)
    button2                                  0x20000040   Data          28  variable.o(.data)
    button3                                  0x2000005c   Data          28  variable.o(.data)
    POINT_COLOR                              0x2000007c   Data           4  lcd.o(.data)
    BACK_COLOR                               0x20000080   Data           4  lcd.o(.data)
    CMD_RDX                                  0x20000088   Data           1  touch.o(.data)
    CMD_RDY                                  0x20000089   Data           1  touch.o(.data)
    tp_dev                                   0x2000008c   Data          72  touch.o(.data)
    __microlib_freelist                      0x200000d4   Data           4  mvars.o(.data)
    __microlib_freelist_initialised          0x200000d8   Data           4  mvars.o(.data)
    hdma2d                                   0x200000e0   Data          88  dma2d.o(.bss)
    hsdram1                                  0x20000138   Data          52  fmc.o(.bss)
    LTDC_Handler                             0x2000016c   Data         168  ltdc.o(.bss)
    lcdltdc                                  0x20000214   Data          32  ltdc.o(.bss)
    hltdc                                    0x20000234   Data         168  ltdc.o(.bss)
    hqspi                                    0x200002dc   Data          76  quadspi.o(.bss)
    huart1                                   0x20000328   Data         132  usart.o(.bss)
    base_lcd                                 0x200003ac   Data          28  variable.o(.bss)
    page1                                    0x200003c8   Data          68  variable.o(.bss)
    lcddev                                   0x2000040c   Data          14  lcd.o(.bss)
    __heap_base                              0x20000420   Data           0  startup_stm32f767xx.o(HEAP)
    __heap_limit                             0x20000620   Data           0  startup_stm32f767xx.o(HEAP)
    __initial_sp                             0x20000a20   Data           0  startup_stm32f767xx.o(STACK)
    ltdc_lcd_framebuf                        0xc0000000   Data       2048000  lcd.o(.ARM.__AT_0xC0000000)



==============================================================================

Memory Map of the image

  Image Entry point : 0x080001f9

  Load Region LR_IROM1 (Base: 0x08000000, Size: 0x0000a22c, Max: 0x00100000, ABSOLUTE)

    Execution Region ER_IROM1 (Base: 0x08000000, Size: 0x0000a14c, Max: 0x00100000, ABSOLUTE)

    Base Addr    Size         Type   Attr      Idx    E Section Name        Object

    0x08000000   0x000001f8   Data   RO            3    RESET               startup_stm32f767xx.o
    0x080001f8   0x00000000   Code   RO         5346  * .ARM.Collect$$$$00000000  mc_w.l(entry.o)
    0x080001f8   0x00000004   Code   RO         5648    .ARM.Collect$$$$00000001  mc_w.l(entry2.o)
    0x080001fc   0x00000004   Code   RO         5651    .ARM.Collect$$$$00000004  mc_w.l(entry5.o)
    0x08000200   0x00000000   Code   RO         5653    .ARM.Collect$$$$00000008  mc_w.l(entry7b.o)
    0x08000200   0x00000000   Code   RO         5655    .ARM.Collect$$$$0000000A  mc_w.l(entry8b.o)
    0x08000200   0x00000008   Code   RO         5656    .ARM.Collect$$$$0000000B  mc_w.l(entry9a.o)
    0x08000208   0x00000000   Code   RO         5658    .ARM.Collect$$$$0000000D  mc_w.l(entry10a.o)
    0x08000208   0x00000000   Code   RO         5660    .ARM.Collect$$$$0000000F  mc_w.l(entry11a.o)
    0x08000208   0x00000004   Code   RO         5649    .ARM.Collect$$$$00002712  mc_w.l(entry2.o)
    0x0800020c   0x00000024   Code   RO            4    .text               startup_stm32f767xx.o
    0x08000230   0x00000062   Code   RO         5349    .text               mc_w.l(uldiv.o)
    0x08000292   0x00000024   Code   RO         5351    .text               mc_w.l(memcpya.o)
    0x080002b6   0x00000024   Code   RO         5353    .text               mc_w.l(memseta.o)
    0x080002da   0x0000001c   Code   RO         5355    .text               mc_w.l(strcmp.o)
    0x080002f6   0x0000001e   Code   RO         5664    .text               mc_w.l(llshl.o)
    0x08000314   0x00000020   Code   RO         5666    .text               mc_w.l(llushr.o)
    0x08000334   0x00000000   Code   RO         5677    .text               mc_w.l(iusefp.o)
    0x08000334   0x00000024   Code   RO         5688    .text               mc_w.l(init.o)
    0x08000358   0x00000028   Code   RO         5274    i.AT24CXX_ReadLenByte  24cxx.o
    0x08000380   0x00000042   Code   RO         5275    i.AT24CXX_ReadOneByte  24cxx.o
    0x080003c2   0x0000002a   Code   RO         5277    i.AT24CXX_WriteLenByte  24cxx.o
    0x080003ec   0x0000003e   Code   RO         5278    i.AT24CXX_WriteOneByte  24cxx.o
    0x0800042a   0x00000002   Code   RO          580    i.BusFault_Handler  stm32f7xx_it.o
    0x0800042c   0x0000001c   Code   RO         4216    i.Button1_Function  variable.o
    0x08000448   0x0000001c   Code   RO         4217    i.Button2_Function  variable.o
    0x08000464   0x0000001c   Code   RO         4218    i.Button3_Function  variable.o
    0x08000480   0x0000005c   Code   RO         4777    i.CT_IIC_Ack        ctiic.o
    0x080004dc   0x00000058   Code   RO         4778    i.CT_IIC_Init       ctiic.o
    0x08000534   0x0000005c   Code   RO         4779    i.CT_IIC_NAck       ctiic.o
    0x08000590   0x00000070   Code   RO         4780    i.CT_IIC_Read_Byte  ctiic.o
    0x08000600   0x00000078   Code   RO         4781    i.CT_IIC_Send_Byte  ctiic.o
    0x08000678   0x00000058   Code   RO         4782    i.CT_IIC_Start      ctiic.o
    0x080006d0   0x0000004c   Code   RO         4783    i.CT_IIC_Stop       ctiic.o
    0x0800071c   0x00000064   Code   RO         4784    i.CT_IIC_Wait_Ack   ctiic.o
    0x08000780   0x00000002   Code   RO          581    i.DebugMon_Handler  stm32f7xx_it.o
    0x08000782   0x00000002   Code   RO           13    i.Error_Handler     main.o
    0x08000784   0x0000005e   Code   RO         2604    i.FMC_SDRAM_Init    stm32f7xx_ll_fmc.o
    0x080007e2   0x0000000c   Code   RO         2605    i.FMC_SDRAM_ProgramRefreshRate  stm32f7xx_ll_fmc.o
    0x080007ee   0x00000026   Code   RO         2606    i.FMC_SDRAM_SendCommand  stm32f7xx_ll_fmc.o
    0x08000814   0x0000008c   Code   RO         2608    i.FMC_SDRAM_Timing_Init  stm32f7xx_ll_fmc.o
    0x080008a0   0x00000144   Code   RO         4900    i.GT9147_Init       gt9147.o
    0x080009e4   0x00000060   Code   RO         4901    i.GT9147_RD_Reg     gt9147.o
    0x08000a44   0x0000020c   Code   RO         4902    i.GT9147_Scan       gt9147.o
    0x08000c50   0x00000050   Code   RO         4903    i.GT9147_Send_Cfg   gt9147.o
    0x08000ca0   0x00000052   Code   RO         4904    i.GT9147_WR_Reg     gt9147.o
    0x08000cf2   0x00000002   PAD
    0x08000cf4   0x000000b8   Code   RO          835    i.HAL_DMA2D_ConfigLayer  stm32f7xx_hal_dma2d.o
    0x08000dac   0x00000070   Code   RO          843    i.HAL_DMA2D_Init    stm32f7xx_hal_dma2d.o
    0x08000e1c   0x00000028   Code   RO          264    i.HAL_DMA2D_MspInit  dma2d.o
    0x08000e44   0x00000092   Code   RO         1443    i.HAL_DMA_Abort     stm32f7xx_hal_dma.o
    0x08000ed6   0x00000024   Code   RO         1444    i.HAL_DMA_Abort_IT  stm32f7xx_hal_dma.o
    0x08000efa   0x00000002   PAD
    0x08000efc   0x00000024   Code   RO         1810    i.HAL_Delay         stm32f7xx_hal.o
    0x08000f20   0x000000a0   Code   RO          307    i.HAL_FMC_MspInit   fmc.o
    0x08000fc0   0x000001d8   Code   RO         1377    i.HAL_GPIO_Init     stm32f7xx_hal_gpio.o
    0x08001198   0x0000000a   Code   RO         1379    i.HAL_GPIO_ReadPin  stm32f7xx_hal_gpio.o
    0x080011a2   0x0000000a   Code   RO         1381    i.HAL_GPIO_WritePin  stm32f7xx_hal_gpio.o
    0x080011ac   0x0000000c   Code   RO         1820    i.HAL_GetTick       stm32f7xx_hal.o
    0x080011b8   0x00000010   Code   RO         1826    i.HAL_IncTick       stm32f7xx_hal.o
    0x080011c8   0x00000016   Code   RO         1827    i.HAL_Init          stm32f7xx_hal.o
    0x080011de   0x00000002   PAD
    0x080011e0   0x00000040   Code   RO         1828    i.HAL_InitTick      stm32f7xx_hal.o
    0x08001220   0x00000052   Code   RO         2898    i.HAL_LTDC_ConfigLayer  stm32f7xx_hal_ltdc.o
    0x08001272   0x00000002   PAD
    0x08001274   0x000000f8   Code   RO         2915    i.HAL_LTDC_Init     stm32f7xx_hal_ltdc.o
    0x0800136c   0x000000e4   Code   RO          379    i.HAL_LTDC_MspInit  ltdc.o
    0x08001450   0x00000054   Code   RO         2930    i.HAL_LTDC_SetWindowPosition  stm32f7xx_hal_ltdc.o
    0x080014a4   0x00000054   Code   RO         2932    i.HAL_LTDC_SetWindowSize  stm32f7xx_hal_ltdc.o
    0x080014f8   0x00000030   Code   RO          662    i.HAL_MspInit       stm32f7xx_hal_msp.o
    0x08001528   0x0000001a   Code   RO          691    i.HAL_NVIC_EnableIRQ  stm32f7xx_hal_cortex.o
    0x08001542   0x00000002   PAD
    0x08001544   0x00000040   Code   RO          697    i.HAL_NVIC_SetPriority  stm32f7xx_hal_cortex.o
    0x08001584   0x00000024   Code   RO          698    i.HAL_NVIC_SetPriorityGrouping  stm32f7xx_hal_cortex.o
    0x080015a8   0x0000006c   Code   RO         1717    i.HAL_PWREx_EnableOverDrive  stm32f7xx_hal_pwr_ex.o
    0x08001614   0x00000010   Code   RO         1594    i.HAL_PWR_EnableBkUpAccess  stm32f7xx_hal_pwr.o
    0x08001624   0x000000b0   Code   RO         3203    i.HAL_QSPI_Init     stm32f7xx_hal_qspi.o
    0x080016d4   0x000000a0   Code   RO          480    i.HAL_QSPI_MspInit  quadspi.o
    0x08001774   0x0000053c   Code   RO         1138    i.HAL_RCCEx_PeriphCLKConfig  stm32f7xx_hal_rcc_ex.o
    0x08001cb0   0x00000130   Code   RO         1031    i.HAL_RCC_ClockConfig  stm32f7xx_hal_rcc.o
    0x08001de0   0x00000020   Code   RO         1038    i.HAL_RCC_GetPCLK1Freq  stm32f7xx_hal_rcc.o
    0x08001e00   0x00000020   Code   RO         1039    i.HAL_RCC_GetPCLK2Freq  stm32f7xx_hal_rcc.o
    0x08001e20   0x00000064   Code   RO         1040    i.HAL_RCC_GetSysClockFreq  stm32f7xx_hal_rcc.o
    0x08001e84   0x00000398   Code   RO         1043    i.HAL_RCC_OscConfig  stm32f7xx_hal_rcc.o
    0x0800221c   0x00000042   Code   RO         2745    i.HAL_SDRAM_Init    stm32f7xx_hal_sdram.o
    0x0800225e   0x00000004   Code   RO          309    i.HAL_SDRAM_MspInit  fmc.o
    0x08002262   0x00000022   Code   RO         2748    i.HAL_SDRAM_ProgramRefreshRate  stm32f7xx_hal_sdram.o
    0x08002284   0x00000030   Code   RO         2754    i.HAL_SDRAM_SendCommand  stm32f7xx_hal_sdram.o
    0x080022b4   0x00000018   Code   RO          700    i.HAL_SYSTICK_CLKSourceConfig  stm32f7xx_hal_cortex.o
    0x080022cc   0x00000026   Code   RO          702    i.HAL_SYSTICK_Config  stm32f7xx_hal_cortex.o
    0x080022f2   0x00000002   Code   RO         3495    i.HAL_UARTEx_RxEventCallback  stm32f7xx_hal_uart.o
    0x080022f4   0x00000002   Code   RO         3496    i.HAL_UARTEx_WakeupCallback  stm32f7xx_hal_uart.o
    0x080022f6   0x00000002   Code   RO         3512    i.HAL_UART_ErrorCallback  stm32f7xx_hal_uart.o
    0x080022f8   0x00000234   Code   RO         3515    i.HAL_UART_IRQHandler  stm32f7xx_hal_uart.o
    0x0800252c   0x00000066   Code   RO         3516    i.HAL_UART_Init     stm32f7xx_hal_uart.o
    0x08002592   0x00000002   PAD
    0x08002594   0x00000074   Code   RO          522    i.HAL_UART_MspInit  usart.o
    0x08002608   0x000000b8   Code   RO         3525    i.HAL_UART_Transmit  stm32f7xx_hal_uart.o
    0x080026c0   0x00000002   Code   RO         3528    i.HAL_UART_TxCpltCallback  stm32f7xx_hal_uart.o
    0x080026c2   0x00000002   Code   RO          582    i.HardFault_Handler  stm32f7xx_it.o
    0x080026c4   0x00000050   Code   RO         5205    i.IIC_Ack           myiic.o
    0x08002714   0x00000050   Code   RO         5207    i.IIC_NAck          myiic.o
    0x08002764   0x00000068   Code   RO         5208    i.IIC_Read_Byte     myiic.o
    0x080027cc   0x0000006c   Code   RO         5209    i.IIC_Send_Byte     myiic.o
    0x08002838   0x00000050   Code   RO         5210    i.IIC_Start         myiic.o
    0x08002888   0x00000050   Code   RO         5211    i.IIC_Stop          myiic.o
    0x080028d8   0x00000064   Code   RO         5212    i.IIC_Wait_Ack      myiic.o
    0x0800293c   0x00000048   Code   RO         4555    i.LCD_Clear         lcd.o
    0x08002984   0x000000f4   Code   RO         4559    i.LCD_Display_Dir   lcd.o
    0x08002a78   0x00000098   Code   RO         4560    i.LCD_DrawLine      lcd.o
    0x08002b10   0x00000030   Code   RO         4561    i.LCD_DrawPoint     lcd.o
    0x08002b40   0x0000003a   Code   RO         4562    i.LCD_DrawRectangle  lcd.o
    0x08002b7a   0x000000b0   Code   RO         4563    i.LCD_Draw_Circle   lcd.o
    0x08002c2a   0x00000002   PAD
    0x08002c2c   0x000000f4   Code   RO         4564    i.LCD_Fast_DrawPoint  lcd.o
    0x08002d20   0x00000060   Code   RO         4565    i.LCD_Fill          lcd.o
    0x08002d80   0x000000f4   Code   RO         4566    i.LCD_Init          lcd.o
    0x08002e74   0x0000008c   Code   RO         4063    i.LCD_Page_Prepare  lcd_page.o
    0x08002f00   0x00000010   Code   RO         4568    i.LCD_Pow           lcd.o
    0x08002f10   0x0000005c   Code   RO         4162    i.LCD_Prepare       mlcd.o
    0x08002f6c   0x000001b8   Code   RO         4573    i.LCD_Scan_Dir      lcd.o
    0x08003124   0x00000104   Code   RO         4574    i.LCD_SetCursor     lcd.o
    0x08003228   0x000000e4   Code   RO         4576    i.LCD_ShowChar      lcd.o
    0x0800330c   0x00000078   Code   RO         4577    i.LCD_ShowNum       lcd.o
    0x08003384   0x00000054   Code   RO         4578    i.LCD_ShowString    lcd.o
    0x080033d8   0x00000018   Code   RO         4580    i.LCD_WR_DATA       lcd.o
    0x080033f0   0x00000018   Code   RO         4581    i.LCD_WR_REG        lcd.o
    0x08003408   0x00000014   Code   RO         4583    i.LCD_WriteRAM_Prepare  lcd.o
    0x0800341c   0x00000010   Code   RO         4584    i.LCD_WriteReg      lcd.o
    0x0800342c   0x00000020   Code   RO          380    i.LTDC_Clear        ltdc.o
    0x0800344c   0x00000024   Code   RO          382    i.LTDC_Display_Dir  ltdc.o
    0x08003470   0x0000003c   Code   RO          383    i.LTDC_Draw_Point   ltdc.o
    0x080034ac   0x000000b4   Code   RO          384    i.LTDC_Fill         ltdc.o
    0x08003560   0x00000060   Code   RO         4585    i.LTDC_Layer_Parameter_Config  lcd.o
    0x080035c0   0x0000000c   Code   RO          387    i.LTDC_Select_Layer  ltdc.o
    0x080035cc   0x000001d0   Code   RO         2934    i.LTDC_SetConfig    stm32f7xx_hal_ltdc.o
    0x0800379c   0x00000048   Code   RO          265    i.MX_DMA2D_Init     dma2d.o
    0x080037e4   0x0000006c   Code   RO          310    i.MX_FMC_Init       fmc.o
    0x08003850   0x00000118   Code   RO          239    i.MX_GPIO_Init      gpio.o
    0x08003968   0x000000e0   Code   RO          389    i.MX_LTDC_Init      ltdc.o
    0x08003a48   0x00000040   Code   RO          481    i.MX_QUADSPI_Init   quadspi.o
    0x08003a88   0x0000003c   Code   RO          523    i.MX_USART1_UART_Init  usart.o
    0x08003ac4   0x00000002   Code   RO          583    i.MemManage_Handler  stm32f7xx_it.o
    0x08003ac6   0x00000002   PAD
    0x08003ac8   0x0000005c   Code   RO         4163    i.Method_LCD_Add_Page  mlcd.o
    0x08003b24   0x0000000e   Code   RO         4164    i.Method_LCD_Init   mlcd.o
    0x08003b32   0x00000002   PAD
    0x08003b34   0x00000060   Code   RO         4064    i.Method_LCD_Page_Add_Button  lcd_page.o
    0x08003b94   0x00000014   Code   RO         4065    i.Method_LCD_Page_Add_Line  lcd_page.o
    0x08003ba8   0x0000005a   Code   RO         4067    i.Method_LCD_Page_Button_Show_Init  lcd_page.o
    0x08003c02   0x00000002   PAD
    0x08003c04   0x00000074   Code   RO         4068    i.Method_LCD_Page_Button_Touch_Scan  lcd_page.o
    0x08003c78   0x0000002c   Code   RO         4069    i.Method_LCD_Page_Change_Display_direction  lcd_page.o
    0x08003ca4   0x00000090   Code   RO         4072    i.Method_LCD_Page_Refresh_Button  lcd_page.o
    0x08003d34   0x00000022   Code   RO         4073    i.Method_LCD_Page_Touch_Function  lcd_page.o
    0x08003d56   0x00000006   Code   RO         4165    i.Method_LCD_Refresh_Button  mlcd.o
    0x08003d5c   0x0000004c   Code   RO         4166    i.Method_LCD_Run    mlcd.o
    0x08003da8   0x00000006   Code   RO         4167    i.Method_LCD_Show_Init  mlcd.o
    0x08003dae   0x00000002   Code   RO          584    i.NMI_Handler       stm32f7xx_it.o
    0x08003db0   0x000000bc   Code   RO         5004    i.OTT2001A_Init     ott2001a.o
    0x08003e6c   0x00000060   Code   RO         5005    i.OTT2001A_RD_Reg   ott2001a.o
    0x08003ecc   0x00000184   Code   RO         5006    i.OTT2001A_Scan     ott2001a.o
    0x08004050   0x0000001e   Code   RO         5007    i.OTT2001A_SensorControl  ott2001a.o
    0x0800406e   0x00000052   Code   RO         5008    i.OTT2001A_WR_Reg   ott2001a.o
    0x080040c0   0x00000034   Code   RO         4219    i.Page1_Init_Show   variable.o
    0x080040f4   0x00000002   Code   RO         4220    i.Page1_Refresh     variable.o
    0x080040f6   0x00000002   Code   RO          585    i.PendSV_Handler    stm32f7xx_it.o
    0x080040f8   0x00000048   Code   RO         3229    i.QSPI_WaitFlagStateUntilTimeout  stm32f7xx_hal_qspi.o
    0x08004140   0x0000004c   Code   RO          311    i.SDRAM_Initialization_Sequence  fmc.o
    0x0800418c   0x00000038   Code   RO          312    i.SDRAM_Send_Cmd    fmc.o
    0x080041c4   0x00000002   Code   RO          586    i.SVC_Handler       stm32f7xx_it.o
    0x080041c6   0x00000004   Code   RO          587    i.SysTick_Handler   stm32f7xx_it.o
    0x080041ca   0x00000002   PAD
    0x080041cc   0x000000b0   Code   RO           14    i.SystemClock_Config  main.o
    0x0800427c   0x00000054   Code   RO         3963    i.SystemInit        system_stm32f7xx.o
    0x080042d0   0x00000178   Code   RO         5060    i.TP_Adj_Info_Show  touch.o
    0x08004448   0x000005d4   Code   RO         5061    i.TP_Adjust         touch.o
    0x08004a1c   0x00000074   Code   RO         5063    i.TP_Drow_Touch_Point  touch.o
    0x08004a90   0x00000094   Code   RO         5064    i.TP_Get_Adjdata    touch.o
    0x08004b24   0x00000044   Code   RO         5065    i.TP_Init           touch.o
    0x08004b68   0x000000c8   Code   RO         5066    i.TP_Read_AD        touch.o
    0x08004c30   0x00000064   Code   RO         5067    i.TP_Read_XOY       touch.o
    0x08004c94   0x00000028   Code   RO         5068    i.TP_Read_XY        touch.o
    0x08004cbc   0x0000007a   Code   RO         5069    i.TP_Read_XY2       touch.o
    0x08004d36   0x00000002   PAD
    0x08004d38   0x00000078   Code   RO         5070    i.TP_Save_Adjdata   touch.o
    0x08004db0   0x000000bc   Code   RO         5071    i.TP_Scan           touch.o
    0x08004e6c   0x00000050   Code   RO         5072    i.TP_Write_Byte     touch.o
    0x08004ebc   0x000000c8   Code   RO         3530    i.UART_AdvFeatureConfig  stm32f7xx_hal_uart.o
    0x08004f84   0x0000005c   Code   RO         3531    i.UART_CheckIdleState  stm32f7xx_hal_uart.o
    0x08004fe0   0x00000014   Code   RO         3532    i.UART_DMAAbortOnError  stm32f7xx_hal_uart.o
    0x08004ff4   0x00000030   Code   RO         3542    i.UART_EndRxTransfer  stm32f7xx_hal_uart.o
    0x08005024   0x00000234   Code   RO         3546    i.UART_SetConfig    stm32f7xx_hal_uart.o
    0x08005258   0x000000a4   Code   RO         3551    i.UART_WaitOnFlagUntilTimeout  stm32f7xx_hal_uart.o
    0x080052fc   0x0000000c   Code   RO          588    i.USART1_IRQHandler  stm32f7xx_it.o
    0x08005308   0x00000002   Code   RO          589    i.UsageFault_Handler  stm32f7xx_it.o
    0x0800530a   0x00000002   PAD
    0x0800530c   0x0000008c   Code   RO         4221    i.Variable_Init     variable.o
    0x08005398   0x00000020   Code   RO         5492    i.__0printf$5       mc_w.l(printf5.o)
    0x080053b8   0x00000022   Code   RO          704    i.__NVIC_SetPriority  stm32f7xx_hal_cortex.o
    0x080053da   0x00000066   Code   RO         5334    i.__hardfp_sqrt     m_wv.l(sqrt.o)
    0x08005440   0x0000000e   Code   RO         5696    i.__scatterload_copy  mc_w.l(handlers.o)
    0x0800544e   0x00000002   Code   RO         5697    i.__scatterload_null  mc_w.l(handlers.o)
    0x08005450   0x0000000e   Code   RO         5698    i.__scatterload_zeroinit  mc_w.l(handlers.o)
    0x0800545e   0x00000002   PAD
    0x08005460   0x0000000c   Code   RO         5672    i.__set_errno       mc_w.l(errno.o)
    0x0800546c   0x000002c0   Code   RO         5499    i._printf_core      mc_w.l(printf5.o)
    0x0800572c   0x00000014   Code   RO         4277    i.delay_init        delay.o
    0x08005740   0x0000001a   Code   RO         4278    i.delay_ms          delay.o
    0x0800575a   0x00000002   PAD
    0x0800575c   0x0000003c   Code   RO         4279    i.delay_us          delay.o
    0x08005798   0x00000014   Code   RO          525    i.fputc             usart.o
    0x080057ac   0x00000070   Code   RO           15    i.main              main.o
    0x0800581c   0x0000006c   Code   RO         5621    i.malloc            mc_w.l(malloc.o)
    0x08005888   0x00000010   Data   RO         3964    .constdata          system_stm32f7xx.o
    0x08005898   0x00000008   Data   RO         3965    .constdata          system_stm32f7xx.o
    0x080058a0   0x00004740   Data   RO         4589    .constdata          lcd.o
    0x08009fe0   0x000000c2   Data   RO         4905    .constdata          gt9147.o
    0x0800a0a2   0x0000000a   Data   RO         5009    .constdata          ott2001a.o
    0x0800a0ac   0x00000004   Data   RO         5073    .constdata          touch.o
    0x0800a0b0   0x00000079   Data   RO         5074    .conststring        touch.o
    0x0800a129   0x00000003   PAD
    0x0800a12c   0x00000020   Data   RO         5694    Region$$Table       anon$$obj.o


    Execution Region RW_IRAM1 (Base: 0x20000000, Size: 0x00000a20, Max: 0x00080000, ABSOLUTE)

    Base Addr    Size         Type   Attr      Idx    E Section Name        Object

    0x20000000   0x00000008   Data   RW          314    .data               fmc.o
    0x20000008   0x00000008   Data   RW          391    .data               ltdc.o
    0x20000010   0x00000004   Data   RW          527    .data               usart.o
    0x20000014   0x0000000c   Data   RW         1834    .data               stm32f7xx_hal.o
    0x20000020   0x00000004   Data   RW         3966    .data               system_stm32f7xx.o
    0x20000024   0x00000054   Data   RW         4223    .data               variable.o
    0x20000078   0x00000004   Data   RW         4280    .data               delay.o
    0x2000007c   0x00000008   Data   RW         4590    .data               lcd.o
    0x20000084   0x00000001   Data   RW         4906    .data               gt9147.o
    0x20000085   0x00000001   Data   RW         5010    .data               ott2001a.o
    0x20000086   0x00000002   PAD
    0x20000088   0x0000004c   Data   RW         5075    .data               touch.o
    0x200000d4   0x00000004   Data   RW         5668    .data               mc_w.l(mvars.o)
    0x200000d8   0x00000004   Data   RW         5669    .data               mc_w.l(mvars.o)
    0x200000dc   0x00000004   Data   RW         5673    .data               mc_w.l(errno.o)
    0x200000e0   0x00000058   Zero   RW          266    .bss                dma2d.o
    0x20000138   0x00000034   Zero   RW          313    .bss                fmc.o
    0x2000016c   0x00000170   Zero   RW          390    .bss                ltdc.o
    0x200002dc   0x0000004c   Zero   RW          482    .bss                quadspi.o
    0x20000328   0x00000084   Zero   RW          526    .bss                usart.o
    0x200003ac   0x00000060   Zero   RW         4222    .bss                variable.o
    0x2000040c   0x0000000e   Zero   RW         4588    .bss                lcd.o
    0x2000041a   0x00000006   PAD
    0x20000420   0x00000200   Zero   RW            2    HEAP                startup_stm32f767xx.o
    0x20000620   0x00000400   Zero   RW            1    STACK               startup_stm32f767xx.o



  Load Region LR$$.ARM.__AT_0xC0000000 (Base: 0xc0000000, Size: 0x00000000, Max: 0x001f4000, ABSOLUTE)

    Execution Region ER$$.ARM.__AT_0xC0000000 (Base: 0xc0000000, Size: 0x001f4000, Max: 0x001f4000, ABSOLUTE, UNINIT)

    Base Addr    Size         Type   Attr      Idx    E Section Name        Object

    0xc0000000   0x001f4000   Zero   RW         4587    .ARM.__AT_0xC0000000  lcd.o


==============================================================================

Image component sizes


      Code (inc. data)   RO Data    RW Data    ZI Data      Debug   Object Name

       210          0          0          0          0       2574   24cxx.o
       768         76          0          0          0       5857   ctiic.o
       106          8          0          4          0       1991   delay.o
       112         20          0          0         88       1625   dma2d.o
       404         48          0          8         52       3589   fmc.o
       280         22          0          0          0       1155   gpio.o
      1106         80        194          1          0       4894   gt9147.o
      2662        176      18240          8    2048014      17312   lcd.o
       684        102          0          0          0       6775   lcd_page.o
       772         74          0          8        368       6809   ltdc.o
       290         32          0          0          0     877969   main.o
       286         66          0          0          0       3810   mlcd.o
       632         30          0          0          0       4211   myiic.o
       784         60         10          1          0       4607   ott2001a.o
       224         26          0          0         76       1841   quadspi.o
        36          8        504          0       1536        860   startup_stm32f767xx.o
       150         24          0         12          0       9333   stm32f7xx_hal.o
       222         12          0          0          0      39401   stm32f7xx_hal_cortex.o
       182          0          0          0          0       2079   stm32f7xx_hal_dma.o
       296          6          0          0          0       2101   stm32f7xx_hal_dma2d.o
       492         52          0          0          0       3063   stm32f7xx_hal_gpio.o
       962          6          0          0          0       4533   stm32f7xx_hal_ltdc.o
        48          6          0          0          0        878   stm32f7xx_hal_msp.o
        16          4          0          0          0        575   stm32f7xx_hal_pwr.o
       108          8          0          0          0       1324   stm32f7xx_hal_pwr_ex.o
       248         10          0          0          0       2582   stm32f7xx_hal_qspi.o
      1388         70          0          0          0       5128   stm32f7xx_hal_rcc.o
      1340         22          0          0          0       2260   stm32f7xx_hal_rcc_ex.o
       148          0          0          0          0       2608   stm32f7xx_hal_sdram.o
      1946         74          0          0          0      10655   stm32f7xx_hal_uart.o
        32          6          0          0          0       4822   stm32f7xx_it.o
       284          6          0          0          0       3292   stm32f7xx_ll_fmc.o
        84         16         24          4          0       1311   system_stm32f7xx.o
      3050        224        125         76          0      11401   touch.o
       196         26          0          4        132       3522   usart.o
       278        124          0         84         96       3452   variable.o

    ----------------------------------------------------------------------
     20854       1524      19132        212    2050368    1060199   Object Totals
         0          0         32          0          0          0   (incl. Generated)
        28          0          3          2          6          0   (incl. Padding)

    ----------------------------------------------------------------------

      Code (inc. data)   RO Data    RW Data    ZI Data      Debug   Library Member Name

       102          0          0          0          0        140   sqrt.o
         0          0          0          0          0          0   entry.o
         0          0          0          0          0          0   entry10a.o
         0          0          0          0          0          0   entry11a.o
         8          4          0          0          0          0   entry2.o
         4          0          0          0          0          0   entry5.o
         0          0          0          0          0          0   entry7b.o
         0          0          0          0          0          0   entry8b.o
         8          4          0          0          0          0   entry9a.o
        12          6          0          4          0         68   errno.o
        30          0          0          0          0          0   handlers.o
        36          8          0          0          0         68   init.o
         0          0          0          0          0          0   iusefp.o
        30          0          0          0          0         68   llshl.o
        32          0          0          0          0         68   llushr.o
       108         16          0          0          0         84   malloc.o
        36          0          0          0          0         68   memcpya.o
        36          0          0          0          0        108   memseta.o
         0          0          0          8          0          0   mvars.o
       736         56          0          0          0        184   printf5.o
        28          0          0          0          0         76   strcmp.o
        98          0          0          0          0         92   uldiv.o

    ----------------------------------------------------------------------
      1306         94          0         12          0       1024   Library Totals
         2          0          0          0          0          0   (incl. Padding)

    ----------------------------------------------------------------------

      Code (inc. data)   RO Data    RW Data    ZI Data      Debug   Library Name

       102          0          0          0          0        140   m_wv.l
      1202         94          0         12          0        884   mc_w.l

    ----------------------------------------------------------------------
      1306         94          0         12          0       1024   Library Totals

    ----------------------------------------------------------------------

==============================================================================


      Code (inc. data)   RO Data    RW Data    ZI Data      Debug   

     22160       1618      19132        224    2050368    1044563   Grand Totals
     22160       1618      19132        224    2050368    1044563   ELF Image Totals
     22160       1618      19132        224          0          0   ROM Totals

==============================================================================

    Total RO  Size (Code + RO Data)                41292 (  40.32kB)
    Total RW  Size (RW Data + ZI Data)           2050592 (2002.53kB)
    Total ROM Size (Code + RO Data + RW Data)      41516 (  40.54kB)

==============================================================================

