Component: ARM Compiler 6.14 Tool: armlink [5db06800]

==============================================================================

Section Cross References

    main.o(.text.main) refers to sys.o(.text.Stm32_Clock_Init) for Stm32_Clock_Init
    main.o(.text.main) refers to delay.o(.text.delay_init) for delay_init
    main.o(.text.main) refers to memory.o(.text.Memory_Init) for Memory_Init
    main.o(.text.main) refers to usart.o(.text.USART_Init) for USART_Init
    main.o(.text.main) refers to ads1256.o(.text.New_ADS1256) for New_ADS1256
    main.o(.text.main) refers to delay.o(.text.delay_ms) for delay_ms
    main.o(.text.main) refers to usart.o(.text.USART_Printf) for USART_Printf
    main.o(.text.main) refers to f2d.o(x$fpl$f2d) for __aeabi_f2d
    main.o(.text.main) refers to main.o(.rodata.str1.1) for .L.str
    main.o(.text.main) refers to sys.o(.text.GPIO_Set) for GPIO_Set
    main.o(.text.main) refers to sys.o(.text.GPIO_AF_Set) for GPIO_AF_Set
    main.o(.text.main) refers to main.o(.text.SPI_Write_Byte) for SPI_Write_Byte
    main.o(.text.main) refers to main.o(.text.SPI_Read_Byte) for SPI_Read_Byte
    main.o(.text.main) refers to delay.o(.text.delay_us) for delay_us
    main.o(.text.main) refers to main.o(.bss.adc0) for adc0
    main.o(.text.main) refers to main.o(.bss.data) for data
    main.o(.ARM.exidx.text.main) refers to main.o(.text.main) for [Anonymous Symbol]
    main.o(.ARM.exidx.text.SPI_Write_Byte) refers to main.o(.text.SPI_Write_Byte) for [Anonymous Symbol]
==============================================================================

Removing Unused input sections from the image.

    Removing main.o(.text), (0 bytes).
    Removing main.o(.ARM.exidx.text.main), (8 bytes).
    Removing main.o(.ARM.exidx.text.SPI_Write_Byte), (8 bytes).
    Removing main.o(.ARM.exidx.text.SPI_Read_Byte), (8 bytes).
    Removing main.o(.ARM.use_no_argv), (4 bytes).
    Removing delay.o(.text), (0 bytes).
    Removing delay.o(.ARM.exidx.text.delay_init), (8 bytes).
    Removing delay.o(.ARM.exidx.text.delay_us), (8 bytes).
    Removing delay.o(.ARM.exidx.text.delay_xms), (8 bytes).
    Removing delay.o(.ARM.exidx.text.delay_ms), (8 bytes).
    Removing f4gpio.o(.text), (0 bytes).
    Removing f4gpio.o(.data.F407GPIO), (56 bytes).
    Removing f4gpio.o(.data.F407PIN), (64 bytes).
    Removing sys.o(.text), (0 bytes).
    Removing sys.o(.text.MY_NVIC_SetVectorTable), (20 bytes).
    Removing sys.o(.ARM.exidx.text.MY_NVIC_SetVectorTable), (8 bytes).
    Removing sys.o(.text.MY_NVIC_PriorityGroupConfig), (36 bytes).
    Removing sys.o(.ARM.exidx.text.MY_NVIC_PriorityGroupConfig), (8 bytes).
==============================================================================

Image Symbol Table

    Local Symbols

    Symbol Name                              Value     Ov Type        Size  Object(Section)

    ../clib/angel/boardlib.s                 0x00000000   Number         0  boardinit1.o ABSOLUTE
    ../clib/angel/boardlib.s                 0x00000000   Number         0  boardinit2.o ABSOLUTE
    ../clib/angel/boardlib.s                 0x00000000   Number         0  boardinit3.o ABSOLUTE
    ../clib/angel/boardlib.s                 0x00000000   Number         0  boardshut.o ABSOLUTE
    ../clib/angel/handlers.s                 0x00000000   Number         0  __scatter_zi.o ABSOLUTE
    ../clib/angel/kernel.s                   0x00000000   Number         0  __rtentry.o ABSOLUTE
    ../clib/angel/kernel.s                   0x00000000   Number         0  __rtentry2.o ABSOLUTE
    ../clib/angel/kernel.s                   0x00000000   Number         0  __rtentry4.o ABSOLUTE
    ../clib/angel/kernel.s                   0x00000000   Number         0  rtexit.o ABSOLUTE
    ../clib/angel/kernel.s                   0x00000000   Number         0  rtexit2.o ABSOLUTE
    ../clib/angel/rt.s                       0x00000000   Number         0  rt_raise.o ABSOLUTE
    ../clib/angel/scatter.s                  0x00000000   Number         0  __scatter.o ABSOLUTE
    ../clib/angel/startup.s                  0x00000000   Number         0  __main.o ABSOLUTE
    ../clib/angel/sys.s                      0x00000000   Number         0  sys_stackheap_outer.o ABSOLUTE
    ../clib/angel/sys.s                      0x00000000   Number         0  libspace.o ABSOLUTE
    ../clib/angel/sys.s                      0x00000000   Number         0  use_no_semi.o ABSOLUTE
    ../clib/angel/sys.s                      0x00000000   Number         0  indicate_semi.o ABSOLUTE
    ../clib/angel/sysapp.c                   0x00000000   Number         0  sys_exit.o ABSOLUTE
    ../clib/angel/sysapp.c                   0x00000000   Number         0  sys_exit_hlt.o ABSOLUTE
    ../clib/angel/sysapp.c                   0x00000000   Number         0  sys_command.o ABSOLUTE
    ../clib/angel/sysapp.c                   0x00000000   Number         0  sys_command_hlt.o ABSOLUTE
    ../clib/angel/sysapp.c                   0x00000000   Number         0  sys_wrch.o ABSOLUTE
    ../clib/angel/sysapp.c                   0x00000000   Number         0  sys_wrch_hlt.o ABSOLUTE
    ../clib/armsys.c                         0x00000000   Number         0  argv_veneer.o ABSOLUTE
    ../clib/armsys.c                         0x00000000   Number         0  argv_veneer.o ABSOLUTE
    ../clib/armsys.c                         0x00000000   Number         0  _get_argv_nomalloc.o ABSOLUTE
    ../clib/armsys.c                         0x00000000   Number         0  no_argv.o ABSOLUTE
    ../clib/heapalloc.c                      0x00000000   Number         0  hrguard.o ABSOLUTE
    ../clib/heapaux.c                        0x00000000   Number         0  heapauxi.o ABSOLUTE
    ../clib/libinit.s                        0x00000000   Number         0  libinit.o ABSOLUTE
    ../clib/libinit.s                        0x00000000   Number         0  libinit2.o ABSOLUTE
    ../clib/libinit.s                        0x00000000   Number         0  libshutdown.o ABSOLUTE
    ../clib/libinit.s                        0x00000000   Number         0  libshutdown2.o ABSOLUTE
    ../clib/memcpset.s                       0x00000000   Number         0  rt_memclr_w.o ABSOLUTE
    ../clib/signal.c                         0x00000000   Number         0  defsig_rtmem_outer.o ABSOLUTE
    ../clib/signal.c                         0x00000000   Number         0  defsig_rtmem_formal.o ABSOLUTE
    ../clib/signal.c                         0x00000000   Number         0  defsig_exit.o ABSOLUTE
    ../clib/signal.c                         0x00000000   Number         0  defsig_rtmem_inner.o ABSOLUTE
    ../clib/signal.c                         0x00000000   Number         0  __raise.o ABSOLUTE
    ../clib/signal.c                         0x00000000   Number         0  defsig_general.o ABSOLUTE
    ../clib/signal.c                         0x00000000   Number         0  defsig_abrt_inner.o ABSOLUTE
    ../clib/signal.c                         0x00000000   Number         0  defsig_fpe_inner.o ABSOLUTE
    ../clib/signal.c                         0x00000000   Number         0  defsig_rtred_inner.o ABSOLUTE
    ../clib/signal.c                         0x00000000   Number         0  defsig_stak_inner.o ABSOLUTE
    ../clib/signal.c                         0x00000000   Number         0  defsig_pvfn_inner.o ABSOLUTE
    ../clib/signal.c                         0x00000000   Number         0  defsig_cppl_inner.o ABSOLUTE
    ../clib/signal.c                         0x00000000   Number         0  defsig_segv_inner.o ABSOLUTE
    ../clib/signal.c                         0x00000000   Number         0  defsig_other.o ABSOLUTE
    ../clib/signal.s                         0x00000000   Number         0  defsig.o ABSOLUTE
    ../clib/stdlib.c                         0x00000000   Number         0  exit.o ABSOLUTE
    ../fplib/d2f.s                           0x00000000   Number         0  d2f.o ABSOLUTE
    ../fplib/dnaninf.s                       0x00000000   Number         0  dnaninf.o ABSOLUTE
    ../fplib/dretinf.s                       0x00000000   Number         0  dretinf.o ABSOLUTE
    ../fplib/f2d.s                           0x00000000   Number         0  f2d.o ABSOLUTE
    ../fplib/fnaninf.s                       0x00000000   Number         0  fnaninf.o ABSOLUTE
    ../fplib/fpinit.s                        0x00000000   Number         0  fpinit.o ABSOLUTE
    ../fplib/fretinf.s                       0x00000000   Number         0  fretinf.o ABSOLUTE
    ../fplib/usenofp.s                       0x00000000   Number         0  usenofp.o ABSOLUTE
    ADS1256.c                                0x00000000   Number         0  ads1256.o ABSOLUTE
    F4GPIO.c                                 0x00000000   Number         0  f4gpio.o ABSOLUTE
    Memory.c                                 0x00000000   Number         0  memory.o ABSOLUTE
    USART.c                                  0x00000000   Number         0  usart.o ABSOLUTE
    dc.s                                     0x00000000   Number         0  dc.o ABSOLUTE
    delay.c                                  0x00000000   Number         0  delay.o ABSOLUTE
    main.c                                   0x00000000   Number         0  main.o ABSOLUTE
    startup_stm32f40_41xxx.s                 0x00000000   Number         0  startup_stm32f40_41xxx.o ABSOLUTE
    sys.c                                    0x00000000   Number         0  sys.o ABSOLUTE
    RESET                                    0x08000000   Section      392  startup_stm32f40_41xxx.o(RESET)
    !!!main                                  0x08000188   Section        8  __main.o(!!!main)
    !!!scatter                               0x08000190   Section       52  __scatter.o(!!!scatter)
    !!handler_zi                             0x080001c4   Section       28  __scatter_zi.o(!!handler_zi)
    .ARM.Collect$$libinit$$00000000          0x080001e0   Section        2  libinit.o(.ARM.Collect$$libinit$$00000000)
    .ARM.Collect$$libinit$$00000001          0x080001e2   Section        4  libinit2.o(.ARM.Collect$$libinit$$00000001)
    .ARM.Collect$$libinit$$00000004          0x080001e6   Section        0  libinit2.o(.ARM.Collect$$libinit$$00000004)
    .ARM.Collect$$libinit$$0000000A          0x080001e6   Section        0  libinit2.o(.ARM.Collect$$libinit$$0000000A)
    .ARM.Collect$$libinit$$0000000C          0x080001e6   Section        0  libinit2.o(.ARM.Collect$$libinit$$0000000C)
    .ARM.Collect$$libinit$$0000000E          0x080001e6   Section        0  libinit2.o(.ARM.Collect$$libinit$$0000000E)
    .ARM.Collect$$libinit$$00000011          0x080001e6   Section        0  libinit2.o(.ARM.Collect$$libinit$$00000011)
    .ARM.Collect$$libinit$$00000013          0x080001e6   Section        0  libinit2.o(.ARM.Collect$$libinit$$00000013)
    .ARM.Collect$$libinit$$00000015          0x080001e6   Section        0  libinit2.o(.ARM.Collect$$libinit$$00000015)
    .ARM.Collect$$libinit$$00000017          0x080001e6   Section        0  libinit2.o(.ARM.Collect$$libinit$$00000017)
    .ARM.Collect$$libinit$$00000019          0x080001e6   Section        0  libinit2.o(.ARM.Collect$$libinit$$00000019)
    .ARM.Collect$$libinit$$0000001B          0x080001e6   Section        0  libinit2.o(.ARM.Collect$$libinit$$0000001B)
    .ARM.Collect$$libinit$$0000001D          0x080001e6   Section        0  libinit2.o(.ARM.Collect$$libinit$$0000001D)
    .ARM.Collect$$libinit$$0000001F          0x080001e6   Section        0  libinit2.o(.ARM.Collect$$libinit$$0000001F)
    .ARM.Collect$$libinit$$00000021          0x080001e6   Section        0  libinit2.o(.ARM.Collect$$libinit$$00000021)
    .ARM.Collect$$libinit$$00000023          0x080001e6   Section        0  libinit2.o(.ARM.Collect$$libinit$$00000023)
    .ARM.Collect$$libinit$$00000025          0x080001e6   Section        0  libinit2.o(.ARM.Collect$$libinit$$00000025)
    .ARM.Collect$$libinit$$0000002C          0x080001e6   Section        0  libinit2.o(.ARM.Collect$$libinit$$0000002C)
    .ARM.Collect$$libinit$$0000002E          0x080001e6   Section        0  libinit2.o(.ARM.Collect$$libinit$$0000002E)
    .ARM.Collect$$libinit$$00000030          0x080001e6   Section        0  libinit2.o(.ARM.Collect$$libinit$$00000030)
    .ARM.Collect$$libinit$$00000032          0x080001e6   Section        0  libinit2.o(.ARM.Collect$$libinit$$00000032)
    .ARM.Collect$$libinit$$00000033          0x080001e6   Section        2  libinit2.o(.ARM.Collect$$libinit$$00000033)
    .ARM.Collect$$libshutdown$$00000000      0x080001e8   Section        2  libshutdown.o(.ARM.Collect$$libshutdown$$00000000)
    .ARM.Collect$$libshutdown$$00000002      0x080001ea   Section        0  libshutdown2.o(.ARM.Collect$$libshutdown$$00000002)
    .ARM.Collect$$libshutdown$$00000004      0x080001ea   Section        0  libshutdown2.o(.ARM.Collect$$libshutdown$$00000004)
    .ARM.Collect$$libshutdown$$00000007      0x080001ea   Section        0  libshutdown2.o(.ARM.Collect$$libshutdown$$00000007)
    .ARM.Collect$$libshutdown$$0000000A      0x080001ea   Section        0  libshutdown2.o(.ARM.Collect$$libshutdown$$0000000A)
    .ARM.Collect$$libshutdown$$0000000C      0x080001ea   Section        0  libshutdown2.o(.ARM.Collect$$libshutdown$$0000000C)
    .ARM.Collect$$libshutdown$$0000000F      0x080001ea   Section        0  libshutdown2.o(.ARM.Collect$$libshutdown$$0000000F)
    .ARM.Collect$$libshutdown$$00000010      0x080001ea   Section        2  libshutdown2.o(.ARM.Collect$$libshutdown$$00000010)
    .ARM.Collect$$rtentry$$00000000          0x080001ec   Section        0  __rtentry.o(.ARM.Collect$$rtentry$$00000000)
    .ARM.Collect$$rtentry$$00000002          0x080001ec   Section        0  __rtentry2.o(.ARM.Collect$$rtentry$$00000002)
    .ARM.Collect$$rtentry$$00000004          0x080001ec   Section        6  __rtentry4.o(.ARM.Collect$$rtentry$$00000004)
    .ARM.Collect$$rtentry$$00000009          0x080001f2   Section        0  __rtentry2.o(.ARM.Collect$$rtentry$$00000009)
    .ARM.Collect$$rtentry$$0000000A          0x080001f2   Section        4  __rtentry2.o(.ARM.Collect$$rtentry$$0000000A)
    .ARM.Collect$$rtentry$$0000000C          0x080001f6   Section        0  __rtentry2.o(.ARM.Collect$$rtentry$$0000000C)
    .ARM.Collect$$rtentry$$0000000D          0x080001f6   Section        8  __rtentry2.o(.ARM.Collect$$rtentry$$0000000D)
    .ARM.Collect$$rtexit$$00000000           0x080001fe   Section        2  rtexit.o(.ARM.Collect$$rtexit$$00000000)
    .ARM.Collect$$rtexit$$00000002           0x08000200   Section        0  rtexit2.o(.ARM.Collect$$rtexit$$00000002)
    .ARM.Collect$$rtexit$$00000003           0x08000200   Section        4  rtexit2.o(.ARM.Collect$$rtexit$$00000003)
    .ARM.Collect$$rtexit$$00000004           0x08000204   Section        6  rtexit2.o(.ARM.Collect$$rtexit$$00000004)
    $v0                                      0x0800020c   Number         0  startup_stm32f40_41xxx.o(.text)
    .text                                    0x0800020c   Section       68  startup_stm32f40_41xxx.o(.text)
    .text                                    0x08000250   Section       78  rt_memclr_w.o(.text)
    .text                                    0x0800029e   Section        0  heapauxi.o(.text)
    .text                                    0x080002a4   Section       74  sys_stackheap_outer.o(.text)
    .text                                    0x080002ee   Section        0  exit.o(.text)
    .text                                    0x08000300   Section        8  libspace.o(.text)
    .text                                    0x08000308   Section        0  sys_exit.o(.text)
    .text                                    0x08000314   Section        2  use_no_semi.o(.text)
    [Anonymous Symbol]                       0x08000316   Section        0  ads1256.o(.text.ADS1256_Read_Once)
    .text                                    0x08000316   Section        0  indicate_semi.o(.text)
    [Anonymous Symbol]                       0x0800033e   Section        0  sys.o(.text.GPIO_AF_Set)
    [Anonymous Symbol]                       0x08000364   Section        0  sys.o(.text.GPIO_Set)
    __arm_cp.5_0                             0x0800041c   Number         4  sys.o(.text.GPIO_Set)
    __arm_cp.5_2                             0x08000444   Number         4  sys.o(.text.GPIO_Set)
    [Anonymous Symbol]                       0x08000448   Section        0  memory.o(.text.Malloc)
    [Anonymous Symbol]                       0x0800045c   Section        0  memory.o(.text.Memory_Init)
    __arm_cp.2_0                             0x080004ac   Number         4  memory.o(.text.Memory_Init)
    __arm_cp.2_1                             0x080004b0   Number         4  memory.o(.text.Memory_Init)
    __arm_cp.2_2                             0x080004b4   Number         4  memory.o(.text.Memory_Init)
    __arm_cp.2_3                             0x080004b8   Number         4  memory.o(.text.Memory_Init)
    __arm_cp.2_4                             0x080004bc   Number         4  memory.o(.text.Memory_Init)
    __arm_cp.2_5                             0x080004c0   Number         4  memory.o(.text.Memory_Init)
    [Anonymous Symbol]                       0x080004c4   Section        0  ads1256.o(.text.Method_Get_DRDY_Bit)
    [Anonymous Symbol]                       0x080004d4   Section        0  ads1256.o(.text.Method_Get_Data)
    __arm_cp.5_0                             0x08000550   Number         4  ads1256.o(.text.Method_Get_Data)
    [Anonymous Symbol]                       0x08000554   Section        0  ads1256.o(.text.Method_Read_Register)
    [Anonymous Symbol]                       0x0800057c   Section        0  ads1256.o(.text.Method_Self_Calibration)
    [Anonymous Symbol]                       0x08000592   Section        0  ads1256.o(.text.Method_Send_Command)
    [Anonymous Symbol]                       0x08000598   Section        0  ads1256.o(.text.Method_Set_Gain)
    [Anonymous Symbol]                       0x080005e6   Section        0  ads1256.o(.text.Method_Set_Input_Buffer)
    [Anonymous Symbol]                       0x08000602   Section        0  ads1256.o(.text.Method_Set_Negative_Channel)
    [Anonymous Symbol]                       0x0800063a   Section        0  ads1256.o(.text.Method_Set_Psoitive_Channel)
    [Anonymous Symbol]                       0x08000672   Section        0  ads1256.o(.text.Method_Set_Sample_Rate)
    [Anonymous Symbol]                       0x08000716   Section        0  ads1256.o(.text.Method_Write_Register)
    [Anonymous Symbol]                       0x08000748   Section        0  ads1256.o(.text.New_ADS1256)
    __arm_cp.4_0                             0x080007e8   Number         4  ads1256.o(.text.New_ADS1256)
    __arm_cp.4_1                             0x080007ec   Number         4  ads1256.o(.text.New_ADS1256)
    __arm_cp.4_2                             0x080007f0   Number         4  ads1256.o(.text.New_ADS1256)
    __arm_cp.4_3                             0x080007f4   Number         4  ads1256.o(.text.New_ADS1256)
    __arm_cp.4_4                             0x080007f8   Number         4  ads1256.o(.text.New_ADS1256)
    __arm_cp.4_5                             0x080007fc   Number         4  ads1256.o(.text.New_ADS1256)
    __arm_cp.4_6                             0x08000800   Number         4  ads1256.o(.text.New_ADS1256)
    __arm_cp.4_7                             0x08000804   Number         4  ads1256.o(.text.New_ADS1256)
    __arm_cp.4_8                             0x08000808   Number         4  ads1256.o(.text.New_ADS1256)
    __arm_cp.4_9                             0x0800080c   Number         4  ads1256.o(.text.New_ADS1256)
    __arm_cp.4_10                            0x08000810   Number         4  ads1256.o(.text.New_ADS1256)
    __arm_cp.4_11                            0x08000814   Number         4  ads1256.o(.text.New_ADS1256)
    [Anonymous Symbol]                       0x08000818   Section        0  main.o(.text.SPI_Read_Byte)
    [Anonymous Symbol]                       0x08000830   Section        0  main.o(.text.SPI_Write_Byte)
    __arm_cp.1_0                             0x08000844   Number         4  main.o(.text.SPI_Write_Byte)
    [Anonymous Symbol]                       0x08000848   Section        0  sys.o(.text.Stm32_Clock_Init)
    __arm_cp.13_1                            0x08000878   Number         4  sys.o(.text.Stm32_Clock_Init)
    __arm_cp.13_2                            0x0800087c   Number         4  sys.o(.text.Stm32_Clock_Init)
    __arm_cp.13_3                            0x08000880   Number         4  sys.o(.text.Stm32_Clock_Init)
    [Anonymous Symbol]                       0x08000884   Section        0  sys.o(.text.Sys_Clock_Set)
    __arm_cp.12_0                            0x08000950   Number         4  sys.o(.text.Sys_Clock_Set)
    __arm_cp.12_1                            0x08000954   Number         4  sys.o(.text.Sys_Clock_Set)
    [Anonymous Symbol]                       0x08000958   Section        0  usart.o(.text.USART1_IRQHandler)
    [Anonymous Symbol]                       0x08000970   Section        0  usart.o(.text.USART2_IRQHandler)
    [Anonymous Symbol]                       0x08000988   Section        0  usart.o(.text.USART3_IRQHandler)
    __arm_cp.19_1                            0x080009a0   Number         4  usart.o(.text.USART3_IRQHandler)
    [Anonymous Symbol]                       0x080009a4   Section        0  usart.o(.text.USART_Init)
    __arm_cp.0_0                             0x08000ae8   Number         4  usart.o(.text.USART_Init)
    __arm_cp.0_1                             0x08000aec   Number         4  usart.o(.text.USART_Init)
    __arm_cp.0_2                             0x08000af0   Number         4  usart.o(.text.USART_Init)
    __arm_cp.0_5                             0x08000afc   Number         4  usart.o(.text.USART_Init)
    [Anonymous Symbol]                       0x08000b00   Section        0  usart.o(.text.USART_Printf)
    [Anonymous Symbol]                       0x08000bc6   Section        0  memory.o(.text._Malloc)
    [Anonymous Symbol]                       0x08000c3e   Section        0  usart.o(.text._USART_IO_Parament_Assert)
    [Anonymous Symbol]                       0x08000ca2   Section        0  usart.o(.text._USART_Send_Byte)
    [Anonymous Symbol]                       0x08000cac   Section        0  usart.o(.text._USART_Send_Float)
    [Anonymous Symbol]                       0x08000d2c   Section        0  usart.o(.text._USART_Send_Integer)
    __arm_cp.6_0                             0x08000f20   Number         4  usart.o(.text._USART_Send_Integer)
    __arm_cp.6_1                             0x08000f24   Number         4  usart.o(.text._USART_Send_Integer)
    __arm_cp.6_2                             0x08000f28   Number         4  usart.o(.text._USART_Send_Integer)
    __arm_cp.6_3                             0x08000f2c   Number         4  usart.o(.text._USART_Send_Integer)
    __arm_cp.6_4                             0x08000f30   Number         4  usart.o(.text._USART_Send_Integer)
    [Anonymous Symbol]                       0x08000f34   Section        0  usart.o(.text._USART_Send_String)
    [Anonymous Symbol]                       0x08000f48   Section        0  delay.o(.text.delay_init)
    [Anonymous Symbol]                       0x08000f64   Section        0  delay.o(.text.delay_ms)
    [Anonymous Symbol]                       0x08000f9c   Section        0  delay.o(.text.delay_us)
    [Anonymous Symbol]                       0x08000fc0   Section        0  delay.o(.text.delay_xms)
    __arm_cp.2_0                             0x08000fe4   Number         4  delay.o(.text.delay_xms)
    __arm_cp.2_1                             0x08000fe8   Number         4  delay.o(.text.delay_xms)
    [Anonymous Symbol]                       0x08000fec   Section        0  main.o(.text.main)
    __arm_cp.0_0                             0x0800115c   Number         4  main.o(.text.main)
    __arm_cp.0_1                             0x08001160   Number         4  main.o(.text.main)
    __arm_cp.0_2                             0x08001164   Number         4  main.o(.text.main)
    __arm_cp.0_3                             0x08001168   Number         4  main.o(.text.main)
    __arm_cp.0_4                             0x0800116c   Number         4  main.o(.text.main)
    __arm_cp.0_5                             0x08001170   Number         4  main.o(.text.main)
    __arm_cp.0_6                             0x08001174   Number         4  main.o(.text.main)
    __arm_cp.0_8                             0x0800118c   Number         4  main.o(.text.main)
    __arm_cp.0_9                             0x08001190   Number         4  main.o(.text.main)
    __arm_cp.0_10                            0x08001194   Number         4  main.o(.text.main)
    __arm_cp.0_11                            0x08001198   Number         4  main.o(.text.main)
    __arm_cp.0_17                            0x08001218   Number         4  main.o(.text.main)
    __arm_cp.0_19                            0x08001224   Number         4  main.o(.text.main)
    $v0                                      0x08001228   Number         0  d2f.o(x$fpl$d2f)
    x$fpl$d2f                                0x08001228   Section       98  d2f.o(x$fpl$d2f)
    $v0                                      0x0800128a   Number         0  dnaninf.o(x$fpl$dnaninf)
    x$fpl$dnaninf                            0x0800128a   Section      156  dnaninf.o(x$fpl$dnaninf)
    $v0                                      0x08001326   Number         0  dretinf.o(x$fpl$dretinf)
    x$fpl$dretinf                            0x08001326   Section       12  dretinf.o(x$fpl$dretinf)
    $v0                                      0x08001334   Number         0  f2d.o(x$fpl$f2d)
    x$fpl$f2d                                0x08001334   Section       86  f2d.o(x$fpl$f2d)
    $v0                                      0x0800138a   Number         0  fnaninf.o(x$fpl$fnaninf)
    x$fpl$fnaninf                            0x0800138a   Section      140  fnaninf.o(x$fpl$fnaninf)
    $v0                                      0x08001416   Number         0  fpinit.o(x$fpl$fpinit)
    x$fpl$fpinit                             0x08001416   Section       26  fpinit.o(x$fpl$fpinit)
    $v0                                      0x08001430   Number         0  fretinf.o(x$fpl$fretinf)
    x$fpl$fretinf                            0x08001430   Section       10  fretinf.o(x$fpl$fretinf)
    .L.str                                   0x0800143a   Data          21  main.o(.rodata.str1.1)
    [Anonymous Symbol]                       0x0800143a   Section        0  main.o(.rodata.str1.1)
    x$fpl$usenofp                            0x0800143a   Section        0  usenofp.o(x$fpl$usenofp)
    .L.str.9                                 0x0800144f   Data          12  main.o(.rodata.str1.1)
    .L.str.1                                 0x0800145b   Data          25  main.o(.rodata.str1.1)
    .bss                                     0x20000000   Section       96  libspace.o(.bss)
    fac_us                                   0x20000060   Data           1  delay.o(.bss..L_MergedGlobals)
    [Anonymous Symbol]                       0x20000060   Section        0  delay.o(.bss..L_MergedGlobals)
    fac_ms                                   0x20000062   Data           2  delay.o(.bss..L_MergedGlobals)
    [Anonymous Symbol]                       0x20000064   Section        0  usart.o(.bss..L_MergedGlobals)
    Heap_Mem                                 0x20010140   Data           0  startup_stm32f40_41xxx.o(HEAP)
    Stack_Mem                                0x20010140   Data        1024  startup_stm32f40_41xxx.o(STACK)
    HEAP                                     0x20010140   Section        0  startup_stm32f40_41xxx.o(HEAP)
    STACK                                    0x20010140   Section     1024  startup_stm32f40_41xxx.o(STACK)
    __initial_sp                             0x20010540   Data           0  startup_stm32f40_41xxx.o(STACK)

    Global Symbols

    Symbol Name                              Value     Ov Type        Size  Object(Section)

    BuildAttributes$$THM_ISAv4$E$P$D$K$B$S$7EM$VFPi3$EXTD16$VFPS$VFMA$PE$A:L22UL41UL21$X:L11$S22US41US21$IEEE1$IW$~IW$USESV6$~STKCKD$USESV7$~SHL$OSPACE$ROPI$EBA8$UX$STANDARDLIB$REQ8$PRES8$EABIv2 0x00000000   Number         0  anon$$obj.o ABSOLUTE
    __ARM_exceptions_init                     - Undefined Weak Reference
    __alloca_initialize                       - Undefined Weak Reference
    __arm_preinit_                            - Undefined Weak Reference
    __cpp_initialize__aeabi_                  - Undefined Weak Reference
    __cxa_finalize                            - Undefined Weak Reference
    __rt_locale                               - Undefined Weak Reference
    __sigvec_lookup                           - Undefined Weak Reference
    _atexit_init                              - Undefined Weak Reference
    _call_atexit_fns                          - Undefined Weak Reference
    _clock_init                               - Undefined Weak Reference
    _fp_trap_init                             - Undefined Weak Reference
    _fp_trap_shutdown                         - Undefined Weak Reference
    _get_lc_collate                           - Undefined Weak Reference
    _get_lc_ctype                             - Undefined Weak Reference
    _get_lc_monetary                          - Undefined Weak Reference
    _get_lc_numeric                           - Undefined Weak Reference
    _get_lc_time                              - Undefined Weak Reference
    _getenv_init                              - Undefined Weak Reference
    _handle_redirection                       - Undefined Weak Reference
    _init_alloc                               - Undefined Weak Reference
    _init_user_alloc                          - Undefined Weak Reference
    _initio                                   - Undefined Weak Reference
    _rand_init                                - Undefined Weak Reference
    _signal_finish                            - Undefined Weak Reference
    _signal_init                              - Undefined Weak Reference
    _terminate_alloc                          - Undefined Weak Reference
    _terminate_user_alloc                     - Undefined Weak Reference
    _terminateio                              - Undefined Weak Reference
    __Vectors_Size                           0x00000188   Number         0  startup_stm32f40_41xxx.o ABSOLUTE
    __Vectors                                0x08000000   Data           4  startup_stm32f40_41xxx.o(RESET)
    __Vectors_End                            0x08000188   Data           0  startup_stm32f40_41xxx.o(RESET)
    __main                                   0x08000189   Thumb Code     8  __main.o(!!!main)
    __scatterload                            0x08000191   Thumb Code     0  __scatter.o(!!!scatter)
    __scatterload_rt2                        0x08000191   Thumb Code    44  __scatter.o(!!!scatter)
    __scatterload_rt2_thumb_only             0x08000191   Thumb Code     0  __scatter.o(!!!scatter)
    __scatterload_null                       0x0800019f   Thumb Code     0  __scatter.o(!!!scatter)
    __scatterload_zeroinit                   0x080001c5   Thumb Code    28  __scatter_zi.o(!!handler_zi)
    __rt_lib_init                            0x080001e1   Thumb Code     0  libinit.o(.ARM.Collect$$libinit$$00000000)
    __rt_lib_init_fp_1                       0x080001e3   Thumb Code     0  libinit2.o(.ARM.Collect$$libinit$$00000001)
    __rt_lib_init_alloca_1                   0x080001e7   Thumb Code     0  libinit2.o(.ARM.Collect$$libinit$$0000002E)
    __rt_lib_init_argv_1                     0x080001e7   Thumb Code     0  libinit2.o(.ARM.Collect$$libinit$$0000002C)
    __rt_lib_init_atexit_1                   0x080001e7   Thumb Code     0  libinit2.o(.ARM.Collect$$libinit$$0000001B)
    __rt_lib_init_clock_1                    0x080001e7   Thumb Code     0  libinit2.o(.ARM.Collect$$libinit$$00000021)
    __rt_lib_init_cpp_1                      0x080001e7   Thumb Code     0  libinit2.o(.ARM.Collect$$libinit$$00000032)
    __rt_lib_init_exceptions_1               0x080001e7   Thumb Code     0  libinit2.o(.ARM.Collect$$libinit$$00000030)
    __rt_lib_init_fp_trap_1                  0x080001e7   Thumb Code     0  libinit2.o(.ARM.Collect$$libinit$$0000001F)
    __rt_lib_init_getenv_1                   0x080001e7   Thumb Code     0  libinit2.o(.ARM.Collect$$libinit$$00000023)
    __rt_lib_init_heap_1                     0x080001e7   Thumb Code     0  libinit2.o(.ARM.Collect$$libinit$$0000000A)
    __rt_lib_init_lc_collate_1               0x080001e7   Thumb Code     0  libinit2.o(.ARM.Collect$$libinit$$00000011)
    __rt_lib_init_lc_ctype_1                 0x080001e7   Thumb Code     0  libinit2.o(.ARM.Collect$$libinit$$00000013)
    __rt_lib_init_lc_monetary_1              0x080001e7   Thumb Code     0  libinit2.o(.ARM.Collect$$libinit$$00000015)
    __rt_lib_init_lc_numeric_1               0x080001e7   Thumb Code     0  libinit2.o(.ARM.Collect$$libinit$$00000017)
    __rt_lib_init_lc_time_1                  0x080001e7   Thumb Code     0  libinit2.o(.ARM.Collect$$libinit$$00000019)
    __rt_lib_init_preinit_1                  0x080001e7   Thumb Code     0  libinit2.o(.ARM.Collect$$libinit$$00000004)
    __rt_lib_init_rand_1                     0x080001e7   Thumb Code     0  libinit2.o(.ARM.Collect$$libinit$$0000000E)
    __rt_lib_init_return                     0x080001e7   Thumb Code     0  libinit2.o(.ARM.Collect$$libinit$$00000033)
    __rt_lib_init_signal_1                   0x080001e7   Thumb Code     0  libinit2.o(.ARM.Collect$$libinit$$0000001D)
    __rt_lib_init_stdio_1                    0x080001e7   Thumb Code     0  libinit2.o(.ARM.Collect$$libinit$$00000025)
    __rt_lib_init_user_alloc_1               0x080001e7   Thumb Code     0  libinit2.o(.ARM.Collect$$libinit$$0000000C)
    __rt_lib_shutdown                        0x080001e9   Thumb Code     0  libshutdown.o(.ARM.Collect$$libshutdown$$00000000)
    __rt_lib_shutdown_cpp_1                  0x080001eb   Thumb Code     0  libshutdown2.o(.ARM.Collect$$libshutdown$$00000002)
    __rt_lib_shutdown_fp_trap_1              0x080001eb   Thumb Code     0  libshutdown2.o(.ARM.Collect$$libshutdown$$00000007)
    __rt_lib_shutdown_heap_1                 0x080001eb   Thumb Code     0  libshutdown2.o(.ARM.Collect$$libshutdown$$0000000F)
    __rt_lib_shutdown_return                 0x080001eb   Thumb Code     0  libshutdown2.o(.ARM.Collect$$libshutdown$$00000010)
    __rt_lib_shutdown_signal_1               0x080001eb   Thumb Code     0  libshutdown2.o(.ARM.Collect$$libshutdown$$0000000A)
    __rt_lib_shutdown_stdio_1                0x080001eb   Thumb Code     0  libshutdown2.o(.ARM.Collect$$libshutdown$$00000004)
    __rt_lib_shutdown_user_alloc_1           0x080001eb   Thumb Code     0  libshutdown2.o(.ARM.Collect$$libshutdown$$0000000C)
    __rt_entry                               0x080001ed   Thumb Code     0  __rtentry.o(.ARM.Collect$$rtentry$$00000000)
    __rt_entry_presh_1                       0x080001ed   Thumb Code     0  __rtentry2.o(.ARM.Collect$$rtentry$$00000002)
    __rt_entry_sh                            0x080001ed   Thumb Code     0  __rtentry4.o(.ARM.Collect$$rtentry$$00000004)
    __rt_entry_li                            0x080001f3   Thumb Code     0  __rtentry2.o(.ARM.Collect$$rtentry$$0000000A)
    __rt_entry_postsh_1                      0x080001f3   Thumb Code     0  __rtentry2.o(.ARM.Collect$$rtentry$$00000009)
    __rt_entry_main                          0x080001f7   Thumb Code     0  __rtentry2.o(.ARM.Collect$$rtentry$$0000000D)
    __rt_entry_postli_1                      0x080001f7   Thumb Code     0  __rtentry2.o(.ARM.Collect$$rtentry$$0000000C)
    __rt_exit                                0x080001ff   Thumb Code     0  rtexit.o(.ARM.Collect$$rtexit$$00000000)
    __rt_exit_ls                             0x08000201   Thumb Code     0  rtexit2.o(.ARM.Collect$$rtexit$$00000003)
    __rt_exit_prels_1                        0x08000201   Thumb Code     0  rtexit2.o(.ARM.Collect$$rtexit$$00000002)
    __rt_exit_exit                           0x08000205   Thumb Code     0  rtexit2.o(.ARM.Collect$$rtexit$$00000004)
    Reset_Handler                            0x0800020d   Thumb Code    14  startup_stm32f40_41xxx.o(.text)
    NMI_Handler                              0x0800021b   Thumb Code     2  startup_stm32f40_41xxx.o(.text)
    HardFault_Handler                        0x0800021d   Thumb Code     2  startup_stm32f40_41xxx.o(.text)
    MemManage_Handler                        0x0800021f   Thumb Code     2  startup_stm32f40_41xxx.o(.text)
    BusFault_Handler                         0x08000221   Thumb Code     2  startup_stm32f40_41xxx.o(.text)
    UsageFault_Handler                       0x08000223   Thumb Code     2  startup_stm32f40_41xxx.o(.text)
    SVC_Handler                              0x08000225   Thumb Code     2  startup_stm32f40_41xxx.o(.text)
    DebugMon_Handler                         0x08000227   Thumb Code     2  startup_stm32f40_41xxx.o(.text)
    PendSV_Handler                           0x08000229   Thumb Code     2  startup_stm32f40_41xxx.o(.text)
    SysTick_Handler                          0x0800022b   Thumb Code     2  startup_stm32f40_41xxx.o(.text)
    ADC_IRQHandler                           0x0800022d   Thumb Code     0  startup_stm32f40_41xxx.o(.text)
    CAN1_RX0_IRQHandler                      0x0800022d   Thumb Code     0  startup_stm32f40_41xxx.o(.text)
    CAN1_RX1_IRQHandler                      0x0800022d   Thumb Code     0  startup_stm32f40_41xxx.o(.text)
    CAN1_SCE_IRQHandler                      0x0800022d   Thumb Code     0  startup_stm32f40_41xxx.o(.text)
    CAN1_TX_IRQHandler                       0x0800022d   Thumb Code     0  startup_stm32f40_41xxx.o(.text)
    CAN2_RX0_IRQHandler                      0x0800022d   Thumb Code     0  startup_stm32f40_41xxx.o(.text)
    CAN2_RX1_IRQHandler                      0x0800022d   Thumb Code     0  startup_stm32f40_41xxx.o(.text)
    CAN2_SCE_IRQHandler                      0x0800022d   Thumb Code     0  startup_stm32f40_41xxx.o(.text)
    CAN2_TX_IRQHandler                       0x0800022d   Thumb Code     0  startup_stm32f40_41xxx.o(.text)
    CRYP_IRQHandler                          0x0800022d   Thumb Code     0  startup_stm32f40_41xxx.o(.text)
    DCMI_IRQHandler                          0x0800022d   Thumb Code     0  startup_stm32f40_41xxx.o(.text)
    DMA1_Stream0_IRQHandler                  0x0800022d   Thumb Code     0  startup_stm32f40_41xxx.o(.text)
    DMA1_Stream1_IRQHandler                  0x0800022d   Thumb Code     0  startup_stm32f40_41xxx.o(.text)
    DMA1_Stream2_IRQHandler                  0x0800022d   Thumb Code     0  startup_stm32f40_41xxx.o(.text)
    DMA1_Stream3_IRQHandler                  0x0800022d   Thumb Code     0  startup_stm32f40_41xxx.o(.text)
    DMA1_Stream4_IRQHandler                  0x0800022d   Thumb Code     0  startup_stm32f40_41xxx.o(.text)
    DMA1_Stream5_IRQHandler                  0x0800022d   Thumb Code     0  startup_stm32f40_41xxx.o(.text)
    DMA1_Stream6_IRQHandler                  0x0800022d   Thumb Code     0  startup_stm32f40_41xxx.o(.text)
    DMA1_Stream7_IRQHandler                  0x0800022d   Thumb Code     0  startup_stm32f40_41xxx.o(.text)
    DMA2_Stream0_IRQHandler                  0x0800022d   Thumb Code     0  startup_stm32f40_41xxx.o(.text)
    DMA2_Stream1_IRQHandler                  0x0800022d   Thumb Code     0  startup_stm32f40_41xxx.o(.text)
    DMA2_Stream2_IRQHandler                  0x0800022d   Thumb Code     0  startup_stm32f40_41xxx.o(.text)
    DMA2_Stream3_IRQHandler                  0x0800022d   Thumb Code     0  startup_stm32f40_41xxx.o(.text)
    DMA2_Stream4_IRQHandler                  0x0800022d   Thumb Code     0  startup_stm32f40_41xxx.o(.text)
    DMA2_Stream5_IRQHandler                  0x0800022d   Thumb Code     0  startup_stm32f40_41xxx.o(.text)
    DMA2_Stream6_IRQHandler                  0x0800022d   Thumb Code     0  startup_stm32f40_41xxx.o(.text)
    DMA2_Stream7_IRQHandler                  0x0800022d   Thumb Code     0  startup_stm32f40_41xxx.o(.text)
    ETH_IRQHandler                           0x0800022d   Thumb Code     0  startup_stm32f40_41xxx.o(.text)
    ETH_WKUP_IRQHandler                      0x0800022d   Thumb Code     0  startup_stm32f40_41xxx.o(.text)
    EXTI0_IRQHandler                         0x0800022d   Thumb Code     0  startup_stm32f40_41xxx.o(.text)
    EXTI15_10_IRQHandler                     0x0800022d   Thumb Code     0  startup_stm32f40_41xxx.o(.text)
    EXTI1_IRQHandler                         0x0800022d   Thumb Code     0  startup_stm32f40_41xxx.o(.text)
    EXTI2_IRQHandler                         0x0800022d   Thumb Code     0  startup_stm32f40_41xxx.o(.text)
    EXTI3_IRQHandler                         0x0800022d   Thumb Code     0  startup_stm32f40_41xxx.o(.text)
    EXTI4_IRQHandler                         0x0800022d   Thumb Code     0  startup_stm32f40_41xxx.o(.text)
    EXTI9_5_IRQHandler                       0x0800022d   Thumb Code     0  startup_stm32f40_41xxx.o(.text)
    FLASH_IRQHandler                         0x0800022d   Thumb Code     0  startup_stm32f40_41xxx.o(.text)
    FPU_IRQHandler                           0x0800022d   Thumb Code     0  startup_stm32f40_41xxx.o(.text)
    FSMC_IRQHandler                          0x0800022d   Thumb Code     0  startup_stm32f40_41xxx.o(.text)
    HASH_RNG_IRQHandler                      0x0800022d   Thumb Code     0  startup_stm32f40_41xxx.o(.text)
    I2C1_ER_IRQHandler                       0x0800022d   Thumb Code     0  startup_stm32f40_41xxx.o(.text)
    I2C1_EV_IRQHandler                       0x0800022d   Thumb Code     0  startup_stm32f40_41xxx.o(.text)
    I2C2_ER_IRQHandler                       0x0800022d   Thumb Code     0  startup_stm32f40_41xxx.o(.text)
    I2C2_EV_IRQHandler                       0x0800022d   Thumb Code     0  startup_stm32f40_41xxx.o(.text)
    I2C3_ER_IRQHandler                       0x0800022d   Thumb Code     0  startup_stm32f40_41xxx.o(.text)
    I2C3_EV_IRQHandler                       0x0800022d   Thumb Code     0  startup_stm32f40_41xxx.o(.text)
    OTG_FS_IRQHandler                        0x0800022d   Thumb Code     0  startup_stm32f40_41xxx.o(.text)
    OTG_FS_WKUP_IRQHandler                   0x0800022d   Thumb Code     0  startup_stm32f40_41xxx.o(.text)
    OTG_HS_EP1_IN_IRQHandler                 0x0800022d   Thumb Code     0  startup_stm32f40_41xxx.o(.text)
    OTG_HS_EP1_OUT_IRQHandler                0x0800022d   Thumb Code     0  startup_stm32f40_41xxx.o(.text)
    OTG_HS_IRQHandler                        0x0800022d   Thumb Code     0  startup_stm32f40_41xxx.o(.text)
    OTG_HS_WKUP_IRQHandler                   0x0800022d   Thumb Code     0  startup_stm32f40_41xxx.o(.text)
    PVD_IRQHandler                           0x0800022d   Thumb Code     0  startup_stm32f40_41xxx.o(.text)
    RCC_IRQHandler                           0x0800022d   Thumb Code     0  startup_stm32f40_41xxx.o(.text)
    RTC_Alarm_IRQHandler                     0x0800022d   Thumb Code     0  startup_stm32f40_41xxx.o(.text)
    RTC_WKUP_IRQHandler                      0x0800022d   Thumb Code     0  startup_stm32f40_41xxx.o(.text)
    SDIO_IRQHandler                          0x0800022d   Thumb Code     0  startup_stm32f40_41xxx.o(.text)
    SPI1_IRQHandler                          0x0800022d   Thumb Code     0  startup_stm32f40_41xxx.o(.text)
    SPI2_IRQHandler                          0x0800022d   Thumb Code     0  startup_stm32f40_41xxx.o(.text)
    SPI3_IRQHandler                          0x0800022d   Thumb Code     0  startup_stm32f40_41xxx.o(.text)
    TAMP_STAMP_IRQHandler                    0x0800022d   Thumb Code     0  startup_stm32f40_41xxx.o(.text)
    TIM1_BRK_TIM9_IRQHandler                 0x0800022d   Thumb Code     0  startup_stm32f40_41xxx.o(.text)
    TIM1_CC_IRQHandler                       0x0800022d   Thumb Code     0  startup_stm32f40_41xxx.o(.text)
    TIM1_TRG_COM_TIM11_IRQHandler            0x0800022d   Thumb Code     0  startup_stm32f40_41xxx.o(.text)
    TIM1_UP_TIM10_IRQHandler                 0x0800022d   Thumb Code     0  startup_stm32f40_41xxx.o(.text)
    TIM2_IRQHandler                          0x0800022d   Thumb Code     0  startup_stm32f40_41xxx.o(.text)
    TIM3_IRQHandler                          0x0800022d   Thumb Code     0  startup_stm32f40_41xxx.o(.text)
    TIM4_IRQHandler                          0x0800022d   Thumb Code     0  startup_stm32f40_41xxx.o(.text)
    TIM5_IRQHandler                          0x0800022d   Thumb Code     0  startup_stm32f40_41xxx.o(.text)
    TIM6_DAC_IRQHandler                      0x0800022d   Thumb Code     0  startup_stm32f40_41xxx.o(.text)
    TIM7_IRQHandler                          0x0800022d   Thumb Code     0  startup_stm32f40_41xxx.o(.text)
    TIM8_BRK_TIM12_IRQHandler                0x0800022d   Thumb Code     0  startup_stm32f40_41xxx.o(.text)
    TIM8_CC_IRQHandler                       0x0800022d   Thumb Code     0  startup_stm32f40_41xxx.o(.text)
    TIM8_TRG_COM_TIM14_IRQHandler            0x0800022d   Thumb Code     0  startup_stm32f40_41xxx.o(.text)
    TIM8_UP_TIM13_IRQHandler                 0x0800022d   Thumb Code     0  startup_stm32f40_41xxx.o(.text)
    UART4_IRQHandler                         0x0800022d   Thumb Code     0  startup_stm32f40_41xxx.o(.text)
    UART5_IRQHandler                         0x0800022d   Thumb Code     0  startup_stm32f40_41xxx.o(.text)
    USART6_IRQHandler                        0x0800022d   Thumb Code     0  startup_stm32f40_41xxx.o(.text)
    WWDG_IRQHandler                          0x0800022d   Thumb Code     0  startup_stm32f40_41xxx.o(.text)
    __user_initial_stackheap                 0x08000231   Thumb Code     0  startup_stm32f40_41xxx.o(.text)
    __aeabi_memclr4                          0x08000251   Thumb Code     0  rt_memclr_w.o(.text)
    __aeabi_memclr8                          0x08000251   Thumb Code     0  rt_memclr_w.o(.text)
    __rt_memclr_w                            0x08000251   Thumb Code    78  rt_memclr_w.o(.text)
    _memset_w                                0x08000255   Thumb Code     0  rt_memclr_w.o(.text)
    __use_two_region_memory                  0x0800029f   Thumb Code     2  heapauxi.o(.text)
    __rt_heap_escrow$2region                 0x080002a1   Thumb Code     2  heapauxi.o(.text)
    __rt_heap_expand$2region                 0x080002a3   Thumb Code     2  heapauxi.o(.text)
    __user_setup_stackheap                   0x080002a5   Thumb Code    74  sys_stackheap_outer.o(.text)
    exit                                     0x080002ef   Thumb Code    18  exit.o(.text)
    __user_libspace                          0x08000301   Thumb Code     8  libspace.o(.text)
    __user_perproc_libspace                  0x08000301   Thumb Code     0  libspace.o(.text)
    __user_perthread_libspace                0x08000301   Thumb Code     0  libspace.o(.text)
    _sys_exit                                0x08000309   Thumb Code     8  sys_exit.o(.text)
    __I$use$semihosting                      0x08000315   Thumb Code     0  use_no_semi.o(.text)
    __use_no_semihosting_swi                 0x08000315   Thumb Code     2  use_no_semi.o(.text)
    ADS1256_Read_Once                        0x08000317   Thumb Code    40  ads1256.o(.text.ADS1256_Read_Once)
    __semihosting_library_function           0x08000317   Thumb Code     0  indicate_semi.o(.text)
    GPIO_AF_Set                              0x0800033f   Thumb Code    38  sys.o(.text.GPIO_AF_Set)
    GPIO_Set                                 0x08000365   Thumb Code   228  sys.o(.text.GPIO_Set)
    Malloc                                   0x08000449   Thumb Code    20  memory.o(.text.Malloc)
    Memory_Init                              0x0800045d   Thumb Code   104  memory.o(.text.Memory_Init)
    Method_Get_DRDY_Bit                      0x080004c5   Thumb Code    14  ads1256.o(.text.Method_Get_DRDY_Bit)
    Method_Get_Data                          0x080004d5   Thumb Code   128  ads1256.o(.text.Method_Get_Data)
    Method_Read_Register                     0x08000555   Thumb Code    40  ads1256.o(.text.Method_Read_Register)
    Method_Self_Calibration                  0x0800057d   Thumb Code    22  ads1256.o(.text.Method_Self_Calibration)
    Method_Send_Command                      0x08000593   Thumb Code     6  ads1256.o(.text.Method_Send_Command)
    Method_Set_Gain                          0x08000599   Thumb Code    78  ads1256.o(.text.Method_Set_Gain)
    Method_Set_Input_Buffer                  0x080005e7   Thumb Code    28  ads1256.o(.text.Method_Set_Input_Buffer)
    Method_Set_Negative_Channel              0x08000603   Thumb Code    56  ads1256.o(.text.Method_Set_Negative_Channel)
    Method_Set_Psoitive_Channel              0x0800063b   Thumb Code    56  ads1256.o(.text.Method_Set_Psoitive_Channel)
    Method_Set_Sample_Rate                   0x08000673   Thumb Code   164  ads1256.o(.text.Method_Set_Sample_Rate)
    Method_Write_Register                    0x08000717   Thumb Code    50  ads1256.o(.text.Method_Write_Register)
    New_ADS1256                              0x08000749   Thumb Code   208  ads1256.o(.text.New_ADS1256)
    SPI_Read_Byte                            0x08000819   Thumb Code    24  main.o(.text.SPI_Read_Byte)
    SPI_Write_Byte                           0x08000831   Thumb Code    24  main.o(.text.SPI_Write_Byte)
    Stm32_Clock_Init                         0x08000849   Thumb Code    60  sys.o(.text.Stm32_Clock_Init)
    Sys_Clock_Set                            0x08000885   Thumb Code   212  sys.o(.text.Sys_Clock_Set)
    USART1_IRQHandler                        0x08000959   Thumb Code    24  usart.o(.text.USART1_IRQHandler)
    USART2_IRQHandler                        0x08000971   Thumb Code    24  usart.o(.text.USART2_IRQHandler)
    USART3_IRQHandler                        0x08000989   Thumb Code    28  usart.o(.text.USART3_IRQHandler)
    USART_Init                               0x080009a5   Thumb Code   348  usart.o(.text.USART_Init)
    USART_Printf                             0x08000b01   Thumb Code   198  usart.o(.text.USART_Printf)
    _Malloc                                  0x08000bc7   Thumb Code   120  memory.o(.text._Malloc)
    _USART_IO_Parament_Assert                0x08000c3f   Thumb Code   100  usart.o(.text._USART_IO_Parament_Assert)
    _USART_Send_Byte                         0x08000ca3   Thumb Code    10  usart.o(.text._USART_Send_Byte)
    _USART_Send_Float                        0x08000cad   Thumb Code   128  usart.o(.text._USART_Send_Float)
    _USART_Send_Integer                      0x08000d2d   Thumb Code   520  usart.o(.text._USART_Send_Integer)
    _USART_Send_String                       0x08000f35   Thumb Code    20  usart.o(.text._USART_Send_String)
    delay_init                               0x08000f49   Thumb Code    28  delay.o(.text.delay_init)
    delay_ms                                 0x08000f65   Thumb Code    54  delay.o(.text.delay_ms)
    delay_us                                 0x08000f9d   Thumb Code    36  delay.o(.text.delay_us)
    delay_xms                                0x08000fc1   Thumb Code    44  delay.o(.text.delay_xms)
    main                                     0x08000fed   Thumb Code   572  main.o(.text.main)
    __aeabi_d2f                              0x08001229   Thumb Code     0  d2f.o(x$fpl$d2f)
    _d2f                                     0x08001229   Thumb Code    98  d2f.o(x$fpl$d2f)
    __fpl_dnaninf                            0x0800128b   Thumb Code   156  dnaninf.o(x$fpl$dnaninf)
    __fpl_dretinf                            0x08001327   Thumb Code    12  dretinf.o(x$fpl$dretinf)
    __aeabi_f2d                              0x08001335   Thumb Code     0  f2d.o(x$fpl$f2d)
    _f2d                                     0x08001335   Thumb Code    86  f2d.o(x$fpl$f2d)
    __fpl_fnaninf                            0x0800138b   Thumb Code   140  fnaninf.o(x$fpl$fnaninf)
    _fp_init                                 0x08001417   Thumb Code    26  fpinit.o(x$fpl$fpinit)
    __fplib_config_fpu_vfp                   0x0800142f   Thumb Code     0  fpinit.o(x$fpl$fpinit)
    __fplib_config_pureend_doubles           0x0800142f   Thumb Code     0  fpinit.o(x$fpl$fpinit)
    __fpl_fretinf                            0x08001431   Thumb Code    10  fretinf.o(x$fpl$fretinf)
    __I$use$fp                               0x0800143a   Number         0  usenofp.o(x$fpl$usenofp)
    Region$$Table$$Base                      0x08001474   Number         0  anon$$obj.o(Region$$Table)
    Region$$Table$$Limit                     0x08001484   Number         0  anon$$obj.o(Region$$Table)
    __libspace_start                         0x20000000   Data          96  libspace.o(.bss)
    __temporary_stack_top$libspace           0x20000060   Data           0  libspace.o(.bss)
    USART1_Interrupt_CallbackFunc            0x20000064   Data           4  usart.o(.bss..L_MergedGlobals)
    USART2_Interrupt_CallbackFunc            0x20000068   Data           4  usart.o(.bss..L_MergedGlobals)
    USART3_Interrupt_CallbackFunc            0x2000006c   Data           4  usart.o(.bss..L_MergedGlobals)
    Custom_Heap_List                         0x20000070   Data          72  memory.o(.bss.Custom_Heap_List)
    IRAM1_Heap                               0x200000b8   Data       65536  memory.o(.bss.IRAM1_Heap)
    adc0                                     0x200100b8   Data           4  main.o(.bss.adc0)
    data                                     0x200100bc   Data         128  main.o(.bss.data)



==============================================================================

Memory Map of the image

  Image Entry point : 0x08000189

  Load Region LR_IROM1 (Base: 0x08000000, Size: 0x00001484, Max: 0x00080000, ABSOLUTE)

    Execution Region ER_IROM1 (Exec base: 0x08000000, Load base: 0x08000000, Size: 0x00001484, Max: 0x00080000, ABSOLUTE)

    Exec Addr    Load Addr    Size         Type   Attr      Idx    E Section Name        Object

    0x08000000   0x08000000   0x00000188   Data   RO           21    RESET               startup_stm32f40_41xxx.o
    0x08000188   0x08000188   0x00000008   Code   RO          211  * !!!main             c_w.l(__main.o)
    0x08000190   0x08000190   0x00000034   Code   RO          387    !!!scatter          c_w.l(__scatter.o)
    0x080001c4   0x080001c4   0x0000001c   Code   RO          389    !!handler_zi        c_w.l(__scatter_zi.o)
    0x080001e0   0x080001e0   0x00000002   Code   RO          251    .ARM.Collect$$libinit$$00000000  c_w.l(libinit.o)
    0x080001e2   0x080001e2   0x00000004   Code   RO          257    .ARM.Collect$$libinit$$00000001  c_w.l(libinit2.o)
    0x080001e6   0x080001e6   0x00000000   Code   RO          260    .ARM.Collect$$libinit$$00000004  c_w.l(libinit2.o)
    0x080001e6   0x080001e6   0x00000000   Code   RO          263    .ARM.Collect$$libinit$$0000000A  c_w.l(libinit2.o)
    0x080001e6   0x080001e6   0x00000000   Code   RO          265    .ARM.Collect$$libinit$$0000000C  c_w.l(libinit2.o)
    0x080001e6   0x080001e6   0x00000000   Code   RO          267    .ARM.Collect$$libinit$$0000000E  c_w.l(libinit2.o)
    0x080001e6   0x080001e6   0x00000000   Code   RO          270    .ARM.Collect$$libinit$$00000011  c_w.l(libinit2.o)
    0x080001e6   0x080001e6   0x00000000   Code   RO          272    .ARM.Collect$$libinit$$00000013  c_w.l(libinit2.o)
    0x080001e6   0x080001e6   0x00000000   Code   RO          274    .ARM.Collect$$libinit$$00000015  c_w.l(libinit2.o)
    0x080001e6   0x080001e6   0x00000000   Code   RO          276    .ARM.Collect$$libinit$$00000017  c_w.l(libinit2.o)
    0x080001e6   0x080001e6   0x00000000   Code   RO          278    .ARM.Collect$$libinit$$00000019  c_w.l(libinit2.o)
    0x080001e6   0x080001e6   0x00000000   Code   RO          280    .ARM.Collect$$libinit$$0000001B  c_w.l(libinit2.o)
    0x080001e6   0x080001e6   0x00000000   Code   RO          282    .ARM.Collect$$libinit$$0000001D  c_w.l(libinit2.o)
    0x080001e6   0x080001e6   0x00000000   Code   RO          284    .ARM.Collect$$libinit$$0000001F  c_w.l(libinit2.o)
    0x080001e6   0x080001e6   0x00000000   Code   RO          286    .ARM.Collect$$libinit$$00000021  c_w.l(libinit2.o)
    0x080001e6   0x080001e6   0x00000000   Code   RO          288    .ARM.Collect$$libinit$$00000023  c_w.l(libinit2.o)
    0x080001e6   0x080001e6   0x00000000   Code   RO          290    .ARM.Collect$$libinit$$00000025  c_w.l(libinit2.o)
    0x080001e6   0x080001e6   0x00000000   Code   RO          294    .ARM.Collect$$libinit$$0000002C  c_w.l(libinit2.o)
    0x080001e6   0x080001e6   0x00000000   Code   RO          296    .ARM.Collect$$libinit$$0000002E  c_w.l(libinit2.o)
    0x080001e6   0x080001e6   0x00000000   Code   RO          298    .ARM.Collect$$libinit$$00000030  c_w.l(libinit2.o)
    0x080001e6   0x080001e6   0x00000000   Code   RO          300    .ARM.Collect$$libinit$$00000032  c_w.l(libinit2.o)
    0x080001e6   0x080001e6   0x00000002   Code   RO          301    .ARM.Collect$$libinit$$00000033  c_w.l(libinit2.o)
    0x080001e8   0x080001e8   0x00000002   Code   RO          323    .ARM.Collect$$libshutdown$$00000000  c_w.l(libshutdown.o)
    0x080001ea   0x080001ea   0x00000000   Code   RO          338    .ARM.Collect$$libshutdown$$00000002  c_w.l(libshutdown2.o)
    0x080001ea   0x080001ea   0x00000000   Code   RO          340    .ARM.Collect$$libshutdown$$00000004  c_w.l(libshutdown2.o)
    0x080001ea   0x080001ea   0x00000000   Code   RO          343    .ARM.Collect$$libshutdown$$00000007  c_w.l(libshutdown2.o)
    0x080001ea   0x080001ea   0x00000000   Code   RO          346    .ARM.Collect$$libshutdown$$0000000A  c_w.l(libshutdown2.o)
    0x080001ea   0x080001ea   0x00000000   Code   RO          348    .ARM.Collect$$libshutdown$$0000000C  c_w.l(libshutdown2.o)
    0x080001ea   0x080001ea   0x00000000   Code   RO          351    .ARM.Collect$$libshutdown$$0000000F  c_w.l(libshutdown2.o)
    0x080001ea   0x080001ea   0x00000002   Code   RO          352    .ARM.Collect$$libshutdown$$00000010  c_w.l(libshutdown2.o)
    0x080001ec   0x080001ec   0x00000000   Code   RO          217    .ARM.Collect$$rtentry$$00000000  c_w.l(__rtentry.o)
    0x080001ec   0x080001ec   0x00000000   Code   RO          228    .ARM.Collect$$rtentry$$00000002  c_w.l(__rtentry2.o)
    0x080001ec   0x080001ec   0x00000006   Code   RO          240    .ARM.Collect$$rtentry$$00000004  c_w.l(__rtentry4.o)
    0x080001f2   0x080001f2   0x00000000   Code   RO          230    .ARM.Collect$$rtentry$$00000009  c_w.l(__rtentry2.o)
    0x080001f2   0x080001f2   0x00000004   Code   RO          231    .ARM.Collect$$rtentry$$0000000A  c_w.l(__rtentry2.o)
    0x080001f6   0x080001f6   0x00000000   Code   RO          233    .ARM.Collect$$rtentry$$0000000C  c_w.l(__rtentry2.o)
    0x080001f6   0x080001f6   0x00000008   Code   RO          234    .ARM.Collect$$rtentry$$0000000D  c_w.l(__rtentry2.o)
    0x080001fe   0x080001fe   0x00000002   Code   RO          255    .ARM.Collect$$rtexit$$00000000  c_w.l(rtexit.o)
    0x08000200   0x08000200   0x00000000   Code   RO          303    .ARM.Collect$$rtexit$$00000002  c_w.l(rtexit2.o)
    0x08000200   0x08000200   0x00000004   Code   RO          304    .ARM.Collect$$rtexit$$00000003  c_w.l(rtexit2.o)
    0x08000204   0x08000204   0x00000006   Code   RO          305    .ARM.Collect$$rtexit$$00000004  c_w.l(rtexit2.o)
    0x0800020a   0x0800020a   0x00000002   PAD
    0x0800020c   0x0800020c   0x00000044   Code   RO           22    .text               startup_stm32f40_41xxx.o
    0x08000250   0x08000250   0x0000004e   Code   RO          207    .text               c_w.l(rt_memclr_w.o)
    0x0800029e   0x0800029e   0x00000006   Code   RO          209    .text               c_w.l(heapauxi.o)
    0x080002a4   0x080002a4   0x0000004a   Code   RO          242    .text               c_w.l(sys_stackheap_outer.o)
    0x080002ee   0x080002ee   0x00000012   Code   RO          244    .text               c_w.l(exit.o)
    0x08000300   0x08000300   0x00000008   Code   RO          252    .text               c_w.l(libspace.o)
    0x08000308   0x08000308   0x0000000c   Code   RO          313    .text               c_w.l(sys_exit.o)
    0x08000314   0x08000314   0x00000002   Code   RO          328    .text               c_w.l(use_no_semi.o)
    0x08000316   0x08000316   0x00000000   Code   RO          330    .text               c_w.l(indicate_semi.o)
    0x08000316   0x08000316   0x00000028   Code   RO          170    .text.ADS1256_Read_Once  ads1256.o
    0x0800033e   0x0800033e   0x00000026   Code   RO           61    .text.GPIO_AF_Set   sys.o
    0x08000364   0x08000364   0x000000e4   Code   RO           63    .text.GPIO_Set      sys.o
    0x08000448   0x08000448   0x00000014   Code   RO          150    .text.Malloc        memory.o
    0x0800045c   0x0800045c   0x00000068   Code   RO          144    .text.Memory_Init   memory.o
    0x080004c4   0x080004c4   0x0000000e   Code   RO          182    .text.Method_Get_DRDY_Bit  ads1256.o
    0x080004d2   0x080004d2   0x00000002   PAD
    0x080004d4   0x080004d4   0x00000080   Code   RO          180    .text.Method_Get_Data  ads1256.o
    0x08000554   0x08000554   0x00000028   Code   RO          172    .text.Method_Read_Register  ads1256.o
    0x0800057c   0x0800057c   0x00000016   Code   RO          184    .text.Method_Self_Calibration  ads1256.o
    0x08000592   0x08000592   0x00000006   Code   RO          176    .text.Method_Send_Command  ads1256.o
    0x08000598   0x08000598   0x0000004e   Code   RO          192    .text.Method_Set_Gain  ads1256.o
    0x080005e6   0x080005e6   0x0000001c   Code   RO          190    .text.Method_Set_Input_Buffer  ads1256.o
    0x08000602   0x08000602   0x00000038   Code   RO          188    .text.Method_Set_Negative_Channel  ads1256.o
    0x0800063a   0x0800063a   0x00000038   Code   RO          186    .text.Method_Set_Psoitive_Channel  ads1256.o
    0x08000672   0x08000672   0x000000a4   Code   RO          194    .text.Method_Set_Sample_Rate  ads1256.o
    0x08000716   0x08000716   0x00000032   Code   RO          174    .text.Method_Write_Register  ads1256.o
    0x08000748   0x08000748   0x000000d0   Code   RO          178    .text.New_ADS1256   ads1256.o
    0x08000818   0x08000818   0x00000018   Code   RO            6    .text.SPI_Read_Byte  main.o
    0x08000830   0x08000830   0x00000018   Code   RO            4    .text.SPI_Write_Byte  main.o
    0x08000848   0x08000848   0x0000003c   Code   RO           79    .text.Stm32_Clock_Init  sys.o
    0x08000884   0x08000884   0x000000d4   Code   RO           77    .text.Sys_Clock_Set  sys.o
    0x08000958   0x08000958   0x00000018   Code   RO          123    .text.USART1_IRQHandler  usart.o
    0x08000970   0x08000970   0x00000018   Code   RO          125    .text.USART2_IRQHandler  usart.o
    0x08000988   0x08000988   0x0000001c   Code   RO          127    .text.USART3_IRQHandler  usart.o
    0x080009a4   0x080009a4   0x0000015c   Code   RO           89    .text.USART_Init    usart.o
    0x08000b00   0x08000b00   0x000000c6   Code   RO          107    .text.USART_Printf  usart.o
    0x08000bc6   0x08000bc6   0x00000078   Code   RO          140    .text._Malloc       memory.o
    0x08000c3e   0x08000c3e   0x00000064   Code   RO          105    .text._USART_IO_Parament_Assert  usart.o
    0x08000ca2   0x08000ca2   0x0000000a   Code   RO           95    .text._USART_Send_Byte  usart.o
    0x08000cac   0x08000cac   0x00000080   Code   RO          103    .text._USART_Send_Float  usart.o
    0x08000d2c   0x08000d2c   0x00000208   Code   RO          101    .text._USART_Send_Integer  usart.o
    0x08000f34   0x08000f34   0x00000014   Code   RO           99    .text._USART_Send_String  usart.o
    0x08000f48   0x08000f48   0x0000001c   Code   RO           29    .text.delay_init    delay.o
    0x08000f64   0x08000f64   0x00000036   Code   RO           35    .text.delay_ms      delay.o
    0x08000f9a   0x08000f9a   0x00000002   PAD
    0x08000f9c   0x08000f9c   0x00000024   Code   RO           31    .text.delay_us      delay.o
    0x08000fc0   0x08000fc0   0x0000002c   Code   RO           33    .text.delay_xms     delay.o
    0x08000fec   0x08000fec   0x0000023c   Code   RO            2    .text.main          main.o
    0x08001228   0x08001228   0x00000062   Code   RO          213    x$fpl$d2f           fz_wm.l(d2f.o)
    0x0800128a   0x0800128a   0x0000009c   Code   RO          218    x$fpl$dnaninf       fz_wm.l(dnaninf.o)
    0x08001326   0x08001326   0x0000000c   Code   RO          220    x$fpl$dretinf       fz_wm.l(dretinf.o)
    0x08001332   0x08001332   0x00000002   PAD
    0x08001334   0x08001334   0x00000056   Code   RO          215    x$fpl$f2d           fz_wm.l(f2d.o)
    0x0800138a   0x0800138a   0x0000008c   Code   RO          222    x$fpl$fnaninf       fz_wm.l(fnaninf.o)
    0x08001416   0x08001416   0x0000001a   Code   RO          311    x$fpl$fpinit        fz_wm.l(fpinit.o)
    0x08001430   0x08001430   0x0000000a   Code   RO          224    x$fpl$fretinf       fz_wm.l(fretinf.o)
    0x0800143a   0x0800143a   0x00000000   Code   RO          226    x$fpl$usenofp       fz_wm.l(usenofp.o)
    0x0800143a   0x0800143a   0x0000003a   Data   RO            8    .rodata.str1.1      main.o
    0x08001474   0x08001474   0x00000010   Data   RO          386    Region$$Table       anon$$obj.o


    Execution Region RW_IRAM1 (Exec base: 0x20000000, Load base: 0x08001484, Size: 0x00010540, Max: 0x00020000, ABSOLUTE)

    Exec Addr    Load Addr    Size         Type   Attr      Idx    E Section Name        Object

    0x20000000        -       0x00000060   Zero   RW          253    .bss                c_w.l(libspace.o)
    0x20000060        -       0x00000004   Zero   RW           37    .bss..L_MergedGlobals  delay.o
    0x20000064        -       0x0000000c   Zero   RW          131    .bss..L_MergedGlobals  usart.o
    0x20000070        -       0x00000048   Zero   RW          160    .bss.Custom_Heap_List  memory.o
    0x200000b8        -       0x00010000   Zero   RW          161    .bss.IRAM1_Heap     memory.o
    0x200100b8        -       0x00000004   Zero   RW            9    .bss.adc0           main.o
    0x200100bc        -       0x00000080   Zero   RW           10    .bss.data           main.o
    0x2001013c   0x08001484   0x00000004   PAD
    0x20010140        -       0x00000000   Zero   RW           20    HEAP                startup_stm32f40_41xxx.o
    0x20010140        -       0x00000400   Zero   RW           19    STACK               startup_stm32f40_41xxx.o


==============================================================================

Image component sizes


      Code (inc. data)   RO Data    RW Data    ZI Data      Debug   Object Name

       890         60          0          0          0       6968   ads1256.o
       162          8          0          0          4       1704   delay.o
       620        208         58          0        132       4746   main.o
       244         24          0          0      65608       4377   memory.o
        68         24        392          0       1024        864   startup_stm32f40_41xxx.o
       538         64          0          0          0       6918   sys.o
      1400         54          0          0         12      13436   usart.o

    ----------------------------------------------------------------------
      3926        442        466          0      66784      39013   Object Totals
         0          0         16          0          0          0   (incl. Generated)
         4          0          0          0          4          0   (incl. Padding)

    ----------------------------------------------------------------------

      Code (inc. data)   RO Data    RW Data    ZI Data      Debug   Library Member Name

         8          0          0          0          0         68   __main.o
         0          0          0          0          0          0   __rtentry.o
        12          0          0          0          0          0   __rtentry2.o
         6          0          0          0          0          0   __rtentry4.o
        52          8          0          0          0          0   __scatter.o
        28          0          0          0          0          0   __scatter_zi.o
        18          0          0          0          0         80   exit.o
         6          0          0          0          0        152   heapauxi.o
         0          0          0          0          0          0   indicate_semi.o
         2          0          0          0          0          0   libinit.o
         6          0          0          0          0          0   libinit2.o
         2          0          0          0          0          0   libshutdown.o
         2          0          0          0          0          0   libshutdown2.o
         8          4          0          0         96         68   libspace.o
        78          0          0          0          0         80   rt_memclr_w.o
         2          0          0          0          0          0   rtexit.o
        10          0          0          0          0          0   rtexit2.o
        12          4          0          0          0         68   sys_exit.o
        74          0          0          0          0         80   sys_stackheap_outer.o
         2          0          0          0          0         68   use_no_semi.o
        98          4          0          0          0        140   d2f.o
       156          4          0          0          0        140   dnaninf.o
        12          0          0          0          0        116   dretinf.o
        86          4          0          0          0        132   f2d.o
       140          4          0          0          0        132   fnaninf.o
        26          0          0          0          0        116   fpinit.o
        10          0          0          0          0        116   fretinf.o
         0          0          0          0          0          0   usenofp.o

    ----------------------------------------------------------------------
       860         32          0          0         96       1556   Library Totals
         4          0          0          0          0          0   (incl. Padding)

    ----------------------------------------------------------------------

      Code (inc. data)   RO Data    RW Data    ZI Data      Debug   Library Name

       328         16          0          0         96        664   c_w.l
       528         16          0          0          0        892   fz_wm.l

    ----------------------------------------------------------------------
       860         32          0          0         96       1556   Library Totals

    ----------------------------------------------------------------------

==============================================================================


      Code (inc. data)   RO Data    RW Data    ZI Data      Debug   

      4786        474        466          0      66880      39613   Grand Totals
      4786        474        466          0      66880      39613   ELF Image Totals
      4786        474        466          0          0          0   ROM Totals

==============================================================================

    Total RO  Size (Code + RO Data)                 5252 (   5.13kB)
    Total RW  Size (RW Data + ZI Data)             66880 (  65.31kB)
    Total ROM Size (Code + RO Data + RW Data)       5252 (   5.13kB)

==============================================================================

